{
  "contractName": "StoneSquad",
  "abi": [
    {
      "inputs": [
        {
          "internalType": "string",
          "name": "_tokenName",
          "type": "string"
        },
        {
          "internalType": "string",
          "name": "_tokenSymbol",
          "type": "string"
        },
        {
          "internalType": "uint256",
          "name": "_maxSupply",
          "type": "uint256"
        },
        {
          "internalType": "uint256",
          "name": "_wlMaxSupply",
          "type": "uint256"
        },
        {
          "internalType": "uint256",
          "name": "_maxMintAmountPerTx",
          "type": "uint256"
        },
        {
          "internalType": "address",
          "name": "_payments",
          "type": "address"
        },
        {
          "internalType": "address[]",
          "name": "_payees",
          "type": "address[]"
        }
      ],
      "stateMutability": "nonpayable",
      "type": "constructor"
    },
    {
      "inputs": [],
      "name": "ApprovalCallerNotOwnerNorApproved",
      "type": "error"
    },
    {
      "inputs": [],
      "name": "ApprovalQueryForNonexistentToken",
      "type": "error"
    },
    {
      "inputs": [],
      "name": "ApproveToCaller",
      "type": "error"
    },
    {
      "inputs": [],
      "name": "BalanceQueryForZeroAddress",
      "type": "error"
    },
    {
      "inputs": [],
      "name": "MintERC2309QuantityExceedsLimit",
      "type": "error"
    },
    {
      "inputs": [],
      "name": "MintToZeroAddress",
      "type": "error"
    },
    {
      "inputs": [],
      "name": "MintZeroQuantity",
      "type": "error"
    },
    {
      "inputs": [],
      "name": "OwnerQueryForNonexistentToken",
      "type": "error"
    },
    {
      "inputs": [],
      "name": "OwnershipNotInitializedForExtraData",
      "type": "error"
    },
    {
      "inputs": [],
      "name": "TransferCallerNotOwnerNorApproved",
      "type": "error"
    },
    {
      "inputs": [],
      "name": "TransferFromIncorrectOwner",
      "type": "error"
    },
    {
      "inputs": [],
      "name": "TransferToNonERC721ReceiverImplementer",
      "type": "error"
    },
    {
      "inputs": [],
      "name": "TransferToZeroAddress",
      "type": "error"
    },
    {
      "inputs": [],
      "name": "URIQueryForNonexistentToken",
      "type": "error"
    },
    {
      "anonymous": false,
      "inputs": [
        {
          "indexed": true,
          "internalType": "address",
          "name": "owner",
          "type": "address"
        },
        {
          "indexed": true,
          "internalType": "address",
          "name": "approved",
          "type": "address"
        },
        {
          "indexed": true,
          "internalType": "uint256",
          "name": "tokenId",
          "type": "uint256"
        }
      ],
      "name": "Approval",
      "type": "event"
    },
    {
      "anonymous": false,
      "inputs": [
        {
          "indexed": true,
          "internalType": "address",
          "name": "owner",
          "type": "address"
        },
        {
          "indexed": true,
          "internalType": "address",
          "name": "operator",
          "type": "address"
        },
        {
          "indexed": false,
          "internalType": "bool",
          "name": "approved",
          "type": "bool"
        }
      ],
      "name": "ApprovalForAll",
      "type": "event"
    },
    {
      "anonymous": false,
      "inputs": [
        {
          "indexed": true,
          "internalType": "uint256",
          "name": "fromTokenId",
          "type": "uint256"
        },
        {
          "indexed": false,
          "internalType": "uint256",
          "name": "toTokenId",
          "type": "uint256"
        },
        {
          "indexed": true,
          "internalType": "address",
          "name": "from",
          "type": "address"
        },
        {
          "indexed": true,
          "internalType": "address",
          "name": "to",
          "type": "address"
        }
      ],
      "name": "ConsecutiveTransfer",
      "type": "event"
    },
    {
      "anonymous": false,
      "inputs": [
        {
          "indexed": true,
          "internalType": "address",
          "name": "previousOwner",
          "type": "address"
        },
        {
          "indexed": true,
          "internalType": "address",
          "name": "newOwner",
          "type": "address"
        }
      ],
      "name": "OwnershipTransferred",
      "type": "event"
    },
    {
      "anonymous": false,
      "inputs": [
        {
          "indexed": true,
          "internalType": "address",
          "name": "from",
          "type": "address"
        },
        {
          "indexed": true,
          "internalType": "address",
          "name": "to",
          "type": "address"
        },
        {
          "indexed": true,
          "internalType": "uint256",
          "name": "tokenId",
          "type": "uint256"
        }
      ],
      "name": "Transfer",
      "type": "event"
    },
    {
      "anonymous": false,
      "inputs": [
        {
          "indexed": false,
          "internalType": "address",
          "name": "minter",
          "type": "address"
        },
        {
          "indexed": false,
          "internalType": "uint256",
          "name": "amount",
          "type": "uint256"
        }
      ],
      "name": "WhitelistMinted",
      "type": "event"
    },
    {
      "anonymous": false,
      "inputs": [],
      "name": "amountReleased",
      "type": "event"
    },
    {
      "anonymous": false,
      "inputs": [
        {
          "indexed": false,
          "internalType": "address",
          "name": "minter",
          "type": "address"
        },
        {
          "indexed": false,
          "internalType": "uint256",
          "name": "amount",
          "type": "uint256"
        }
      ],
      "name": "minted",
      "type": "event"
    },
    {
      "inputs": [
        {
          "internalType": "address",
          "name": "to",
          "type": "address"
        },
        {
          "internalType": "uint256",
          "name": "tokenId",
          "type": "uint256"
        }
      ],
      "name": "approve",
      "outputs": [],
      "stateMutability": "nonpayable",
      "type": "function"
    },
    {
      "inputs": [
        {
          "internalType": "address",
          "name": "owner",
          "type": "address"
        }
      ],
      "name": "balanceOf",
      "outputs": [
        {
          "internalType": "uint256",
          "name": "",
          "type": "uint256"
        }
      ],
      "stateMutability": "view",
      "type": "function",
      "constant": true
    },
    {
      "inputs": [],
      "name": "cost",
      "outputs": [
        {
          "internalType": "uint256",
          "name": "",
          "type": "uint256"
        }
      ],
      "stateMutability": "view",
      "type": "function",
      "constant": true
    },
    {
      "inputs": [
        {
          "internalType": "uint256",
          "name": "tokenId",
          "type": "uint256"
        }
      ],
      "name": "getApproved",
      "outputs": [
        {
          "internalType": "address",
          "name": "",
          "type": "address"
        }
      ],
      "stateMutability": "view",
      "type": "function",
      "constant": true
    },
    {
      "inputs": [
        {
          "internalType": "address",
          "name": "owner",
          "type": "address"
        },
        {
          "internalType": "address",
          "name": "operator",
          "type": "address"
        }
      ],
      "name": "isApprovedForAll",
      "outputs": [
        {
          "internalType": "bool",
          "name": "",
          "type": "bool"
        }
      ],
      "stateMutability": "view",
      "type": "function",
      "constant": true
    },
    {
      "inputs": [],
      "name": "maxMintAmountPerTx",
      "outputs": [
        {
          "internalType": "uint256",
          "name": "",
          "type": "uint256"
        }
      ],
      "stateMutability": "view",
      "type": "function",
      "constant": true
    },
    {
      "inputs": [],
      "name": "maxSupply",
      "outputs": [
        {
          "internalType": "uint256",
          "name": "",
          "type": "uint256"
        }
      ],
      "stateMutability": "view",
      "type": "function",
      "constant": true
    },
    {
      "inputs": [],
      "name": "merkleRoot",
      "outputs": [
        {
          "internalType": "bytes32",
          "name": "",
          "type": "bytes32"
        }
      ],
      "stateMutability": "view",
      "type": "function",
      "constant": true
    },
    {
      "inputs": [],
      "name": "name",
      "outputs": [
        {
          "internalType": "string",
          "name": "",
          "type": "string"
        }
      ],
      "stateMutability": "view",
      "type": "function",
      "constant": true
    },
    {
      "inputs": [],
      "name": "owner",
      "outputs": [
        {
          "internalType": "address",
          "name": "",
          "type": "address"
        }
      ],
      "stateMutability": "view",
      "type": "function",
      "constant": true
    },
    {
      "inputs": [
        {
          "internalType": "uint256",
          "name": "tokenId",
          "type": "uint256"
        }
      ],
      "name": "ownerOf",
      "outputs": [
        {
          "internalType": "address",
          "name": "",
          "type": "address"
        }
      ],
      "stateMutability": "view",
      "type": "function",
      "constant": true
    },
    {
      "inputs": [],
      "name": "paused",
      "outputs": [
        {
          "internalType": "bool",
          "name": "",
          "type": "bool"
        }
      ],
      "stateMutability": "view",
      "type": "function",
      "constant": true
    },
    {
      "inputs": [
        {
          "internalType": "uint256",
          "name": "",
          "type": "uint256"
        }
      ],
      "name": "payees",
      "outputs": [
        {
          "internalType": "address",
          "name": "",
          "type": "address"
        }
      ],
      "stateMutability": "view",
      "type": "function",
      "constant": true
    },
    {
      "inputs": [],
      "name": "payments",
      "outputs": [
        {
          "internalType": "address payable",
          "name": "",
          "type": "address"
        }
      ],
      "stateMutability": "view",
      "type": "function",
      "constant": true
    },
    {
      "inputs": [],
      "name": "renounceOwnership",
      "outputs": [],
      "stateMutability": "nonpayable",
      "type": "function"
    },
    {
      "inputs": [
        {
          "internalType": "address",
          "name": "from",
          "type": "address"
        },
        {
          "internalType": "address",
          "name": "to",
          "type": "address"
        },
        {
          "internalType": "uint256",
          "name": "tokenId",
          "type": "uint256"
        }
      ],
      "name": "safeTransferFrom",
      "outputs": [],
      "stateMutability": "nonpayable",
      "type": "function"
    },
    {
      "inputs": [
        {
          "internalType": "address",
          "name": "from",
          "type": "address"
        },
        {
          "internalType": "address",
          "name": "to",
          "type": "address"
        },
        {
          "internalType": "uint256",
          "name": "tokenId",
          "type": "uint256"
        },
        {
          "internalType": "bytes",
          "name": "_data",
          "type": "bytes"
        }
      ],
      "name": "safeTransferFrom",
      "outputs": [],
      "stateMutability": "nonpayable",
      "type": "function"
    },
    {
      "inputs": [
        {
          "internalType": "address",
          "name": "operator",
          "type": "address"
        },
        {
          "internalType": "bool",
          "name": "approved",
          "type": "bool"
        }
      ],
      "name": "setApprovalForAll",
      "outputs": [],
      "stateMutability": "nonpayable",
      "type": "function"
    },
    {
      "inputs": [
        {
          "internalType": "bytes4",
          "name": "interfaceId",
          "type": "bytes4"
        }
      ],
      "name": "supportsInterface",
      "outputs": [
        {
          "internalType": "bool",
          "name": "",
          "type": "bool"
        }
      ],
      "stateMutability": "view",
      "type": "function",
      "constant": true
    },
    {
      "inputs": [],
      "name": "symbol",
      "outputs": [
        {
          "internalType": "string",
          "name": "",
          "type": "string"
        }
      ],
      "stateMutability": "view",
      "type": "function",
      "constant": true
    },
    {
      "inputs": [],
      "name": "totalSupply",
      "outputs": [
        {
          "internalType": "uint256",
          "name": "",
          "type": "uint256"
        }
      ],
      "stateMutability": "view",
      "type": "function",
      "constant": true
    },
    {
      "inputs": [
        {
          "internalType": "address",
          "name": "from",
          "type": "address"
        },
        {
          "internalType": "address",
          "name": "to",
          "type": "address"
        },
        {
          "internalType": "uint256",
          "name": "tokenId",
          "type": "uint256"
        }
      ],
      "name": "transferFrom",
      "outputs": [],
      "stateMutability": "nonpayable",
      "type": "function"
    },
    {
      "inputs": [
        {
          "internalType": "address",
          "name": "newOwner",
          "type": "address"
        }
      ],
      "name": "transferOwnership",
      "outputs": [],
      "stateMutability": "nonpayable",
      "type": "function"
    },
    {
      "inputs": [],
      "name": "uriPrefix",
      "outputs": [
        {
          "internalType": "string",
          "name": "",
          "type": "string"
        }
      ],
      "stateMutability": "view",
      "type": "function",
      "constant": true
    },
    {
      "inputs": [],
      "name": "uriSuffix",
      "outputs": [
        {
          "internalType": "string",
          "name": "",
          "type": "string"
        }
      ],
      "stateMutability": "view",
      "type": "function",
      "constant": true
    },
    {
      "inputs": [],
      "name": "whitelistMintEnabled",
      "outputs": [
        {
          "internalType": "bool",
          "name": "",
          "type": "bool"
        }
      ],
      "stateMutability": "view",
      "type": "function",
      "constant": true
    },
    {
      "inputs": [],
      "name": "wlMaxSupply",
      "outputs": [
        {
          "internalType": "uint256",
          "name": "",
          "type": "uint256"
        }
      ],
      "stateMutability": "view",
      "type": "function",
      "constant": true
    },
    {
      "inputs": [],
      "name": "getMinted",
      "outputs": [
        {
          "internalType": "uint256",
          "name": "",
          "type": "uint256"
        }
      ],
      "stateMutability": "view",
      "type": "function",
      "constant": true
    },
    {
      "inputs": [
        {
          "internalType": "uint256",
          "name": "_cost",
          "type": "uint256"
        }
      ],
      "name": "setCost",
      "outputs": [],
      "stateMutability": "nonpayable",
      "type": "function"
    },
    {
      "inputs": [],
      "name": "setPublicCost",
      "outputs": [],
      "stateMutability": "nonpayable",
      "type": "function"
    },
    {
      "inputs": [],
      "name": "setWlCost",
      "outputs": [],
      "stateMutability": "nonpayable",
      "type": "function"
    },
    {
      "inputs": [
        {
          "internalType": "uint256",
          "name": "_maxMintAmountPerTx",
          "type": "uint256"
        }
      ],
      "name": "setMaxMintAmountPerTx",
      "outputs": [],
      "stateMutability": "nonpayable",
      "type": "function"
    },
    {
      "inputs": [
        {
          "internalType": "bytes32[]",
          "name": "_merkleProof",
          "type": "bytes32[]"
        }
      ],
      "name": "whitelistVerify",
      "outputs": [
        {
          "internalType": "bool",
          "name": "",
          "type": "bool"
        }
      ],
      "stateMutability": "view",
      "type": "function",
      "constant": true
    },
    {
      "inputs": [
        {
          "internalType": "uint256",
          "name": "_mintAmount",
          "type": "uint256"
        },
        {
          "internalType": "bytes32[]",
          "name": "_merkleProof",
          "type": "bytes32[]"
        }
      ],
      "name": "whitelistMint",
      "outputs": [],
      "stateMutability": "payable",
      "type": "function",
      "payable": true
    },
    {
      "inputs": [
        {
          "internalType": "uint256",
          "name": "_mintAmount",
          "type": "uint256"
        }
      ],
      "name": "mint",
      "outputs": [],
      "stateMutability": "payable",
      "type": "function",
      "payable": true
    },
    {
      "inputs": [
        {
          "internalType": "uint256",
          "name": "_mintAmount",
          "type": "uint256"
        },
        {
          "internalType": "address",
          "name": "_receiver",
          "type": "address"
        }
      ],
      "name": "mintForAddress",
      "outputs": [],
      "stateMutability": "nonpayable",
      "type": "function"
    },
    {
      "inputs": [
        {
          "internalType": "address",
          "name": "newOwner",
          "type": "address"
        }
      ],
      "name": "transferOwner",
      "outputs": [],
      "stateMutability": "nonpayable",
      "type": "function"
    },
    {
      "inputs": [
        {
          "internalType": "uint256",
          "name": "_tokenId",
          "type": "uint256"
        }
      ],
      "name": "tokenURI",
      "outputs": [
        {
          "internalType": "string",
          "name": "",
          "type": "string"
        }
      ],
      "stateMutability": "view",
      "type": "function",
      "constant": true
    },
    {
      "inputs": [
        {
          "internalType": "string",
          "name": "_uriPrefix",
          "type": "string"
        }
      ],
      "name": "setUriPrefix",
      "outputs": [],
      "stateMutability": "nonpayable",
      "type": "function"
    },
    {
      "inputs": [
        {
          "internalType": "string",
          "name": "_uriSuffix",
          "type": "string"
        }
      ],
      "name": "setUriSuffix",
      "outputs": [],
      "stateMutability": "nonpayable",
      "type": "function"
    },
    {
      "inputs": [
        {
          "internalType": "bool",
          "name": "_state",
          "type": "bool"
        }
      ],
      "name": "setPaused",
      "outputs": [],
      "stateMutability": "nonpayable",
      "type": "function"
    },
    {
      "inputs": [
        {
          "internalType": "bytes32",
          "name": "_merkleRoot",
          "type": "bytes32"
        }
      ],
      "name": "setMerkleRoot",
      "outputs": [],
      "stateMutability": "nonpayable",
      "type": "function"
    },
    {
      "inputs": [
        {
          "internalType": "bool",
          "name": "_state",
          "type": "bool"
        }
      ],
      "name": "setWhitelistMintEnabled",
      "outputs": [],
      "stateMutability": "nonpayable",
      "type": "function"
    },
    {
      "inputs": [
        {
          "internalType": "uint256",
          "name": "_maxSupply",
          "type": "uint256"
        }
      ],
      "name": "setMaxSupply",
      "outputs": [],
      "stateMutability": "nonpayable",
      "type": "function"
    },
    {
      "inputs": [
        {
          "internalType": "uint256",
          "name": "_wlMaxSupply",
          "type": "uint256"
        }
      ],
      "name": "setWLMaxSupply",
      "outputs": [],
      "stateMutability": "nonpayable",
      "type": "function"
    },
    {
      "inputs": [],
      "name": "getMaxSupply",
      "outputs": [
        {
          "internalType": "uint256",
          "name": "",
          "type": "uint256"
        }
      ],
      "stateMutability": "view",
      "type": "function",
      "constant": true
    },
    {
      "inputs": [],
      "name": "getWLMaxSupply",
      "outputs": [
        {
          "internalType": "uint256",
          "name": "",
          "type": "uint256"
        }
      ],
      "stateMutability": "view",
      "type": "function",
      "constant": true
    },
    {
      "inputs": [],
      "name": "currentBalance",
      "outputs": [
        {
          "internalType": "uint256",
          "name": "",
          "type": "uint256"
        }
      ],
      "stateMutability": "view",
      "type": "function",
      "constant": true
    },
    {
      "inputs": [],
      "name": "getTotalBalance",
      "outputs": [
        {
          "internalType": "uint256",
          "name": "",
          "type": "uint256"
        }
      ],
      "stateMutability": "view",
      "type": "function",
      "constant": true
    },
    {
      "inputs": [],
      "name": "withdraw",
      "outputs": [],
      "stateMutability": "nonpayable",
      "type": "function"
    }
  ],
  "bytecode": "0x60806040526001600f60006101000a81548160ff0219169083151502179055506000600f60016101000a81548160ff02191690831515021790555060405180602001604052806000815250601090805190602001906200006192919062000393565b506040518060400160405280600581526020017f2e6a736f6e00000000000000000000000000000000000000000000000000000081525060119080519060200190620000af92919062000393565b50348015620000bd57600080fd5b5060405162004bdb38038062004bdb8339818101604052810190620000e3919062000614565b86868160029080519060200190620000fd92919062000393565b5080600390805190602001906200011692919062000393565b5062000127620001eb60201b60201c565b60008190555050506200014f62000143620001f060201b60201c565b620001f860201b60201c565b600160098190555084600c8190555083600d819055506200017683620002be60201b60201c565b80601390805190602001906200018e92919062000424565b5081601260006101000a81548173ffffffffffffffffffffffffffffffffffffffff021916908373ffffffffffffffffffffffffffffffffffffffff16021790555066d529ae9e860000600b8190555050505050505050620009a0565b600090565b600033905090565b6000600860009054906101000a900473ffffffffffffffffffffffffffffffffffffffff16905081600860006101000a81548173ffffffffffffffffffffffffffffffffffffffff021916908373ffffffffffffffffffffffffffffffffffffffff1602179055508173ffffffffffffffffffffffffffffffffffffffff168173ffffffffffffffffffffffffffffffffffffffff167f8be0079c531659141344cd1fd0a4f28419497f9722a3daafe3b4186f6b6457e060405160405180910390a35050565b620002ce620002d860201b60201c565b80600e8190555050565b620002e8620001f060201b60201c565b73ffffffffffffffffffffffffffffffffffffffff166200030e6200036960201b60201c565b73ffffffffffffffffffffffffffffffffffffffff161462000367576040517f08c379a00000000000000000000000000000000000000000000000000000000081526004016200035e9062000733565b60405180910390fd5b565b6000600860009054906101000a900473ffffffffffffffffffffffffffffffffffffffff16905090565b828054620003a19062000868565b90600052602060002090601f016020900481019282620003c5576000855562000411565b82601f10620003e057805160ff191683800117855562000411565b8280016001018555821562000411579182015b8281111562000410578251825591602001919060010190620003f3565b5b509050620004209190620004b3565b5090565b828054828255906000526020600020908101928215620004a0579160200282015b828111156200049f5782518260006101000a81548173ffffffffffffffffffffffffffffffffffffffff021916908373ffffffffffffffffffffffffffffffffffffffff1602179055509160200191906001019062000445565b5b509050620004af9190620004b3565b5090565b5b80821115620004ce576000816000905550600101620004b4565b5090565b6000620004e9620004e3846200077e565b62000755565b905080838252602082019050828560208602820111156200050957600080fd5b60005b858110156200053d57816200052288826200058c565b8452602084019350602083019250506001810190506200050c565b5050509392505050565b60006200055e6200055884620007ad565b62000755565b9050828152602081018484840111156200057757600080fd5b6200058484828562000832565b509392505050565b6000815190506200059d816200096c565b92915050565b600082601f830112620005b557600080fd5b8151620005c7848260208601620004d2565b91505092915050565b600082601f830112620005e257600080fd5b8151620005f484826020860162000547565b91505092915050565b6000815190506200060e8162000986565b92915050565b600080600080600080600060e0888a0312156200063057600080fd5b600088015167ffffffffffffffff8111156200064b57600080fd5b620006598a828b01620005d0565b975050602088015167ffffffffffffffff8111156200067757600080fd5b620006858a828b01620005d0565b9650506040620006988a828b01620005fd565b9550506060620006ab8a828b01620005fd565b9450506080620006be8a828b01620005fd565b93505060a0620006d18a828b016200058c565b92505060c088015167ffffffffffffffff811115620006ef57600080fd5b620006fd8a828b01620005a3565b91505092959891949750929550565b60006200071b602083620007e3565b9150620007288262000943565b602082019050919050565b600060208201905081810360008301526200074e816200070c565b9050919050565b60006200076162000774565b90506200076f82826200089e565b919050565b6000604051905090565b600067ffffffffffffffff8211156200079c576200079b62000903565b5b602082029050602081019050919050565b600067ffffffffffffffff821115620007cb57620007ca62000903565b5b620007d68262000932565b9050602081019050919050565b600082825260208201905092915050565b6000620008018262000808565b9050919050565b600073ffffffffffffffffffffffffffffffffffffffff82169050919050565b6000819050919050565b60005b838110156200085257808201518184015260208101905062000835565b8381111562000862576000848401525b50505050565b600060028204905060018216806200088157607f821691505b60208210811415620008985762000897620008d4565b5b50919050565b620008a98262000932565b810181811067ffffffffffffffff82111715620008cb57620008ca62000903565b5b80604052505050565b7f4e487b7100000000000000000000000000000000000000000000000000000000600052602260045260246000fd5b7f4e487b7100000000000000000000000000000000000000000000000000000000600052604160045260246000fd5b6000601f19601f8301169050919050565b7f4f776e61626c653a2063616c6c6572206973206e6f7420746865206f776e6572600082015250565b6200097781620007f4565b81146200098357600080fd5b50565b620009918162000828565b81146200099d57600080fd5b50565b61422b80620009b06000396000f3fe6080604052600436106102c95760003560e01c80636f8b44b011610175578063a6d23e10116100dc578063c87b56dd11610095578063d5abeb011161006f578063d5abeb0114610a7a578063e985e9c514610aa5578063efbd73f414610ae2578063f2fde38b14610b0b576102c9565b8063c87b56dd146109f6578063ce845d1d14610a33578063d2cab05614610a5e576102c9565b8063a6d23e10146108fc578063ac72200d14610927578063b071401b14610952578063b53cff0f1461097b578063b767a098146109a4578063b88d4fde146109cd576102c9565b80637ec4a6591161012e5780637ec4a6591461080d5780638da5cb5b1461083657806394354fd01461086157806395d89b411461088c578063a0712d68146108b7578063a22cb465146108d3576102c9565b80636f8b44b01461073957806370a0823114610762578063715018a61461079f57806377c30767146107b657806379e27d78146107cd5780637cb64759146107e4576102c9565b806334fbf724116102345780634fb2e45d116101ed57806362b99ad4116101c757806362b99ad41461066957806363037b0c146106945780636352211e146106d15780636caede3d1461070e576102c9565b80634fb2e45d146105ea5780635503a0e8146106135780635c975abb1461063e576102c9565b806334fbf724146104ee57806337a30a4d1461052b5780633ccfd60b1461055657806342842e0e1461056d57806344a0d68a146105965780634c0f38c2146105bf576102c9565b806316ba10e01161028657806316ba10e0146103f257806316c38b3c1461041b57806318160ddd1461044457806323b872dd1461046f57806323b87eed146104985780632eb4a7ab146104c3576102c9565b806301ffc9a7146102ce57806306fdde031461030b578063081812fc14610336578063095ea7b31461037357806312b583491461039c57806313faede6146103c7575b600080fd5b3480156102da57600080fd5b506102f560048036038101906102f091906131dd565b610b34565b60405161030291906137ca565b60405180910390f35b34801561031757600080fd5b50610320610bc6565b60405161032d9190613800565b60405180910390f35b34801561034257600080fd5b5061035d60048036038101906103589190613270565b610c58565b60405161036a919061371f565b60405180910390f35b34801561037f57600080fd5b5061039a6004803603810190610395919061310a565b610cd7565b005b3480156103a857600080fd5b506103b1610e1b565b6040516103be91906139e2565b60405180910390f35b3480156103d357600080fd5b506103dc610e25565b6040516103e991906139e2565b60405180910390f35b3480156103fe57600080fd5b506104196004803603810190610414919061322f565b610e2b565b005b34801561042757600080fd5b50610442600480360381019061043d919061318b565b610e4d565b005b34801561045057600080fd5b50610459610e72565b60405161046691906139e2565b60405180910390f35b34801561047b57600080fd5b5061049660048036038101906104919190613004565b610e89565b005b3480156104a457600080fd5b506104ad6111ae565b6040516104ba91906139e2565b60405180910390f35b3480156104cf57600080fd5b506104d86111b4565b6040516104e591906137e5565b60405180910390f35b3480156104fa57600080fd5b5061051560048036038101906105109190613146565b6111ba565b60405161052291906137ca565b60405180910390f35b34801561053757600080fd5b506105406112b3565b60405161054d91906139e2565b60405180910390f35b34801561056257600080fd5b5061056b6112bd565b005b34801561057957600080fd5b50610594600480360381019061058f9190613004565b611522565b005b3480156105a257600080fd5b506105bd60048036038101906105b89190613270565b611542565b005b3480156105cb57600080fd5b506105d4611554565b6040516105e191906139e2565b60405180910390f35b3480156105f657600080fd5b50610611600480360381019061060c9190612f9f565b61155e565b005b34801561061f57600080fd5b50610628611572565b6040516106359190613800565b60405180910390f35b34801561064a57600080fd5b50610653611600565b60405161066091906137ca565b60405180910390f35b34801561067557600080fd5b5061067e611613565b60405161068b9190613800565b60405180910390f35b3480156106a057600080fd5b506106bb60048036038101906106b69190613270565b6116a1565b6040516106c8919061371f565b60405180910390f35b3480156106dd57600080fd5b506106f860048036038101906106f39190613270565b6116e0565b604051610705919061371f565b60405180910390f35b34801561071a57600080fd5b506107236116f2565b60405161073091906137ca565b60405180910390f35b34801561074557600080fd5b50610760600480360381019061075b9190613270565b611705565b005b34801561076e57600080fd5b5061078960048036038101906107849190612f9f565b611717565b60405161079691906139e2565b60405180910390f35b3480156107ab57600080fd5b506107b46117d0565b005b3480156107c257600080fd5b506107cb6117e4565b005b3480156107d957600080fd5b506107e26117fc565b005b3480156107f057600080fd5b5061080b600480360381019061080691906131b4565b611814565b005b34801561081957600080fd5b50610834600480360381019061082f919061322f565b611826565b005b34801561084257600080fd5b5061084b611848565b604051610858919061371f565b60405180910390f35b34801561086d57600080fd5b50610876611872565b60405161088391906139e2565b60405180910390f35b34801561089857600080fd5b506108a1611878565b6040516108ae9190613800565b60405180910390f35b6108d160048036038101906108cc9190613270565b61190a565b005b3480156108df57600080fd5b506108fa60048036038101906108f591906130ce565b611b30565b005b34801561090857600080fd5b50610911611ca8565b60405161091e919061373a565b60405180910390f35b34801561093357600080fd5b5061093c611cce565b60405161094991906139e2565b60405180910390f35b34801561095e57600080fd5b5061097960048036038101906109749190613270565b611cdd565b005b34801561098757600080fd5b506109a2600480360381019061099d9190613270565b611cef565b005b3480156109b057600080fd5b506109cb60048036038101906109c6919061318b565b611d01565b005b3480156109d957600080fd5b506109f460048036038101906109ef9190613053565b611d26565b005b348015610a0257600080fd5b50610a1d6004803603810190610a189190613270565b611d99565b604051610a2a9190613800565b60405180910390f35b348015610a3f57600080fd5b50610a48611e43565b604051610a5591906139e2565b60405180910390f35b610a786004803603810190610a7391906132d5565b611e4b565b005b348015610a8657600080fd5b50610a8f612132565b604051610a9c91906139e2565b60405180910390f35b348015610ab157600080fd5b50610acc6004803603810190610ac79190612fc8565b612138565b604051610ad991906137ca565b60405180910390f35b348015610aee57600080fd5b50610b096004803603810190610b049190613299565b6121cc565b005b348015610b1757600080fd5b50610b326004803603810190610b2d9190612f9f565b61228b565b005b60006301ffc9a760e01b827bffffffffffffffffffffffffffffffffffffffffffffffffffffffff19161480610b8f57506380ac58cd60e01b827bffffffffffffffffffffffffffffffffffffffffffffffffffffffff1916145b80610bbf5750635b5e139f60e01b827bffffffffffffffffffffffffffffffffffffffffffffffffffffffff1916145b9050919050565b606060028054610bd590613cce565b80601f0160208091040260200160405190810160405280929190818152602001828054610c0190613cce565b8015610c4e5780601f10610c2357610100808354040283529160200191610c4e565b820191906000526020600020905b815481529060010190602001808311610c3157829003601f168201915b5050505050905090565b6000610c638261230f565b610c99576040517fcf4700e400000000000000000000000000000000000000000000000000000000815260040160405180910390fd5b6006600083815260200190815260200160002060000160009054906101000a900473ffffffffffffffffffffffffffffffffffffffff169050919050565b6000610ce2826116e0565b90508073ffffffffffffffffffffffffffffffffffffffff16610d0361236e565b73ffffffffffffffffffffffffffffffffffffffff1614610d6657610d2f81610d2a61236e565b612138565b610d65576040517fcfb3b94200000000000000000000000000000000000000000000000000000000815260040160405180910390fd5b5b826006600084815260200190815260200160002060000160006101000a81548173ffffffffffffffffffffffffffffffffffffffff021916908373ffffffffffffffffffffffffffffffffffffffff160217905550818373ffffffffffffffffffffffffffffffffffffffff168273ffffffffffffffffffffffffffffffffffffffff167f8c5be1e5ebec7d5bd14f71427d1e84f3dd0314c0f7b2291e5b200ac8c7c3b92560405160405180910390a4505050565b6000601454905090565b600b5481565b610e33612376565b8060119080519060200190610e49929190612d64565b5050565b610e55612376565b80600f60006101000a81548160ff02191690831515021790555050565b6000610e7c6123f4565b6001546000540303905090565b6000610e94826123f9565b90508373ffffffffffffffffffffffffffffffffffffffff168173ffffffffffffffffffffffffffffffffffffffff1614610efb576040517fa114810000000000000000000000000000000000000000000000000000000000815260040160405180910390fd5b600080610f07846124c7565b91509150610f1d8187610f1861236e565b6124ee565b610f6957610f3286610f2d61236e565b612138565b610f68576040517f59c896be00000000000000000000000000000000000000000000000000000000815260040160405180910390fd5b5b600073ffffffffffffffffffffffffffffffffffffffff168573ffffffffffffffffffffffffffffffffffffffff161415610fd0576040517fea553b3400000000000000000000000000000000000000000000000000000000815260040160405180910390fd5b610fdd8686866001612532565b8015610fe857600082555b600560008773ffffffffffffffffffffffffffffffffffffffff1673ffffffffffffffffffffffffffffffffffffffff168152602001908152602001600020600081546001900391905081905550600560008673ffffffffffffffffffffffffffffffffffffffff1673ffffffffffffffffffffffffffffffffffffffff16815260200190815260200160002060008154600101919050819055506110b685611092888887612538565b7c020000000000000000000000000000000000000000000000000000000017612560565b600460008681526020019081526020016000208190555060007c02000000000000000000000000000000000000000000000000000000008416141561113e57600060018501905060006004600083815260200190815260200160002054141561113c57600054811461113b578360046000838152602001908152602001600020819055505b5b505b838573ffffffffffffffffffffffffffffffffffffffff168773ffffffffffffffffffffffffffffffffffffffff167fddf252ad1be2c89b69c2b068fc378daa952ba7f163c4a11628f55a4df523b3ef60405160405180910390a46111a6868686600161258b565b505050505050565b600d5481565b600a5481565b60003373ffffffffffffffffffffffffffffffffffffffff163273ffffffffffffffffffffffffffffffffffffffff161461122a576040517f08c379a0000000000000000000000000000000000000000000000000000000008152600401611221906138c2565b60405180910390fd5b6000611234612591565b60405160200161124491906136be565b6040516020818303038152906040528051906020012090506112aa848480806020026020016040519081016040528093929190818152602001838360200280828437600081840152601f19601f82011690508083019250505050505050600a5483612599565b91505092915050565b6000600d54905090565b336000805b60138054905081101561137f578273ffffffffffffffffffffffffffffffffffffffff1660138281548110611320577f4e487b7100000000000000000000000000000000000000000000000000000000600052603260045260246000fd5b9060005260206000200160009054906101000a900473ffffffffffffffffffffffffffffffffffffffff1673ffffffffffffffffffffffffffffffffffffffff16141561136c57600191505b808061137790613d31565b9150506112c2565b50806113c0576040517f08c379a00000000000000000000000000000000000000000000000000000000081526004016113b790613942565b60405180910390fd5b60026009541415611406576040517f08c379a00000000000000000000000000000000000000000000000000000000081526004016113fd906139a2565b60405180910390fd5b600260098190555060004711611451576040517f08c379a000000000000000000000000000000000000000000000000000000000815260040161144890613822565b60405180910390fd5b6000601260009054906101000a900473ffffffffffffffffffffffffffffffffffffffff1673ffffffffffffffffffffffffffffffffffffffff16476040516114999061370a565b60006040518083038185875af1925050503d80600081146114d6576040519150601f19603f3d011682016040523d82523d6000602084013e6114db565b606091505b50509050806114e957600080fd5b7fdc7454dd8274035c58b00ecc8f69fcf7b164f037f05811c3e23059b491cd0dc160405160405180910390a15060016009819055505050565b61153d83838360405180602001604052806000815250611d26565b505050565b61154a612376565b80600b8190555050565b6000600c54905090565b611566612376565b61156f8161228b565b50565b6011805461157f90613cce565b80601f01602080910402602001604051908101604052809291908181526020018280546115ab90613cce565b80156115f85780601f106115cd576101008083540402835291602001916115f8565b820191906000526020600020905b8154815290600101906020018083116115db57829003601f168201915b505050505081565b600f60009054906101000a900460ff1681565b6010805461162090613cce565b80601f016020809104026020016040519081016040528092919081815260200182805461164c90613cce565b80156116995780601f1061166e57610100808354040283529160200191611699565b820191906000526020600020905b81548152906001019060200180831161167c57829003601f168201915b505050505081565b601381815481106116b157600080fd5b906000526020600020016000915054906101000a900473ffffffffffffffffffffffffffffffffffffffff1681565b60006116eb826123f9565b9050919050565b600f60019054906101000a900460ff1681565b61170d612376565b80600c8190555050565b60008073ffffffffffffffffffffffffffffffffffffffff168273ffffffffffffffffffffffffffffffffffffffff16141561177f576040517f8f4eb60400000000000000000000000000000000000000000000000000000000815260040160405180910390fd5b67ffffffffffffffff600560008473ffffffffffffffffffffffffffffffffffffffff1673ffffffffffffffffffffffffffffffffffffffff16815260200190815260200160002054169050919050565b6117d8612376565b6117e260006125b0565b565b6117ec612376565b66f5232269808000600b81905550565b611804612376565b66d529ae9e860000600b81905550565b61181c612376565b80600a8190555050565b61182e612376565b8060109080519060200190611844929190612d64565b5050565b6000600860009054906101000a900473ffffffffffffffffffffffffffffffffffffffff16905090565b600e5481565b60606003805461188790613cce565b80601f01602080910402602001604051908101604052809291908181526020018280546118b390613cce565b80156119005780601f106118d557610100808354040283529160200191611900565b820191906000526020600020905b8154815290600101906020018083116118e357829003601f168201915b5050505050905090565b8060008111801561191d5750600e548111155b61195c576040517f08c379a0000000000000000000000000000000000000000000000000000000008152600401611953906138a2565b60405180910390fd5b600c5481611968610e72565b6119729190613ae7565b106119b2576040517f08c379a00000000000000000000000000000000000000000000000000000000081526004016119a990613982565b60405180910390fd5b8180600b546119c19190613b6e565b341015611a03576040517f08c379a00000000000000000000000000000000000000000000000000000000081526004016119fa906139c2565b60405180910390fd5b3373ffffffffffffffffffffffffffffffffffffffff163273ffffffffffffffffffffffffffffffffffffffff1614611a71576040517f08c379a0000000000000000000000000000000000000000000000000000000008152600401611a68906138c2565b60405180910390fd5b600f60009054906101000a900460ff1615611ac1576040517f08c379a0000000000000000000000000000000000000000000000000000000008152600401611ab890613922565b60405180910390fd5b3460146000828254611ad39190613ae7565b92505081905550611aeb611ae5612591565b84612676565b7fb7656808f0e04b4af7a20f7ef1caa7669f0d781f1ca4cba31a3ba467880766c9611b14612591565b84604051611b239291906137a1565b60405180910390a1505050565b611b3861236e565b73ffffffffffffffffffffffffffffffffffffffff168273ffffffffffffffffffffffffffffffffffffffff161415611b9d576040517fb06307db00000000000000000000000000000000000000000000000000000000815260040160405180910390fd5b8060076000611baa61236e565b73ffffffffffffffffffffffffffffffffffffffff1673ffffffffffffffffffffffffffffffffffffffff16815260200190815260200160002060008473ffffffffffffffffffffffffffffffffffffffff1673ffffffffffffffffffffffffffffffffffffffff16815260200190815260200160002060006101000a81548160ff0219169083151502179055508173ffffffffffffffffffffffffffffffffffffffff16611c5761236e565b73ffffffffffffffffffffffffffffffffffffffff167f17307eab39ab6107e8899845ad3d59bd9653f200f220920489ca2b5937696c3183604051611c9c91906137ca565b60405180910390a35050565b601260009054906101000a900473ffffffffffffffffffffffffffffffffffffffff1681565b6000611cd8610e72565b905090565b611ce5612376565b80600e8190555050565b611cf7612376565b80600d8190555050565b611d09612376565b80600f60016101000a81548160ff02191690831515021790555050565b611d31848484610e89565b60008373ffffffffffffffffffffffffffffffffffffffff163b14611d9357611d5c84848484612694565b611d92576040517fd1a57ed600000000000000000000000000000000000000000000000000000000815260040160405180910390fd5b5b50505050565b6060611da48261230f565b611de3576040517f08c379a0000000000000000000000000000000000000000000000000000000008152600401611dda90613962565b60405180910390fd5b6000611ded6127f4565b90506000815111611e0d5760405180602001604052806000815250611e3b565b80611e1784612886565b6011604051602001611e2b939291906136d9565b6040516020818303038152906040525b915050919050565b600047905090565b82600081118015611e5e5750600e548111155b611e9d576040517f08c379a0000000000000000000000000000000000000000000000000000000008152600401611e94906138a2565b60405180910390fd5b600d5481611ea9610e72565b611eb39190613ae7565b10611ef3576040517f08c379a0000000000000000000000000000000000000000000000000000000008152600401611eea906138e2565b60405180910390fd5b8380600b54611f029190613b6e565b341015611f44576040517f08c379a0000000000000000000000000000000000000000000000000000000008152600401611f3b906139c2565b60405180910390fd5b3373ffffffffffffffffffffffffffffffffffffffff163273ffffffffffffffffffffffffffffffffffffffff1614611fb2576040517f08c379a0000000000000000000000000000000000000000000000000000000008152600401611fa9906138c2565b60405180910390fd5b600f60019054906101000a900460ff16612001576040517f08c379a0000000000000000000000000000000000000000000000000000000008152600401611ff890613882565b60405180910390fd5b600061200b612591565b60405160200161201b91906136be565b604051602081830303815290604052805190602001209050612081858580806020026020016040519081016040528093929190818152602001838360200280828437600081840152601f19601f82011690508083019250505050505050600a5483612599565b6120c0576040517f08c379a00000000000000000000000000000000000000000000000000000000081526004016120b790613842565b60405180910390fd5b34601460008282546120d29190613ae7565b925050819055506120ea6120e4612591565b87612676565b7fce77e469b386be007f957632f6f65216f2e74c5daa303aff682e8296f628d010612113612591565b876040516121229291906137a1565b60405180910390a1505050505050565b600c5481565b6000600760008473ffffffffffffffffffffffffffffffffffffffff1673ffffffffffffffffffffffffffffffffffffffff16815260200190815260200160002060008373ffffffffffffffffffffffffffffffffffffffff1673ffffffffffffffffffffffffffffffffffffffff16815260200190815260200160002060009054906101000a900460ff16905092915050565b816000811180156121df5750600e548111155b61221e576040517f08c379a0000000000000000000000000000000000000000000000000000000008152600401612215906138a2565b60405180910390fd5b600c548161222a610e72565b6122349190613ae7565b10612274576040517f08c379a000000000000000000000000000000000000000000000000000000000815260040161226b90613982565b60405180910390fd5b61227c612376565b6122868284612676565b505050565b612293612376565b600073ffffffffffffffffffffffffffffffffffffffff168173ffffffffffffffffffffffffffffffffffffffff161415612303576040517f08c379a00000000000000000000000000000000000000000000000000000000081526004016122fa90613862565b60405180910390fd5b61230c816125b0565b50565b60008161231a6123f4565b11158015612329575060005482105b8015612367575060007c0100000000000000000000000000000000000000000000000000000000600460008581526020019081526020016000205416145b9050919050565b600033905090565b61237e612591565b73ffffffffffffffffffffffffffffffffffffffff1661239c611848565b73ffffffffffffffffffffffffffffffffffffffff16146123f2576040517f08c379a00000000000000000000000000000000000000000000000000000000081526004016123e990613902565b60405180910390fd5b565b600090565b600080829050806124086123f4565b116124905760005481101561248f5760006004600083815260200190815260200160002054905060007c01000000000000000000000000000000000000000000000000000000008216141561248d575b6000811415612483576004600083600190039350838152602001908152602001600020549050612458565b80925050506124c2565b505b5b6040517fdf2d9b4200000000000000000000000000000000000000000000000000000000815260040160405180910390fd5b919050565b60008060006006600085815260200190815260200160002090508092508254915050915091565b600073ffffffffffffffffffffffffffffffffffffffff8316925073ffffffffffffffffffffffffffffffffffffffff821691508382148383141790509392505050565b50505050565b60008060e883901c905060e861254f868684612a33565b62ffffff16901b9150509392505050565b600073ffffffffffffffffffffffffffffffffffffffff83169250814260a01b178317905092915050565b50505050565b600033905090565b6000826125a68584612a3c565b1490509392505050565b6000600860009054906101000a900473ffffffffffffffffffffffffffffffffffffffff16905081600860006101000a81548173ffffffffffffffffffffffffffffffffffffffff021916908373ffffffffffffffffffffffffffffffffffffffff1602179055508173ffffffffffffffffffffffffffffffffffffffff168173ffffffffffffffffffffffffffffffffffffffff167f8be0079c531659141344cd1fd0a4f28419497f9722a3daafe3b4186f6b6457e060405160405180910390a35050565b612690828260405180602001604052806000815250612ab8565b5050565b60008373ffffffffffffffffffffffffffffffffffffffff1663150b7a026126ba61236e565b8786866040518563ffffffff1660e01b81526004016126dc9493929190613755565b602060405180830381600087803b1580156126f657600080fd5b505af192505050801561272757506040513d601f19601f820116820180604052508101906127249190613206565b60015b6127a1573d8060008114612757576040519150601f19603f3d011682016040523d82523d6000602084013e61275c565b606091505b50600081511415612799576040517fd1a57ed600000000000000000000000000000000000000000000000000000000815260040160405180910390fd5b805181602001fd5b63150b7a0260e01b7bffffffffffffffffffffffffffffffffffffffffffffffffffffffff1916817bffffffffffffffffffffffffffffffffffffffffffffffffffffffff191614915050949350505050565b60606010805461280390613cce565b80601f016020809104026020016040519081016040528092919081815260200182805461282f90613cce565b801561287c5780601f106128515761010080835404028352916020019161287c565b820191906000526020600020905b81548152906001019060200180831161285f57829003601f168201915b5050505050905090565b606060008214156128ce576040518060400160405280600181526020017f30000000000000000000000000000000000000000000000000000000000000008152509050612a2e565b600082905060005b600082146129005780806128e990613d31565b915050600a826128f99190613b3d565b91506128d6565b60008167ffffffffffffffff811115612942577f4e487b7100000000000000000000000000000000000000000000000000000000600052604160045260246000fd5b6040519080825280601f01601f1916602001820160405280156129745781602001600182028036833780820191505090505b5090505b60008514612a275760018261298d9190613bc8565b9150600a8561299c9190613d9e565b60306129a89190613ae7565b60f81b8183815181106129e4577f4e487b7100000000000000000000000000000000000000000000000000000000600052603260045260246000fd5b60200101907effffffffffffffffffffffffffffffffffffffffffffffffffffffffffffff1916908160001a905350600a85612a209190613b3d565b9450612978565b8093505050505b919050565b60009392505050565b60008082905060005b8451811015612aad57612a9882868381518110612a8b577f4e487b7100000000000000000000000000000000000000000000000000000000600052603260045260246000fd5b6020026020010151612b55565b91508080612aa590613d31565b915050612a45565b508091505092915050565b612ac28383612b80565b60008373ffffffffffffffffffffffffffffffffffffffff163b14612b5057600080549050600083820390505b612b026000868380600101945086612694565b612b38576040517fd1a57ed600000000000000000000000000000000000000000000000000000000815260040160405180910390fd5b818110612aef578160005414612b4d57600080fd5b50505b505050565b6000818310612b6d57612b688284612d3d565b612b78565b612b778383612d3d565b5b905092915050565b6000805490506000821415612bc1576040517fb562e8dd00000000000000000000000000000000000000000000000000000000815260040160405180910390fd5b612bce6000848385612532565b600160406001901b178202600560008573ffffffffffffffffffffffffffffffffffffffff1673ffffffffffffffffffffffffffffffffffffffff16815260200190815260200160002060008282540192505081905550612c4583612c366000866000612538565b612c3f85612d54565b17612560565b6004600083815260200190815260200160002081905550600080838301905073ffffffffffffffffffffffffffffffffffffffff85169150828260007fddf252ad1be2c89b69c2b068fc378daa952ba7f163c4a11628f55a4df523b3ef600080a4600183015b818114612ce657808360007fddf252ad1be2c89b69c2b068fc378daa952ba7f163c4a11628f55a4df523b3ef600080a4600181019050612cab565b506000821415612d22576040517f2e07630000000000000000000000000000000000000000000000000000000000815260040160405180910390fd5b806000819055505050612d38600084838561258b565b505050565b600082600052816020526040600020905092915050565b60006001821460e11b9050919050565b828054612d7090613cce565b90600052602060002090601f016020900481019282612d925760008555612dd9565b82601f10612dab57805160ff1916838001178555612dd9565b82800160010185558215612dd9579182015b82811115612dd8578251825591602001919060010190612dbd565b5b509050612de69190612dea565b5090565b5b80821115612e03576000816000905550600101612deb565b5090565b6000612e1a612e1584613a22565b6139fd565b905082815260208101848484011115612e3257600080fd5b612e3d848285613c8c565b509392505050565b6000612e58612e5384613a53565b6139fd565b905082815260208101848484011115612e7057600080fd5b612e7b848285613c8c565b509392505050565b600081359050612e9281614182565b92915050565b60008083601f840112612eaa57600080fd5b8235905067ffffffffffffffff811115612ec357600080fd5b602083019150836020820283011115612edb57600080fd5b9250929050565b600081359050612ef181614199565b92915050565b600081359050612f06816141b0565b92915050565b600081359050612f1b816141c7565b92915050565b600081519050612f30816141c7565b92915050565b600082601f830112612f4757600080fd5b8135612f57848260208601612e07565b91505092915050565b600082601f830112612f7157600080fd5b8135612f81848260208601612e45565b91505092915050565b600081359050612f99816141de565b92915050565b600060208284031215612fb157600080fd5b6000612fbf84828501612e83565b91505092915050565b60008060408385031215612fdb57600080fd5b6000612fe985828601612e83565b9250506020612ffa85828601612e83565b9150509250929050565b60008060006060848603121561301957600080fd5b600061302786828701612e83565b935050602061303886828701612e83565b925050604061304986828701612f8a565b9150509250925092565b6000806000806080858703121561306957600080fd5b600061307787828801612e83565b945050602061308887828801612e83565b935050604061309987828801612f8a565b925050606085013567ffffffffffffffff8111156130b657600080fd5b6130c287828801612f36565b91505092959194509250565b600080604083850312156130e157600080fd5b60006130ef85828601612e83565b925050602061310085828601612ee2565b9150509250929050565b6000806040838503121561311d57600080fd5b600061312b85828601612e83565b925050602061313c85828601612f8a565b9150509250929050565b6000806020838503121561315957600080fd5b600083013567ffffffffffffffff81111561317357600080fd5b61317f85828601612e98565b92509250509250929050565b60006020828403121561319d57600080fd5b60006131ab84828501612ee2565b91505092915050565b6000602082840312156131c657600080fd5b60006131d484828501612ef7565b91505092915050565b6000602082840312156131ef57600080fd5b60006131fd84828501612f0c565b91505092915050565b60006020828403121561321857600080fd5b600061322684828501612f21565b91505092915050565b60006020828403121561324157600080fd5b600082013567ffffffffffffffff81111561325b57600080fd5b61326784828501612f60565b91505092915050565b60006020828403121561328257600080fd5b600061329084828501612f8a565b91505092915050565b600080604083850312156132ac57600080fd5b60006132ba85828601612f8a565b92505060206132cb85828601612e83565b9150509250929050565b6000806000604084860312156132ea57600080fd5b60006132f886828701612f8a565b935050602084013567ffffffffffffffff81111561331557600080fd5b61332186828701612e98565b92509250509250925092565b61333681613c0e565b82525050565b61334581613bfc565b82525050565b61335c61335782613bfc565b613d7a565b82525050565b61336b81613c20565b82525050565b61337a81613c2c565b82525050565b600061338b82613a99565b6133958185613aaf565b93506133a5818560208601613c9b565b6133ae81613e8b565b840191505092915050565b60006133c482613aa4565b6133ce8185613acb565b93506133de818560208601613c9b565b6133e781613e8b565b840191505092915050565b60006133fd82613aa4565b6134078185613adc565b9350613417818560208601613c9b565b80840191505092915050565b6000815461343081613cce565b61343a8186613adc565b94506001821660008114613455576001811461346657613499565b60ff19831686528186019350613499565b61346f85613a84565b60005b8381101561349157815481890152600182019150602081019050613472565b838801955050505b50505092915050565b60006134af602a83613acb565b91506134ba82613ea9565b604082019050919050565b60006134d2600e83613acb565b91506134dd82613ef8565b602082019050919050565b60006134f5602683613acb565b915061350082613f21565b604082019050919050565b6000613518602183613acb565b915061352382613f70565b604082019050919050565b600061353b601483613acb565b915061354682613fbf565b602082019050919050565b600061355e601683613acb565b915061356982613fe8565b602082019050919050565b6000613581601e83613acb565b915061358c82614011565b602082019050919050565b60006135a4602083613acb565b91506135af8261403a565b602082019050919050565b60006135c7601783613acb565b91506135d282614063565b602082019050919050565b60006135ea601d83613acb565b91506135f58261408c565b602082019050919050565b600061360d602f83613acb565b9150613618826140b5565b604082019050919050565b6000613630600083613ac0565b915061363b82614104565b600082019050919050565b6000613653601483613acb565b915061365e82614107565b602082019050919050565b6000613676601f83613acb565b915061368182614130565b602082019050919050565b6000613699601383613acb565b91506136a482614159565b602082019050919050565b6136b881613c82565b82525050565b60006136ca828461334b565b60148201915081905092915050565b60006136e582866133f2565b91506136f182856133f2565b91506136fd8284613423565b9150819050949350505050565b600061371582613623565b9150819050919050565b6000602082019050613734600083018461333c565b92915050565b600060208201905061374f600083018461332d565b92915050565b600060808201905061376a600083018761333c565b613777602083018661333c565b61378460408301856136af565b81810360608301526137968184613380565b905095945050505050565b60006040820190506137b6600083018561333c565b6137c360208301846136af565b9392505050565b60006020820190506137df6000830184613362565b92915050565b60006020820190506137fa6000830184613371565b92915050565b6000602082019050818103600083015261381a81846133b9565b905092915050565b6000602082019050818103600083015261383b816134a2565b9050919050565b6000602082019050818103600083015261385b816134c5565b9050919050565b6000602082019050818103600083015261387b816134e8565b9050919050565b6000602082019050818103600083015261389b8161350b565b9050919050565b600060208201905081810360008301526138bb8161352e565b9050919050565b600060208201905081810360008301526138db81613551565b9050919050565b600060208201905081810360008301526138fb81613574565b9050919050565b6000602082019050818103600083015261391b81613597565b9050919050565b6000602082019050818103600083015261393b816135ba565b9050919050565b6000602082019050818103600083015261395b816135dd565b9050919050565b6000602082019050818103600083015261397b81613600565b9050919050565b6000602082019050818103600083015261399b81613646565b9050919050565b600060208201905081810360008301526139bb81613669565b9050919050565b600060208201905081810360008301526139db8161368c565b9050919050565b60006020820190506139f760008301846136af565b92915050565b6000613a07613a18565b9050613a138282613d00565b919050565b6000604051905090565b600067ffffffffffffffff821115613a3d57613a3c613e5c565b5b613a4682613e8b565b9050602081019050919050565b600067ffffffffffffffff821115613a6e57613a6d613e5c565b5b613a7782613e8b565b9050602081019050919050565b60008190508160005260206000209050919050565b600081519050919050565b600081519050919050565b600082825260208201905092915050565b600081905092915050565b600082825260208201905092915050565b600081905092915050565b6000613af282613c82565b9150613afd83613c82565b9250827fffffffffffffffffffffffffffffffffffffffffffffffffffffffffffffffff03821115613b3257613b31613dcf565b5b828201905092915050565b6000613b4882613c82565b9150613b5383613c82565b925082613b6357613b62613dfe565b5b828204905092915050565b6000613b7982613c82565b9150613b8483613c82565b9250817fffffffffffffffffffffffffffffffffffffffffffffffffffffffffffffffff0483118215151615613bbd57613bbc613dcf565b5b828202905092915050565b6000613bd382613c82565b9150613bde83613c82565b925082821015613bf157613bf0613dcf565b5b828203905092915050565b6000613c0782613c62565b9050919050565b6000613c1982613c62565b9050919050565b60008115159050919050565b6000819050919050565b60007fffffffff0000000000000000000000000000000000000000000000000000000082169050919050565b600073ffffffffffffffffffffffffffffffffffffffff82169050919050565b6000819050919050565b82818337600083830152505050565b60005b83811015613cb9578082015181840152602081019050613c9e565b83811115613cc8576000848401525b50505050565b60006002820490506001821680613ce657607f821691505b60208210811415613cfa57613cf9613e2d565b5b50919050565b613d0982613e8b565b810181811067ffffffffffffffff82111715613d2857613d27613e5c565b5b80604052505050565b6000613d3c82613c82565b91507fffffffffffffffffffffffffffffffffffffffffffffffffffffffffffffffff821415613d6f57613d6e613dcf565b5b600182019050919050565b6000613d8582613d8c565b9050919050565b6000613d9782613e9c565b9050919050565b6000613da982613c82565b9150613db483613c82565b925082613dc457613dc3613dfe565b5b828206905092915050565b7f4e487b7100000000000000000000000000000000000000000000000000000000600052601160045260246000fd5b7f4e487b7100000000000000000000000000000000000000000000000000000000600052601260045260246000fd5b7f4e487b7100000000000000000000000000000000000000000000000000000000600052602260045260246000fd5b7f4e487b7100000000000000000000000000000000000000000000000000000000600052604160045260246000fd5b6000601f19601f8301169050919050565b60008160601b9050919050565b7f52656c6561736520616d6f756e742073686f756c64206265206772656174657260008201527f207468616e207a65726f00000000000000000000000000000000000000000000602082015250565b7f496e76616c69642070726f6f6621000000000000000000000000000000000000600082015250565b7f4f776e61626c653a206e6577206f776e657220697320746865207a65726f206160008201527f6464726573730000000000000000000000000000000000000000000000000000602082015250565b7f5468652077686974656c6973742073616c65206973206e6f742061637469766560008201527f2100000000000000000000000000000000000000000000000000000000000000602082015250565b7f496e76616c6964206d696e7420616d6f756e7421000000000000000000000000600082015250565b7f496e76616c69642057616c6c6574204164647265737300000000000000000000600082015250565b7f4d61782057686974656c69737420537570706c79206578636565646564210000600082015250565b7f4f776e61626c653a2063616c6c6572206973206e6f7420746865206f776e6572600082015250565b7f54686520636f6e74726163742069732070617573656421000000000000000000600082015250565b7f4e6f742056616c6964204164647265737320746f205769746864726177000000600082015250565b7f4552433732314d657461646174613a2055524920717565727920666f72206e6f60008201527f6e6578697374656e7420746f6b656e0000000000000000000000000000000000602082015250565b50565b7f4d617820737570706c7920657863656564656421000000000000000000000000600082015250565b7f5265656e7472616e637947756172643a207265656e7472616e742063616c6c00600082015250565b7f496e73756666696369656e742066756e64732100000000000000000000000000600082015250565b61418b81613bfc565b811461419657600080fd5b50565b6141a281613c20565b81146141ad57600080fd5b50565b6141b981613c2c565b81146141c457600080fd5b50565b6141d081613c36565b81146141db57600080fd5b50565b6141e781613c82565b81146141f257600080fd5b5056fea26469706673582212205e6ba11063a2a9923833a44d2f4792bfa204da531a13e9d4e8e51490aefc57c664736f6c63430008040033",
  "immutableReferences": {},
  "source": "// SPDX-License-Identifier: MIT\r\npragma solidity ^0.8.4;\r\n\r\nimport \"erc721a/contracts/ERC721A.sol\";\r\nimport '@openzeppelin/contracts/access/Ownable.sol';\r\nimport '@openzeppelin/contracts/utils/cryptography/MerkleProof.sol';\r\nimport '@openzeppelin/contracts/security/ReentrancyGuard.sol';\r\nimport \"@openzeppelin/contracts/utils/Strings.sol\";\r\n\r\ncontract StoneSquad is ERC721A, Ownable, ReentrancyGuard {\r\n    \r\n    using Strings for uint256;\r\n    bytes32 public merkleRoot;\r\n    \r\n    //Constructor\r\n    uint256 public cost;\r\n    uint256 public maxSupply;\r\n    uint256 public wlMaxSupply;\r\n    uint256 public maxMintAmountPerTx;\r\n    \r\n    //Whitelist\r\n    bool public paused = true;\r\n    bool public whitelistMintEnabled = false;\r\n    \r\n\r\n    //URI Path\r\n    string public uriPrefix = '';\r\n    string public uriSuffix = '.json';\r\n    //Paymet Splitter - DeFi \r\n    address payable public payments;\r\n    address[] public payees;    \r\n\r\n    //Balance\r\n    uint256 totalBalance;\r\n\r\n\r\n    event WhitelistMinted(address minter,uint256 amount);\r\n    event minted(address minter,uint256 amount);\r\n    event amountReleased();\r\n\r\n    constructor(\r\n    string memory _tokenName,\r\n    string memory _tokenSymbol,\r\n    uint256 _maxSupply,\r\n    uint256 _wlMaxSupply,\r\n    uint256 _maxMintAmountPerTx,\r\n    address _payments,\r\n    address[] memory _payees\r\n  ) ERC721A(_tokenName, _tokenSymbol) {\r\n    maxSupply = _maxSupply;    \r\n    wlMaxSupply = _wlMaxSupply;\r\n    setMaxMintAmountPerTx(_maxMintAmountPerTx);\r\n    payees = _payees;\r\n    payments = payable(_payments);    \r\n    cost = 0.06 ether;   \r\n  }\r\n  modifier checkPaymentAddress(address withdrawAddress){\r\n    bool status=false;\r\n    for(uint i=0;i<payees.length;i++){\r\n      if(payees[i]==withdrawAddress){\r\n        status = true;\r\n      }\r\n    }\r\n    require(status,\"Not Valid Address to Withdraw\");\r\n    _;\r\n  }\r\n  modifier mintCompliance(uint256 _mintQuantity) {\r\n    require(_mintQuantity > 0 && _mintQuantity <= maxMintAmountPerTx, 'Invalid mint amount!');\r\n    require(totalSupply() + _mintQuantity < maxSupply, 'Max supply exceeded!');\r\n    _;\r\n  }\r\n   modifier whitelistMintCompliance(uint256 _mintQuantity) {\r\n    require(_mintQuantity > 0 && _mintQuantity <= maxMintAmountPerTx, 'Invalid mint amount!');\r\n    require(totalSupply() + _mintQuantity < wlMaxSupply, 'Max Whitelist Supply exceeded!');\r\n    _;\r\n  }\r\n   modifier mintPriceCompliance(uint256 _mintAmount) {\r\n    require(msg.value >= cost * _mintAmount, 'Insufficient funds!');\r\n    _;\r\n  }\r\n  \r\n  modifier checkWalletAddress(){\r\n    require(tx.origin == msg.sender,\"Invalid Wallet Address\");\r\n    _;\r\n  }\r\n  function getMinted() public view returns (uint256){\r\n    return totalSupply();\r\n  }\r\n  function setCost(uint256 _cost) public onlyOwner {\r\n    cost = _cost;\r\n  }\r\n  function setPublicCost() public onlyOwner {\r\n    cost = 0.069 ether;\r\n  }\r\n  function setWlCost() public onlyOwner {\r\n    cost = 0.06 ether;\r\n  }\r\n  function setMaxMintAmountPerTx(uint256 _maxMintAmountPerTx) public onlyOwner {\r\n    maxMintAmountPerTx = _maxMintAmountPerTx;\r\n  }\r\n  function whitelistVerify(bytes32[] calldata _merkleProof) checkWalletAddress() public view returns(bool){\r\n    bytes32 leaf = keccak256(abi.encodePacked(_msgSender()));\r\n    return MerkleProof.verify(_merkleProof, merkleRoot, leaf);    \r\n  }\r\n  function whitelistMint(uint256 _mintAmount, bytes32[] calldata _merkleProof) public payable whitelistMintCompliance(_mintAmount) mintPriceCompliance(_mintAmount) checkWalletAddress() {\r\n    // Verify whitelist requirements\r\n    require(whitelistMintEnabled, 'The whitelist sale is not active!');    \r\n    bytes32 leaf = keccak256(abi.encodePacked(_msgSender()));\r\n    require(MerkleProof.verify(_merkleProof, merkleRoot, leaf), 'Invalid proof!');    \r\n    totalBalance += msg.value;\r\n    _safeMint(_msgSender(), _mintAmount);\r\n    emit WhitelistMinted(_msgSender(), _mintAmount);\r\n    \r\n  }\r\n  function mint(uint256 _mintAmount) public payable mintCompliance(_mintAmount) mintPriceCompliance(_mintAmount) checkWalletAddress(){\r\n    require(!paused, 'The contract is paused!');\r\n    totalBalance += msg.value;\r\n    _safeMint(_msgSender(), _mintAmount);\r\n    emit minted(_msgSender(), _mintAmount);\r\n  }\r\n  function mintForAddress(uint256 _mintAmount, address _receiver) public mintCompliance(_mintAmount) onlyOwner {\r\n    _safeMint(_receiver, _mintAmount);\r\n  }\r\n  function transferOwner(address newOwner) public onlyOwner{\r\n    transferOwnership(newOwner);\r\n  }\r\n  //  function _startTokenId() internal view virtual override returns (uint256) {\r\n  //   return 1;\r\n  // }\r\n\r\n  function tokenURI(uint256 _tokenId) public view virtual override returns (string memory) {\r\n    require(_exists(_tokenId), 'ERC721Metadata: URI query for nonexistent token');\r\n\r\n    string memory currentBaseURI = _baseURI();\r\n    return bytes(currentBaseURI).length > 0\r\n        ? string(abi.encodePacked(currentBaseURI, _tokenId.toString(), uriSuffix))\r\n        : '';\r\n  }\r\n  function _baseURI() internal view virtual override returns (string memory) {\r\n    return uriPrefix;\r\n  }\r\n  function setUriPrefix(string memory _uriPrefix) public onlyOwner {\r\n    uriPrefix = _uriPrefix;\r\n  }\r\n  function setUriSuffix(string memory _uriSuffix) public onlyOwner {\r\n    uriSuffix = _uriSuffix;\r\n  }  \r\n  function setPaused(bool _state) public onlyOwner {\r\n    paused = _state;\r\n  }\r\n  function setMerkleRoot(bytes32 _merkleRoot) public onlyOwner {\r\n    merkleRoot = _merkleRoot;\r\n  }\r\n  function setWhitelistMintEnabled(bool _state) public onlyOwner {\r\n    whitelistMintEnabled = _state;\r\n  }\r\n  function setMaxSupply(uint256 _maxSupply)public onlyOwner{\r\n    maxSupply = _maxSupply;\r\n  }\r\n  function setWLMaxSupply(uint256 _wlMaxSupply)public onlyOwner{\r\n    wlMaxSupply = _wlMaxSupply;\r\n  }\r\n  function getMaxSupply() public view returns(uint256){\r\n    return maxSupply;\r\n  }\r\n  function getWLMaxSupply() public view returns(uint256){\r\n    return wlMaxSupply;\r\n  }\r\n  function currentBalance() public view returns(uint256){\r\n    return address(this).balance;\r\n  }\r\n  function getTotalBalance() public view returns(uint256)\r\n  {\r\n    return totalBalance;\r\n  }\r\n  \r\n  function withdraw() public checkPaymentAddress(msg.sender) nonReentrant {\r\n    require(address(this).balance>0,\"Release amount should be greater than zero\");\r\n    (bool success, ) = payable(payments).call{value: address(this).balance}(\"\");     \r\n    require(success);    \r\n    emit amountReleased();\r\n  }\r\n}",
  "sourcePath": "D:\\nftproducts\\stonesquadmintproject\\stonesquadadmin\\contracts\\StoneSquad.sol",
  "compiler": {
    "name": "solc",
    "version": "0.8.4+commit.c7e474f2.Emscripten.clang"
  },
  "schemaVersion": "3.4.9",
  "updatedAt": "2022-08-17T13:25:45.274Z",
  "networkType": "ethereum",
  "devdoc": {
    "kind": "dev",
    "methods": {
      "approve(address,uint256)": {
        "details": "Gives permission to `to` to transfer `tokenId` token to another account. The approval is cleared when the token is transferred. Only a single account can be approved at a time, so approving the zero address clears previous approvals. Requirements: - The caller must own the token or be an approved operator. - `tokenId` must exist. Emits an {Approval} event."
      },
      "balanceOf(address)": {
        "details": "Returns the number of tokens in `owner`'s account."
      },
      "getApproved(uint256)": {
        "details": "Returns the account approved for `tokenId` token. Requirements: - `tokenId` must exist."
      },
      "isApprovedForAll(address,address)": {
        "details": "Returns if the `operator` is allowed to manage all of the assets of `owner`. See {setApprovalForAll}."
      },
      "name()": {
        "details": "Returns the token collection name."
      },
      "owner()": {
        "details": "Returns the address of the current owner."
      },
      "ownerOf(uint256)": {
        "details": "Returns the owner of the `tokenId` token. Requirements: - `tokenId` must exist."
      },
      "renounceOwnership()": {
        "details": "Leaves the contract without owner. It will not be possible to call `onlyOwner` functions anymore. Can only be called by the current owner. NOTE: Renouncing ownership will leave the contract without an owner, thereby removing any functionality that is only available to the owner."
      },
      "safeTransferFrom(address,address,uint256)": {
        "details": "Equivalent to `safeTransferFrom(from, to, tokenId, '')`."
      },
      "safeTransferFrom(address,address,uint256,bytes)": {
        "details": "Safely transfers `tokenId` token from `from` to `to`. Requirements: - `from` cannot be the zero address. - `to` cannot be the zero address. - `tokenId` token must exist and be owned by `from`. - If the caller is not `from`, it must be approved to move this token by either {approve} or {setApprovalForAll}. - If `to` refers to a smart contract, it must implement {IERC721Receiver-onERC721Received}, which is called upon a safe transfer. Emits a {Transfer} event."
      },
      "setApprovalForAll(address,bool)": {
        "details": "Approve or remove `operator` as an operator for the caller. Operators can call {transferFrom} or {safeTransferFrom} for any token owned by the caller. Requirements: - The `operator` cannot be the caller. Emits an {ApprovalForAll} event."
      },
      "supportsInterface(bytes4)": {
        "details": "Returns true if this contract implements the interface defined by `interfaceId`. See the corresponding [EIP section](https://eips.ethereum.org/EIPS/eip-165#how-interfaces-are-identified) to learn more about how these ids are created. This function call must use less than 30000 gas."
      },
      "symbol()": {
        "details": "Returns the token collection symbol."
      },
      "totalSupply()": {
        "details": "Returns the total number of tokens in existence. Burned tokens will reduce the count. To get the total number of tokens minted, please see {_totalMinted}."
      },
      "transferFrom(address,address,uint256)": {
        "details": "Transfers `tokenId` from `from` to `to`. Requirements: - `from` cannot be the zero address. - `to` cannot be the zero address. - `tokenId` token must be owned by `from`. - If the caller is not `from`, it must be approved to move this token by either {approve} or {setApprovalForAll}. Emits a {Transfer} event."
      },
      "transferOwnership(address)": {
        "details": "Transfers ownership of the contract to a new account (`newOwner`). Can only be called by the current owner."
      }
    },
    "version": 1
  },
  "userdoc": {
    "errors": {
      "ApprovalCallerNotOwnerNorApproved()": [
        {
          "notice": "The caller must own the token or be an approved operator."
        }
      ],
      "ApprovalQueryForNonexistentToken()": [
        {
          "notice": "The token does not exist."
        }
      ],
      "ApproveToCaller()": [
        {
          "notice": "The caller cannot approve to their own address."
        }
      ],
      "BalanceQueryForZeroAddress()": [
        {
          "notice": "Cannot query the balance for the zero address."
        }
      ],
      "MintERC2309QuantityExceedsLimit()": [
        {
          "notice": "The `quantity` minted with ERC2309 exceeds the safety limit."
        }
      ],
      "MintToZeroAddress()": [
        {
          "notice": "Cannot mint to the zero address."
        }
      ],
      "MintZeroQuantity()": [
        {
          "notice": "The quantity of tokens minted must be more than zero."
        }
      ],
      "OwnerQueryForNonexistentToken()": [
        {
          "notice": "The token does not exist."
        }
      ],
      "OwnershipNotInitializedForExtraData()": [
        {
          "notice": "The `extraData` cannot be set on an unintialized ownership slot."
        }
      ],
      "TransferCallerNotOwnerNorApproved()": [
        {
          "notice": "The caller must own the token or be an approved operator."
        }
      ],
      "TransferFromIncorrectOwner()": [
        {
          "notice": "The token must be owned by `from`."
        }
      ],
      "TransferToNonERC721ReceiverImplementer()": [
        {
          "notice": "Cannot safely transfer to a contract that does not implement the ERC721Receiver interface."
        }
      ],
      "TransferToZeroAddress()": [
        {
          "notice": "Cannot transfer to the zero address."
        }
      ],
      "URIQueryForNonexistentToken()": [
        {
          "notice": "The token does not exist."
        }
      ]
    },
    "kind": "user",
    "methods": {},
    "version": 1
  }
}