{
  "contractName": "StoneSquad",
  "abi": [
    {
      "inputs": [
        {
          "internalType": "string",
          "name": "_tokenName",
          "type": "string"
        },
        {
          "internalType": "string",
          "name": "_tokenSymbol",
          "type": "string"
        },
        {
          "internalType": "uint256",
          "name": "_maxSupply",
          "type": "uint256"
        },
        {
          "internalType": "uint256",
          "name": "_wlMaxSupply",
          "type": "uint256"
        },
        {
          "internalType": "uint256",
          "name": "_maxMintAmountPerTx",
          "type": "uint256"
        },
        {
          "internalType": "address",
          "name": "_payments",
          "type": "address"
        },
        {
          "internalType": "address[]",
          "name": "_payees",
          "type": "address[]"
        }
      ],
      "stateMutability": "nonpayable",
      "type": "constructor"
    },
    {
      "inputs": [],
      "name": "ApprovalCallerNotOwnerNorApproved",
      "type": "error"
    },
    {
      "inputs": [],
      "name": "ApprovalQueryForNonexistentToken",
      "type": "error"
    },
    {
      "inputs": [],
      "name": "ApproveToCaller",
      "type": "error"
    },
    {
      "inputs": [],
      "name": "BalanceQueryForZeroAddress",
      "type": "error"
    },
    {
      "inputs": [],
      "name": "MintERC2309QuantityExceedsLimit",
      "type": "error"
    },
    {
      "inputs": [],
      "name": "MintToZeroAddress",
      "type": "error"
    },
    {
      "inputs": [],
      "name": "MintZeroQuantity",
      "type": "error"
    },
    {
      "inputs": [],
      "name": "OwnerQueryForNonexistentToken",
      "type": "error"
    },
    {
      "inputs": [],
      "name": "OwnershipNotInitializedForExtraData",
      "type": "error"
    },
    {
      "inputs": [],
      "name": "TransferCallerNotOwnerNorApproved",
      "type": "error"
    },
    {
      "inputs": [],
      "name": "TransferFromIncorrectOwner",
      "type": "error"
    },
    {
      "inputs": [],
      "name": "TransferToNonERC721ReceiverImplementer",
      "type": "error"
    },
    {
      "inputs": [],
      "name": "TransferToZeroAddress",
      "type": "error"
    },
    {
      "inputs": [],
      "name": "URIQueryForNonexistentToken",
      "type": "error"
    },
    {
      "anonymous": false,
      "inputs": [
        {
          "indexed": true,
          "internalType": "address",
          "name": "owner",
          "type": "address"
        },
        {
          "indexed": true,
          "internalType": "address",
          "name": "approved",
          "type": "address"
        },
        {
          "indexed": true,
          "internalType": "uint256",
          "name": "tokenId",
          "type": "uint256"
        }
      ],
      "name": "Approval",
      "type": "event"
    },
    {
      "anonymous": false,
      "inputs": [
        {
          "indexed": true,
          "internalType": "address",
          "name": "owner",
          "type": "address"
        },
        {
          "indexed": true,
          "internalType": "address",
          "name": "operator",
          "type": "address"
        },
        {
          "indexed": false,
          "internalType": "bool",
          "name": "approved",
          "type": "bool"
        }
      ],
      "name": "ApprovalForAll",
      "type": "event"
    },
    {
      "anonymous": false,
      "inputs": [
        {
          "indexed": true,
          "internalType": "uint256",
          "name": "fromTokenId",
          "type": "uint256"
        },
        {
          "indexed": false,
          "internalType": "uint256",
          "name": "toTokenId",
          "type": "uint256"
        },
        {
          "indexed": true,
          "internalType": "address",
          "name": "from",
          "type": "address"
        },
        {
          "indexed": true,
          "internalType": "address",
          "name": "to",
          "type": "address"
        }
      ],
      "name": "ConsecutiveTransfer",
      "type": "event"
    },
    {
      "anonymous": false,
      "inputs": [
        {
          "indexed": true,
          "internalType": "address",
          "name": "previousOwner",
          "type": "address"
        },
        {
          "indexed": true,
          "internalType": "address",
          "name": "newOwner",
          "type": "address"
        }
      ],
      "name": "OwnershipTransferred",
      "type": "event"
    },
    {
      "anonymous": false,
      "inputs": [
        {
          "indexed": true,
          "internalType": "address",
          "name": "from",
          "type": "address"
        },
        {
          "indexed": true,
          "internalType": "address",
          "name": "to",
          "type": "address"
        },
        {
          "indexed": true,
          "internalType": "uint256",
          "name": "tokenId",
          "type": "uint256"
        }
      ],
      "name": "Transfer",
      "type": "event"
    },
    {
      "anonymous": false,
      "inputs": [
        {
          "indexed": false,
          "internalType": "address",
          "name": "minter",
          "type": "address"
        },
        {
          "indexed": false,
          "internalType": "uint256",
          "name": "amount",
          "type": "uint256"
        }
      ],
      "name": "WhitelistMinted",
      "type": "event"
    },
    {
      "anonymous": false,
      "inputs": [],
      "name": "amountReleased",
      "type": "event"
    },
    {
      "anonymous": false,
      "inputs": [
        {
          "indexed": false,
          "internalType": "address",
          "name": "minter",
          "type": "address"
        },
        {
          "indexed": false,
          "internalType": "uint256",
          "name": "amount",
          "type": "uint256"
        }
      ],
      "name": "minted",
      "type": "event"
    },
    {
      "inputs": [
        {
          "internalType": "address",
          "name": "to",
          "type": "address"
        },
        {
          "internalType": "uint256",
          "name": "tokenId",
          "type": "uint256"
        }
      ],
      "name": "approve",
      "outputs": [],
      "stateMutability": "nonpayable",
      "type": "function"
    },
    {
      "inputs": [
        {
          "internalType": "address",
          "name": "owner",
          "type": "address"
        }
      ],
      "name": "balanceOf",
      "outputs": [
        {
          "internalType": "uint256",
          "name": "",
          "type": "uint256"
        }
      ],
      "stateMutability": "view",
      "type": "function",
      "constant": true
    },
    {
      "inputs": [],
      "name": "cost",
      "outputs": [
        {
          "internalType": "uint256",
          "name": "",
          "type": "uint256"
        }
      ],
      "stateMutability": "view",
      "type": "function",
      "constant": true
    },
    {
      "inputs": [],
      "name": "deployer",
      "outputs": [
        {
          "internalType": "address",
          "name": "",
          "type": "address"
        }
      ],
      "stateMutability": "view",
      "type": "function",
      "constant": true
    },
    {
      "inputs": [
        {
          "internalType": "uint256",
          "name": "tokenId",
          "type": "uint256"
        }
      ],
      "name": "getApproved",
      "outputs": [
        {
          "internalType": "address",
          "name": "",
          "type": "address"
        }
      ],
      "stateMutability": "view",
      "type": "function",
      "constant": true
    },
    {
      "inputs": [
        {
          "internalType": "address",
          "name": "owner",
          "type": "address"
        },
        {
          "internalType": "address",
          "name": "operator",
          "type": "address"
        }
      ],
      "name": "isApprovedForAll",
      "outputs": [
        {
          "internalType": "bool",
          "name": "",
          "type": "bool"
        }
      ],
      "stateMutability": "view",
      "type": "function",
      "constant": true
    },
    {
      "inputs": [],
      "name": "maxMintAmountPerTx",
      "outputs": [
        {
          "internalType": "uint256",
          "name": "",
          "type": "uint256"
        }
      ],
      "stateMutability": "view",
      "type": "function",
      "constant": true
    },
    {
      "inputs": [],
      "name": "maxSupply",
      "outputs": [
        {
          "internalType": "uint256",
          "name": "",
          "type": "uint256"
        }
      ],
      "stateMutability": "view",
      "type": "function",
      "constant": true
    },
    {
      "inputs": [],
      "name": "merkleRoot",
      "outputs": [
        {
          "internalType": "bytes32",
          "name": "",
          "type": "bytes32"
        }
      ],
      "stateMutability": "view",
      "type": "function",
      "constant": true
    },
    {
      "inputs": [],
      "name": "name",
      "outputs": [
        {
          "internalType": "string",
          "name": "",
          "type": "string"
        }
      ],
      "stateMutability": "view",
      "type": "function",
      "constant": true
    },
    {
      "inputs": [],
      "name": "owner",
      "outputs": [
        {
          "internalType": "address",
          "name": "",
          "type": "address"
        }
      ],
      "stateMutability": "view",
      "type": "function",
      "constant": true
    },
    {
      "inputs": [
        {
          "internalType": "uint256",
          "name": "tokenId",
          "type": "uint256"
        }
      ],
      "name": "ownerOf",
      "outputs": [
        {
          "internalType": "address",
          "name": "",
          "type": "address"
        }
      ],
      "stateMutability": "view",
      "type": "function",
      "constant": true
    },
    {
      "inputs": [],
      "name": "paused",
      "outputs": [
        {
          "internalType": "bool",
          "name": "",
          "type": "bool"
        }
      ],
      "stateMutability": "view",
      "type": "function",
      "constant": true
    },
    {
      "inputs": [
        {
          "internalType": "uint256",
          "name": "",
          "type": "uint256"
        }
      ],
      "name": "payees",
      "outputs": [
        {
          "internalType": "address",
          "name": "",
          "type": "address"
        }
      ],
      "stateMutability": "view",
      "type": "function",
      "constant": true
    },
    {
      "inputs": [],
      "name": "payments",
      "outputs": [
        {
          "internalType": "address payable",
          "name": "",
          "type": "address"
        }
      ],
      "stateMutability": "view",
      "type": "function",
      "constant": true
    },
    {
      "inputs": [],
      "name": "renounceOwnership",
      "outputs": [],
      "stateMutability": "nonpayable",
      "type": "function"
    },
    {
      "inputs": [],
      "name": "revealed",
      "outputs": [
        {
          "internalType": "bool",
          "name": "",
          "type": "bool"
        }
      ],
      "stateMutability": "view",
      "type": "function",
      "constant": true
    },
    {
      "inputs": [
        {
          "internalType": "address",
          "name": "from",
          "type": "address"
        },
        {
          "internalType": "address",
          "name": "to",
          "type": "address"
        },
        {
          "internalType": "uint256",
          "name": "tokenId",
          "type": "uint256"
        }
      ],
      "name": "safeTransferFrom",
      "outputs": [],
      "stateMutability": "nonpayable",
      "type": "function"
    },
    {
      "inputs": [
        {
          "internalType": "address",
          "name": "from",
          "type": "address"
        },
        {
          "internalType": "address",
          "name": "to",
          "type": "address"
        },
        {
          "internalType": "uint256",
          "name": "tokenId",
          "type": "uint256"
        },
        {
          "internalType": "bytes",
          "name": "_data",
          "type": "bytes"
        }
      ],
      "name": "safeTransferFrom",
      "outputs": [],
      "stateMutability": "nonpayable",
      "type": "function"
    },
    {
      "inputs": [
        {
          "internalType": "address",
          "name": "operator",
          "type": "address"
        },
        {
          "internalType": "bool",
          "name": "approved",
          "type": "bool"
        }
      ],
      "name": "setApprovalForAll",
      "outputs": [],
      "stateMutability": "nonpayable",
      "type": "function"
    },
    {
      "inputs": [
        {
          "internalType": "bytes4",
          "name": "interfaceId",
          "type": "bytes4"
        }
      ],
      "name": "supportsInterface",
      "outputs": [
        {
          "internalType": "bool",
          "name": "",
          "type": "bool"
        }
      ],
      "stateMutability": "view",
      "type": "function",
      "constant": true
    },
    {
      "inputs": [],
      "name": "symbol",
      "outputs": [
        {
          "internalType": "string",
          "name": "",
          "type": "string"
        }
      ],
      "stateMutability": "view",
      "type": "function",
      "constant": true
    },
    {
      "inputs": [],
      "name": "totalSupply",
      "outputs": [
        {
          "internalType": "uint256",
          "name": "",
          "type": "uint256"
        }
      ],
      "stateMutability": "view",
      "type": "function",
      "constant": true
    },
    {
      "inputs": [
        {
          "internalType": "address",
          "name": "from",
          "type": "address"
        },
        {
          "internalType": "address",
          "name": "to",
          "type": "address"
        },
        {
          "internalType": "uint256",
          "name": "tokenId",
          "type": "uint256"
        }
      ],
      "name": "transferFrom",
      "outputs": [],
      "stateMutability": "nonpayable",
      "type": "function"
    },
    {
      "inputs": [
        {
          "internalType": "address",
          "name": "newOwner",
          "type": "address"
        }
      ],
      "name": "transferOwnership",
      "outputs": [],
      "stateMutability": "nonpayable",
      "type": "function"
    },
    {
      "inputs": [],
      "name": "uriPrefix",
      "outputs": [
        {
          "internalType": "string",
          "name": "",
          "type": "string"
        }
      ],
      "stateMutability": "view",
      "type": "function",
      "constant": true
    },
    {
      "inputs": [],
      "name": "uriSuffix",
      "outputs": [
        {
          "internalType": "string",
          "name": "",
          "type": "string"
        }
      ],
      "stateMutability": "view",
      "type": "function",
      "constant": true
    },
    {
      "inputs": [
        {
          "internalType": "address",
          "name": "",
          "type": "address"
        }
      ],
      "name": "whitelistClaimed",
      "outputs": [
        {
          "internalType": "bool",
          "name": "",
          "type": "bool"
        }
      ],
      "stateMutability": "view",
      "type": "function",
      "constant": true
    },
    {
      "inputs": [],
      "name": "whitelistMintEnabled",
      "outputs": [
        {
          "internalType": "bool",
          "name": "",
          "type": "bool"
        }
      ],
      "stateMutability": "view",
      "type": "function",
      "constant": true
    },
    {
      "inputs": [],
      "name": "wlMaxSupply",
      "outputs": [
        {
          "internalType": "uint256",
          "name": "",
          "type": "uint256"
        }
      ],
      "stateMutability": "view",
      "type": "function",
      "constant": true
    },
    {
      "inputs": [],
      "name": "getMinted",
      "outputs": [
        {
          "internalType": "uint256",
          "name": "",
          "type": "uint256"
        }
      ],
      "stateMutability": "view",
      "type": "function",
      "constant": true
    },
    {
      "inputs": [
        {
          "internalType": "uint256",
          "name": "_cost",
          "type": "uint256"
        }
      ],
      "name": "setCost",
      "outputs": [],
      "stateMutability": "nonpayable",
      "type": "function"
    },
    {
      "inputs": [],
      "name": "setPublicCost",
      "outputs": [],
      "stateMutability": "nonpayable",
      "type": "function"
    },
    {
      "inputs": [],
      "name": "setWlCost",
      "outputs": [],
      "stateMutability": "nonpayable",
      "type": "function"
    },
    {
      "inputs": [
        {
          "internalType": "uint256",
          "name": "_maxMintAmountPerTx",
          "type": "uint256"
        }
      ],
      "name": "setMaxMintAmountPerTx",
      "outputs": [],
      "stateMutability": "nonpayable",
      "type": "function"
    },
    {
      "inputs": [
        {
          "internalType": "uint256",
          "name": "_mintAmount",
          "type": "uint256"
        },
        {
          "internalType": "bytes32[]",
          "name": "_merkleProof",
          "type": "bytes32[]"
        }
      ],
      "name": "whitelistMint",
      "outputs": [],
      "stateMutability": "payable",
      "type": "function",
      "payable": true
    },
    {
      "inputs": [
        {
          "internalType": "uint256",
          "name": "_mintAmount",
          "type": "uint256"
        }
      ],
      "name": "mint",
      "outputs": [],
      "stateMutability": "payable",
      "type": "function",
      "payable": true
    },
    {
      "inputs": [
        {
          "internalType": "uint256",
          "name": "_tokenId",
          "type": "uint256"
        }
      ],
      "name": "tokenURI",
      "outputs": [
        {
          "internalType": "string",
          "name": "",
          "type": "string"
        }
      ],
      "stateMutability": "view",
      "type": "function",
      "constant": true
    },
    {
      "inputs": [
        {
          "internalType": "string",
          "name": "_uriPrefix",
          "type": "string"
        }
      ],
      "name": "setUriPrefix",
      "outputs": [],
      "stateMutability": "nonpayable",
      "type": "function"
    },
    {
      "inputs": [
        {
          "internalType": "string",
          "name": "_uriSuffix",
          "type": "string"
        }
      ],
      "name": "setUriSuffix",
      "outputs": [],
      "stateMutability": "nonpayable",
      "type": "function"
    },
    {
      "inputs": [
        {
          "internalType": "bool",
          "name": "_state",
          "type": "bool"
        }
      ],
      "name": "setPaused",
      "outputs": [],
      "stateMutability": "nonpayable",
      "type": "function"
    },
    {
      "inputs": [
        {
          "internalType": "bytes32",
          "name": "_merkleRoot",
          "type": "bytes32"
        }
      ],
      "name": "setMerkleRoot",
      "outputs": [],
      "stateMutability": "nonpayable",
      "type": "function"
    },
    {
      "inputs": [
        {
          "internalType": "bool",
          "name": "_state",
          "type": "bool"
        }
      ],
      "name": "setWhitelistMintEnabled",
      "outputs": [],
      "stateMutability": "nonpayable",
      "type": "function"
    },
    {
      "inputs": [],
      "name": "currentBalance",
      "outputs": [
        {
          "internalType": "uint256",
          "name": "",
          "type": "uint256"
        }
      ],
      "stateMutability": "view",
      "type": "function",
      "constant": true
    },
    {
      "inputs": [],
      "name": "getTotalBalance",
      "outputs": [
        {
          "internalType": "uint256",
          "name": "",
          "type": "uint256"
        }
      ],
      "stateMutability": "view",
      "type": "function",
      "constant": true
    },
    {
      "inputs": [],
      "name": "withdraw",
      "outputs": [],
      "stateMutability": "nonpayable",
      "type": "function"
    }
  ],
  "bytecode": "0x60806040526001600f60006101000a81548160ff0219169083151502179055506000600f60016101000a81548160ff0219169083151502179055506000600f60026101000a81548160ff02191690831515021790555060405180602001604052806000815250601190805190602001906200007c929190620003ff565b506040518060400160405280600581526020017f2e6a736f6e00000000000000000000000000000000000000000000000000000081525060129080519060200190620000ca929190620003ff565b50348015620000d857600080fd5b5060405162004d2f38038062004d2f8339818101604052810190620000fe919062000680565b8686816002908051906020019062000118929190620003ff565b50806003908051906020019062000131929190620003ff565b50620001426200025760201b60201c565b60008190555050506200016a6200015e6200025c60201b60201c565b6200026460201b60201c565b600160098190555084600c8190555083600d8190555080601490805190602001906200019892919062000490565b5081601360006101000a81548173ffffffffffffffffffffffffffffffffffffffff021916908373ffffffffffffffffffffffffffffffffffffffff160217905550620001eb836200032a60201b60201c565b67016345785d8a0000600b819055506200020a6200025c60201b60201c565b601560006101000a81548173ffffffffffffffffffffffffffffffffffffffff021916908373ffffffffffffffffffffffffffffffffffffffff1602179055505050505050505062000a0c565b600090565b600033905090565b6000600860009054906101000a900473ffffffffffffffffffffffffffffffffffffffff16905081600860006101000a81548173ffffffffffffffffffffffffffffffffffffffff021916908373ffffffffffffffffffffffffffffffffffffffff1602179055508173ffffffffffffffffffffffffffffffffffffffff168173ffffffffffffffffffffffffffffffffffffffff167f8be0079c531659141344cd1fd0a4f28419497f9722a3daafe3b4186f6b6457e060405160405180910390a35050565b6200033a6200034460201b60201c565b80600e8190555050565b620003546200025c60201b60201c565b73ffffffffffffffffffffffffffffffffffffffff166200037a620003d560201b60201c565b73ffffffffffffffffffffffffffffffffffffffff1614620003d3576040517f08c379a0000000000000000000000000000000000000000000000000000000008152600401620003ca906200079f565b60405180910390fd5b565b6000600860009054906101000a900473ffffffffffffffffffffffffffffffffffffffff16905090565b8280546200040d90620008d4565b90600052602060002090601f0160209004810192826200043157600085556200047d565b82601f106200044c57805160ff19168380011785556200047d565b828001600101855582156200047d579182015b828111156200047c5782518255916020019190600101906200045f565b5b5090506200048c91906200051f565b5090565b8280548282559060005260206000209081019282156200050c579160200282015b828111156200050b5782518260006101000a81548173ffffffffffffffffffffffffffffffffffffffff021916908373ffffffffffffffffffffffffffffffffffffffff16021790555091602001919060010190620004b1565b5b5090506200051b91906200051f565b5090565b5b808211156200053a57600081600090555060010162000520565b5090565b6000620005556200054f84620007ea565b620007c1565b905080838252602082019050828560208602820111156200057557600080fd5b60005b85811015620005a957816200058e8882620005f8565b84526020840193506020830192505060018101905062000578565b5050509392505050565b6000620005ca620005c48462000819565b620007c1565b905082815260208101848484011115620005e357600080fd5b620005f08482856200089e565b509392505050565b6000815190506200060981620009d8565b92915050565b600082601f8301126200062157600080fd5b8151620006338482602086016200053e565b91505092915050565b600082601f8301126200064e57600080fd5b815162000660848260208601620005b3565b91505092915050565b6000815190506200067a81620009f2565b92915050565b600080600080600080600060e0888a0312156200069c57600080fd5b600088015167ffffffffffffffff811115620006b757600080fd5b620006c58a828b016200063c565b975050602088015167ffffffffffffffff811115620006e357600080fd5b620006f18a828b016200063c565b9650506040620007048a828b0162000669565b9550506060620007178a828b0162000669565b94505060806200072a8a828b0162000669565b93505060a06200073d8a828b01620005f8565b92505060c088015167ffffffffffffffff8111156200075b57600080fd5b620007698a828b016200060f565b91505092959891949750929550565b6000620007876020836200084f565b91506200079482620009af565b602082019050919050565b60006020820190508181036000830152620007ba8162000778565b9050919050565b6000620007cd620007e0565b9050620007db82826200090a565b919050565b6000604051905090565b600067ffffffffffffffff8211156200080857620008076200096f565b5b602082029050602081019050919050565b600067ffffffffffffffff8211156200083757620008366200096f565b5b62000842826200099e565b9050602081019050919050565b600082825260208201905092915050565b60006200086d8262000874565b9050919050565b600073ffffffffffffffffffffffffffffffffffffffff82169050919050565b6000819050919050565b60005b83811015620008be578082015181840152602081019050620008a1565b83811115620008ce576000848401525b50505050565b60006002820490506001821680620008ed57607f821691505b6020821081141562000904576200090362000940565b5b50919050565b62000915826200099e565b810181811067ffffffffffffffff821117156200093757620009366200096f565b5b80604052505050565b7f4e487b7100000000000000000000000000000000000000000000000000000000600052602260045260246000fd5b7f4e487b7100000000000000000000000000000000000000000000000000000000600052604160045260246000fd5b6000601f19601f8301169050919050565b7f4f776e61626c653a2063616c6c6572206973206e6f7420746865206f776e6572600082015250565b620009e38162000860565b8114620009ef57600080fd5b50565b620009fd8162000894565b811462000a0957600080fd5b50565b6143138062000a1c6000396000f3fe60806040526004361061027d5760003560e01c8063715018a61161014f578063ac72200d116100c1578063d2cab0561161007a578063d2cab0561461092f578063d5abeb011461094b578063d5f3948814610976578063db4bec44146109a1578063e985e9c5146109de578063f2fde38b14610a1b5761027d565b8063ac72200d14610821578063b071401b1461084c578063b767a09814610875578063b88d4fde1461089e578063c87b56dd146108c7578063ce845d1d146109045761027d565b80638da5cb5b116101135780638da5cb5b1461073057806394354fd01461075b57806395d89b4114610786578063a0712d68146107b1578063a22cb465146107cd578063a6d23e10146107f65761027d565b8063715018a61461069957806377c30767146106b057806379e27d78146106c75780637cb64759146106de5780637ec4a659146107075761027d565b80632eb4a7ab116101f35780635c975abb116101ac5780635c975abb1461056157806362b99ad41461058c57806363037b0c146105b75780636352211e146105f45780636caede3d1461063157806370a082311461065c5761027d565b80632eb4a7ab146104775780633ccfd60b146104a257806342842e0e146104b957806344a0d68a146104e2578063518302271461050b5780635503a0e8146105365761027d565b806313faede61161024557806313faede61461037b57806316ba10e0146103a657806316c38b3c146103cf57806318160ddd146103f857806323b872dd1461042357806323b87eed1461044c5761027d565b806301ffc9a71461028257806306fdde03146102bf578063081812fc146102ea578063095ea7b31461032757806312b5834914610350575b600080fd5b34801561028e57600080fd5b506102a960048036038101906102a49190613229565b610a44565b6040516102b69190613820565b60405180910390f35b3480156102cb57600080fd5b506102d4610ad6565b6040516102e19190613856565b60405180910390f35b3480156102f657600080fd5b50610311600480360381019061030c91906132bc565b610b68565b60405161031e9190613775565b60405180910390f35b34801561033357600080fd5b5061034e6004803603810190610349919061319b565b610be4565b005b34801561035c57600080fd5b50610365610d25565b6040516103729190613a78565b60405180910390f35b34801561038757600080fd5b50610390610d2f565b60405161039d9190613a78565b60405180910390f35b3480156103b257600080fd5b506103cd60048036038101906103c8919061327b565b610d35565b005b3480156103db57600080fd5b506103f660048036038101906103f191906131d7565b610d57565b005b34801561040457600080fd5b5061040d610deb565b60405161041a9190613a78565b60405180910390f35b34801561042f57600080fd5b5061044a60048036038101906104459190613095565b610e02565b005b34801561045857600080fd5b50610461611127565b60405161046e9190613a78565b60405180910390f35b34801561048357600080fd5b5061048c61112d565b604051610499919061383b565b60405180910390f35b3480156104ae57600080fd5b506104b7611133565b005b3480156104c557600080fd5b506104e060048036038101906104db9190613095565b611398565b005b3480156104ee57600080fd5b50610509600480360381019061050491906132bc565b6113b8565b005b34801561051757600080fd5b50610520611439565b60405161052d9190613820565b60405180910390f35b34801561054257600080fd5b5061054b61144c565b6040516105589190613856565b60405180910390f35b34801561056d57600080fd5b506105766114da565b6040516105839190613820565b60405180910390f35b34801561059857600080fd5b506105a16114ed565b6040516105ae9190613856565b60405180910390f35b3480156105c357600080fd5b506105de60048036038101906105d991906132bc565b61157b565b6040516105eb9190613775565b60405180910390f35b34801561060057600080fd5b5061061b600480360381019061061691906132bc565b6115ba565b6040516106289190613775565b60405180910390f35b34801561063d57600080fd5b506106466115cc565b6040516106539190613820565b60405180910390f35b34801561066857600080fd5b50610683600480360381019061067e9190613030565b6115df565b6040516106909190613a78565b60405180910390f35b3480156106a557600080fd5b506106ae611698565b005b3480156106bc57600080fd5b506106c56116ac565b005b3480156106d357600080fd5b506106dc611734565b005b3480156106ea57600080fd5b5061070560048036038101906107009190613200565b6117bc565b005b34801561071357600080fd5b5061072e6004803603810190610729919061327b565b6117ce565b005b34801561073c57600080fd5b5061074561185f565b6040516107529190613775565b60405180910390f35b34801561076757600080fd5b50610770611889565b60405161077d9190613a78565b60405180910390f35b34801561079257600080fd5b5061079b61188f565b6040516107a89190613856565b60405180910390f35b6107cb60048036038101906107c691906132bc565b611921565b005b3480156107d957600080fd5b506107f460048036038101906107ef919061315f565b611b47565b005b34801561080257600080fd5b5061080b611cbf565b6040516108189190613790565b60405180910390f35b34801561082d57600080fd5b50610836611ce5565b6040516108439190613a78565b60405180910390f35b34801561085857600080fd5b50610873600480360381019061086e91906132bc565b611cf4565b005b34801561088157600080fd5b5061089c600480360381019061089791906131d7565b611d06565b005b3480156108aa57600080fd5b506108c560048036038101906108c091906130e4565b611d2b565b005b3480156108d357600080fd5b506108ee60048036038101906108e991906132bc565b611d9e565b6040516108fb9190613856565b60405180910390f35b34801561091057600080fd5b50610919611e48565b6040516109269190613a78565b60405180910390f35b610949600480360381019061094491906132e5565b611e50565b005b34801561095757600080fd5b5061096061222a565b60405161096d9190613a78565b60405180910390f35b34801561098257600080fd5b5061098b612230565b6040516109989190613775565b60405180910390f35b3480156109ad57600080fd5b506109c860048036038101906109c39190613030565b612256565b6040516109d59190613820565b60405180910390f35b3480156109ea57600080fd5b50610a056004803603810190610a009190613059565b612276565b604051610a129190613820565b60405180910390f35b348015610a2757600080fd5b50610a426004803603810190610a3d9190613030565b61230a565b005b60006301ffc9a760e01b827bffffffffffffffffffffffffffffffffffffffffffffffffffffffff19161480610a9f57506380ac58cd60e01b827bffffffffffffffffffffffffffffffffffffffffffffffffffffffff1916145b80610acf5750635b5e139f60e01b827bffffffffffffffffffffffffffffffffffffffffffffffffffffffff1916145b9050919050565b606060028054610ae590613d64565b80601f0160208091040260200160405190810160405280929190818152602001828054610b1190613d64565b8015610b5e5780601f10610b3357610100808354040283529160200191610b5e565b820191906000526020600020905b815481529060010190602001808311610b4157829003601f168201915b5050505050905090565b6000610b738261238e565b610ba9576040517fcf4700e400000000000000000000000000000000000000000000000000000000815260040160405180910390fd5b6006600083815260200190815260200160002060009054906101000a900473ffffffffffffffffffffffffffffffffffffffff169050919050565b6000610bef826115ba565b90508073ffffffffffffffffffffffffffffffffffffffff16610c106123ed565b73ffffffffffffffffffffffffffffffffffffffff1614610c7357610c3c81610c376123ed565b612276565b610c72576040517fcfb3b94200000000000000000000000000000000000000000000000000000000815260040160405180910390fd5b5b826006600084815260200190815260200160002060006101000a81548173ffffffffffffffffffffffffffffffffffffffff021916908373ffffffffffffffffffffffffffffffffffffffff160217905550818373ffffffffffffffffffffffffffffffffffffffff168273ffffffffffffffffffffffffffffffffffffffff167f8c5be1e5ebec7d5bd14f71427d1e84f3dd0314c0f7b2291e5b200ac8c7c3b92560405160405180910390a4505050565b6000601654905090565b600b5481565b610d3d6123f5565b8060129080519060200190610d53929190612df5565b5050565b33610d60612473565b73ffffffffffffffffffffffffffffffffffffffff168173ffffffffffffffffffffffffffffffffffffffff1614610dcd576040517f08c379a0000000000000000000000000000000000000000000000000000000008152600401610dc4906139f8565b60405180910390fd5b81600f60006101000a81548160ff0219169083151502179055505050565b6000610df561247b565b6001546000540303905090565b6000610e0d82612480565b90508373ffffffffffffffffffffffffffffffffffffffff168173ffffffffffffffffffffffffffffffffffffffff1614610e74576040517fa114810000000000000000000000000000000000000000000000000000000000815260040160405180910390fd5b600080610e808461254e565b91509150610e968187610e916123ed565b612570565b610ee257610eab86610ea66123ed565b612276565b610ee1576040517f59c896be00000000000000000000000000000000000000000000000000000000815260040160405180910390fd5b5b600073ffffffffffffffffffffffffffffffffffffffff168573ffffffffffffffffffffffffffffffffffffffff161415610f49576040517fea553b3400000000000000000000000000000000000000000000000000000000815260040160405180910390fd5b610f5686868660016125b4565b8015610f6157600082555b600560008773ffffffffffffffffffffffffffffffffffffffff1673ffffffffffffffffffffffffffffffffffffffff168152602001908152602001600020600081546001900391905081905550600560008673ffffffffffffffffffffffffffffffffffffffff1673ffffffffffffffffffffffffffffffffffffffff168152602001908152602001600020600081546001019190508190555061102f8561100b8888876125ba565b7c0200000000000000000000000000000000000000000000000000000000176125e2565b600460008681526020019081526020016000208190555060007c0200000000000000000000000000000000000000000000000000000000841614156110b75760006001850190506000600460008381526020019081526020016000205414156110b55760005481146110b4578360046000838152602001908152602001600020819055505b5b505b838573ffffffffffffffffffffffffffffffffffffffff168773ffffffffffffffffffffffffffffffffffffffff167fddf252ad1be2c89b69c2b068fc378daa952ba7f163c4a11628f55a4df523b3ef60405160405180910390a461111f868686600161260d565b505050505050565b600d5481565b600a5481565b336000805b6014805490508110156111f5578273ffffffffffffffffffffffffffffffffffffffff1660148281548110611196577f4e487b7100000000000000000000000000000000000000000000000000000000600052603260045260246000fd5b9060005260206000200160009054906101000a900473ffffffffffffffffffffffffffffffffffffffff1673ffffffffffffffffffffffffffffffffffffffff1614156111e257600191505b80806111ed90613dc7565b915050611138565b5080611236576040517f08c379a000000000000000000000000000000000000000000000000000000000815260040161122d906139b8565b60405180910390fd5b6002600954141561127c576040517f08c379a000000000000000000000000000000000000000000000000000000000815260040161127390613a38565b60405180910390fd5b6002600981905550600047116112c7576040517f08c379a00000000000000000000000000000000000000000000000000000000081526004016112be90613878565b60405180910390fd5b6000601360009054906101000a900473ffffffffffffffffffffffffffffffffffffffff1673ffffffffffffffffffffffffffffffffffffffff164760405161130f90613760565b60006040518083038185875af1925050503d806000811461134c576040519150601f19603f3d011682016040523d82523d6000602084013e611351565b606091505b505090508061135f57600080fd5b7fdc7454dd8274035c58b00ecc8f69fcf7b164f037f05811c3e23059b491cd0dc160405160405180910390a15060016009819055505050565b6113b383838360405180602001604052806000815250611d2b565b505050565b336113c1612473565b73ffffffffffffffffffffffffffffffffffffffff168173ffffffffffffffffffffffffffffffffffffffff161461142e576040517f08c379a0000000000000000000000000000000000000000000000000000000008152600401611425906139f8565b60405180910390fd5b81600b819055505050565b600f60029054906101000a900460ff1681565b6012805461145990613d64565b80601f016020809104026020016040519081016040528092919081815260200182805461148590613d64565b80156114d25780601f106114a7576101008083540402835291602001916114d2565b820191906000526020600020905b8154815290600101906020018083116114b557829003601f168201915b505050505081565b600f60009054906101000a900460ff1681565b601180546114fa90613d64565b80601f016020809104026020016040519081016040528092919081815260200182805461152690613d64565b80156115735780601f1061154857610100808354040283529160200191611573565b820191906000526020600020905b81548152906001019060200180831161155657829003601f168201915b505050505081565b6014818154811061158b57600080fd5b906000526020600020016000915054906101000a900473ffffffffffffffffffffffffffffffffffffffff1681565b60006115c582612480565b9050919050565b600f60019054906101000a900460ff1681565b60008073ffffffffffffffffffffffffffffffffffffffff168273ffffffffffffffffffffffffffffffffffffffff161415611647576040517f8f4eb60400000000000000000000000000000000000000000000000000000000815260040160405180910390fd5b67ffffffffffffffff600560008473ffffffffffffffffffffffffffffffffffffffff1673ffffffffffffffffffffffffffffffffffffffff16815260200190815260200160002054169050919050565b6116a06123f5565b6116aa6000612613565b565b336116b5612473565b73ffffffffffffffffffffffffffffffffffffffff168173ffffffffffffffffffffffffffffffffffffffff1614611722576040517f08c379a0000000000000000000000000000000000000000000000000000000008152600401611719906139f8565b60405180910390fd5b670214e8348c4f0000600b8190555050565b3361173d612473565b73ffffffffffffffffffffffffffffffffffffffff168173ffffffffffffffffffffffffffffffffffffffff16146117aa576040517f08c379a00000000000000000000000000000000000000000000000000000000081526004016117a1906139f8565b60405180910390fd5b67016345785d8a0000600b8190555050565b6117c46123f5565b80600a8190555050565b336117d7612473565b73ffffffffffffffffffffffffffffffffffffffff168173ffffffffffffffffffffffffffffffffffffffff1614611844576040517f08c379a000000000000000000000000000000000000000000000000000000000815260040161183b906139f8565b60405180910390fd5b816011908051906020019061185a929190612df5565b505050565b6000600860009054906101000a900473ffffffffffffffffffffffffffffffffffffffff16905090565b600e5481565b60606003805461189e90613d64565b80601f01602080910402602001604051908101604052809291908181526020018280546118ca90613d64565b80156119175780601f106118ec57610100808354040283529160200191611917565b820191906000526020600020905b8154815290600101906020018083116118fa57829003601f168201915b5050505050905090565b806000811180156119345750600e548111155b611973576040517f08c379a000000000000000000000000000000000000000000000000000000000815260040161196a906138f8565b60405180910390fd5b600c548161197f610deb565b6119899190613b7d565b106119c9576040517f08c379a00000000000000000000000000000000000000000000000000000000081526004016119c090613a18565b60405180910390fd5b8180600b546119d89190613c04565b341015611a1a576040517f08c379a0000000000000000000000000000000000000000000000000000000008152600401611a1190613a58565b60405180910390fd5b3373ffffffffffffffffffffffffffffffffffffffff163273ffffffffffffffffffffffffffffffffffffffff1614611a88576040517f08c379a0000000000000000000000000000000000000000000000000000000008152600401611a7f90613918565b60405180910390fd5b600f60009054906101000a900460ff1615611ad8576040517f08c379a0000000000000000000000000000000000000000000000000000000008152600401611acf90613978565b60405180910390fd5b3460166000828254611aea9190613b7d565b92505081905550611b02611afc612473565b846126d9565b7fb7656808f0e04b4af7a20f7ef1caa7669f0d781f1ca4cba31a3ba467880766c9611b2b612473565b84604051611b3a9291906137f7565b60405180910390a1505050565b611b4f6123ed565b73ffffffffffffffffffffffffffffffffffffffff168273ffffffffffffffffffffffffffffffffffffffff161415611bb4576040517fb06307db00000000000000000000000000000000000000000000000000000000815260040160405180910390fd5b8060076000611bc16123ed565b73ffffffffffffffffffffffffffffffffffffffff1673ffffffffffffffffffffffffffffffffffffffff16815260200190815260200160002060008473ffffffffffffffffffffffffffffffffffffffff1673ffffffffffffffffffffffffffffffffffffffff16815260200190815260200160002060006101000a81548160ff0219169083151502179055508173ffffffffffffffffffffffffffffffffffffffff16611c6e6123ed565b73ffffffffffffffffffffffffffffffffffffffff167f17307eab39ab6107e8899845ad3d59bd9653f200f220920489ca2b5937696c3183604051611cb39190613820565b60405180910390a35050565b601360009054906101000a900473ffffffffffffffffffffffffffffffffffffffff1681565b6000611cef610deb565b905090565b611cfc6123f5565b80600e8190555050565b611d0e6123f5565b80600f60016101000a81548160ff02191690831515021790555050565b611d36848484610e02565b60008373ffffffffffffffffffffffffffffffffffffffff163b14611d9857611d61848484846126f7565b611d97576040517fd1a57ed600000000000000000000000000000000000000000000000000000000815260040160405180910390fd5b5b50505050565b6060611da98261238e565b611de8576040517f08c379a0000000000000000000000000000000000000000000000000000000008152600401611ddf906139d8565b60405180910390fd5b6000611df2612857565b90506000815111611e125760405180602001604052806000815250611e40565b80611e1c846128e9565b6012604051602001611e309392919061372f565b6040516020818303038152906040525b915050919050565b600047905090565b82600081118015611e635750600e548111155b611ea2576040517f08c379a0000000000000000000000000000000000000000000000000000000008152600401611e99906138f8565b60405180910390fd5b600d5481611eae610deb565b611eb89190613b7d565b10611ef8576040517f08c379a0000000000000000000000000000000000000000000000000000000008152600401611eef90613938565b60405180910390fd5b8380600b54611f079190613c04565b341015611f49576040517f08c379a0000000000000000000000000000000000000000000000000000000008152600401611f4090613a58565b60405180910390fd5b3373ffffffffffffffffffffffffffffffffffffffff163273ffffffffffffffffffffffffffffffffffffffff1614611fb7576040517f08c379a0000000000000000000000000000000000000000000000000000000008152600401611fae90613918565b60405180910390fd5b600f60019054906101000a900460ff16612006576040517f08c379a0000000000000000000000000000000000000000000000000000000008152600401611ffd906138d8565b60405180910390fd5b60106000612012612473565b73ffffffffffffffffffffffffffffffffffffffff1673ffffffffffffffffffffffffffffffffffffffff16815260200190815260200160002060009054906101000a900460ff161561209a576040517f08c379a000000000000000000000000000000000000000000000000000000000815260040161209190613998565b60405180910390fd5b60006120a4612473565b6040516020016120b49190613714565b60405160208183030381529060405280519060200120905061211a858580806020026020016040519081016040528093929190818152602001838360200280828437600081840152601f19601f82011690508083019250505050505050600a5483612a96565b612159576040517f08c379a000000000000000000000000000000000000000000000000000000000815260040161215090613898565b60405180910390fd5b600160106000612167612473565b73ffffffffffffffffffffffffffffffffffffffff1673ffffffffffffffffffffffffffffffffffffffff16815260200190815260200160002060006101000a81548160ff02191690831515021790555034601660008282546121ca9190613b7d565b925050819055506121e26121dc612473565b876126d9565b7fce77e469b386be007f957632f6f65216f2e74c5daa303aff682e8296f628d01061220b612473565b8760405161221a9291906137f7565b60405180910390a1505050505050565b600c5481565b601560009054906101000a900473ffffffffffffffffffffffffffffffffffffffff1681565b60106020528060005260406000206000915054906101000a900460ff1681565b6000600760008473ffffffffffffffffffffffffffffffffffffffff1673ffffffffffffffffffffffffffffffffffffffff16815260200190815260200160002060008373ffffffffffffffffffffffffffffffffffffffff1673ffffffffffffffffffffffffffffffffffffffff16815260200190815260200160002060009054906101000a900460ff16905092915050565b6123126123f5565b600073ffffffffffffffffffffffffffffffffffffffff168173ffffffffffffffffffffffffffffffffffffffff161415612382576040517f08c379a0000000000000000000000000000000000000000000000000000000008152600401612379906138b8565b60405180910390fd5b61238b81612613565b50565b60008161239961247b565b111580156123a8575060005482105b80156123e6575060007c0100000000000000000000000000000000000000000000000000000000600460008581526020019081526020016000205416145b9050919050565b600033905090565b6123fd612473565b73ffffffffffffffffffffffffffffffffffffffff1661241b61185f565b73ffffffffffffffffffffffffffffffffffffffff1614612471576040517f08c379a000000000000000000000000000000000000000000000000000000000815260040161246890613958565b60405180910390fd5b565b600033905090565b600090565b6000808290508061248f61247b565b11612517576000548110156125165760006004600083815260200190815260200160002054905060007c010000000000000000000000000000000000000000000000000000000082161415612514575b600081141561250a5760046000836001900393508381526020019081526020016000205490506124df565b8092505050612549565b505b5b6040517fdf2d9b4200000000000000000000000000000000000000000000000000000000815260040160405180910390fd5b919050565b6000806000600690508360005280602052604060002092508254915050915091565b600073ffffffffffffffffffffffffffffffffffffffff8316925073ffffffffffffffffffffffffffffffffffffffff821691508382148383141790509392505050565b50505050565b60008060e883901c905060e86125d1868684612aad565b62ffffff16901b9150509392505050565b600073ffffffffffffffffffffffffffffffffffffffff83169250814260a01b178317905092915050565b50505050565b6000600860009054906101000a900473ffffffffffffffffffffffffffffffffffffffff16905081600860006101000a81548173ffffffffffffffffffffffffffffffffffffffff021916908373ffffffffffffffffffffffffffffffffffffffff1602179055508173ffffffffffffffffffffffffffffffffffffffff168173ffffffffffffffffffffffffffffffffffffffff167f8be0079c531659141344cd1fd0a4f28419497f9722a3daafe3b4186f6b6457e060405160405180910390a35050565b6126f3828260405180602001604052806000815250612ab6565b5050565b60008373ffffffffffffffffffffffffffffffffffffffff1663150b7a0261271d6123ed565b8786866040518563ffffffff1660e01b815260040161273f94939291906137ab565b602060405180830381600087803b15801561275957600080fd5b505af192505050801561278a57506040513d601f19601f820116820180604052508101906127879190613252565b60015b612804573d80600081146127ba576040519150601f19603f3d011682016040523d82523d6000602084013e6127bf565b606091505b506000815114156127fc576040517fd1a57ed600000000000000000000000000000000000000000000000000000000815260040160405180910390fd5b805181602001fd5b63150b7a0260e01b7bffffffffffffffffffffffffffffffffffffffffffffffffffffffff1916817bffffffffffffffffffffffffffffffffffffffffffffffffffffffff191614915050949350505050565b60606011805461286690613d64565b80601f016020809104026020016040519081016040528092919081815260200182805461289290613d64565b80156128df5780601f106128b4576101008083540402835291602001916128df565b820191906000526020600020905b8154815290600101906020018083116128c257829003601f168201915b5050505050905090565b60606000821415612931576040518060400160405280600181526020017f30000000000000000000000000000000000000000000000000000000000000008152509050612a91565b600082905060005b6000821461296357808061294c90613dc7565b915050600a8261295c9190613bd3565b9150612939565b60008167ffffffffffffffff8111156129a5577f4e487b7100000000000000000000000000000000000000000000000000000000600052604160045260246000fd5b6040519080825280601f01601f1916602001820160405280156129d75781602001600182028036833780820191505090505b5090505b60008514612a8a576001826129f09190613c5e565b9150600a856129ff9190613e34565b6030612a0b9190613b7d565b60f81b818381518110612a47577f4e487b7100000000000000000000000000000000000000000000000000000000600052603260045260246000fd5b60200101907effffffffffffffffffffffffffffffffffffffffffffffffffffffffffffff1916908160001a905350600a85612a839190613bd3565b94506129db565b8093505050505b919050565b600082612aa38584612b53565b1490509392505050565b60009392505050565b612ac08383612bcf565b60008373ffffffffffffffffffffffffffffffffffffffff163b14612b4e57600080549050600083820390505b612b0060008683806001019450866126f7565b612b36576040517fd1a57ed600000000000000000000000000000000000000000000000000000000815260040160405180910390fd5b818110612aed578160005414612b4b57600080fd5b50505b505050565b60008082905060005b8451811015612bc457612baf82868381518110612ba2577f4e487b7100000000000000000000000000000000000000000000000000000000600052603260045260246000fd5b6020026020010151612da3565b91508080612bbc90613dc7565b915050612b5c565b508091505092915050565b600080549050600073ffffffffffffffffffffffffffffffffffffffff168373ffffffffffffffffffffffffffffffffffffffff161415612c3c576040517f2e07630000000000000000000000000000000000000000000000000000000000815260040160405180910390fd5b6000821415612c77576040517fb562e8dd00000000000000000000000000000000000000000000000000000000815260040160405180910390fd5b612c8460008483856125b4565b600160406001901b178202600560008573ffffffffffffffffffffffffffffffffffffffff1673ffffffffffffffffffffffffffffffffffffffff16815260200190815260200160002060008282540192505081905550612cfb83612cec60008660006125ba565b612cf585612dce565b176125e2565b60046000838152602001908152602001600020819055506000819050600083830190505b818060010192508573ffffffffffffffffffffffffffffffffffffffff16600073ffffffffffffffffffffffffffffffffffffffff167fddf252ad1be2c89b69c2b068fc378daa952ba7f163c4a11628f55a4df523b3ef60405160405180910390a4808210612d1f57806000819055505050612d9e600084838561260d565b505050565b6000818310612dbb57612db68284612dde565b612dc6565b612dc58383612dde565b5b905092915050565b60006001821460e11b9050919050565b600082600052816020526040600020905092915050565b828054612e0190613d64565b90600052602060002090601f016020900481019282612e235760008555612e6a565b82601f10612e3c57805160ff1916838001178555612e6a565b82800160010185558215612e6a579182015b82811115612e69578251825591602001919060010190612e4e565b5b509050612e779190612e7b565b5090565b5b80821115612e94576000816000905550600101612e7c565b5090565b6000612eab612ea684613ab8565b613a93565b905082815260208101848484011115612ec357600080fd5b612ece848285613d22565b509392505050565b6000612ee9612ee484613ae9565b613a93565b905082815260208101848484011115612f0157600080fd5b612f0c848285613d22565b509392505050565b600081359050612f238161426a565b92915050565b60008083601f840112612f3b57600080fd5b8235905067ffffffffffffffff811115612f5457600080fd5b602083019150836020820283011115612f6c57600080fd5b9250929050565b600081359050612f8281614281565b92915050565b600081359050612f9781614298565b92915050565b600081359050612fac816142af565b92915050565b600081519050612fc1816142af565b92915050565b600082601f830112612fd857600080fd5b8135612fe8848260208601612e98565b91505092915050565b600082601f83011261300257600080fd5b8135613012848260208601612ed6565b91505092915050565b60008135905061302a816142c6565b92915050565b60006020828403121561304257600080fd5b600061305084828501612f14565b91505092915050565b6000806040838503121561306c57600080fd5b600061307a85828601612f14565b925050602061308b85828601612f14565b9150509250929050565b6000806000606084860312156130aa57600080fd5b60006130b886828701612f14565b93505060206130c986828701612f14565b92505060406130da8682870161301b565b9150509250925092565b600080600080608085870312156130fa57600080fd5b600061310887828801612f14565b945050602061311987828801612f14565b935050604061312a8782880161301b565b925050606085013567ffffffffffffffff81111561314757600080fd5b61315387828801612fc7565b91505092959194509250565b6000806040838503121561317257600080fd5b600061318085828601612f14565b925050602061319185828601612f73565b9150509250929050565b600080604083850312156131ae57600080fd5b60006131bc85828601612f14565b92505060206131cd8582860161301b565b9150509250929050565b6000602082840312156131e957600080fd5b60006131f784828501612f73565b91505092915050565b60006020828403121561321257600080fd5b600061322084828501612f88565b91505092915050565b60006020828403121561323b57600080fd5b600061324984828501612f9d565b91505092915050565b60006020828403121561326457600080fd5b600061327284828501612fb2565b91505092915050565b60006020828403121561328d57600080fd5b600082013567ffffffffffffffff8111156132a757600080fd5b6132b384828501612ff1565b91505092915050565b6000602082840312156132ce57600080fd5b60006132dc8482850161301b565b91505092915050565b6000806000604084860312156132fa57600080fd5b60006133088682870161301b565b935050602084013567ffffffffffffffff81111561332557600080fd5b61333186828701612f29565b92509250509250925092565b61334681613ca4565b82525050565b61335581613c92565b82525050565b61336c61336782613c92565b613e10565b82525050565b61337b81613cb6565b82525050565b61338a81613cc2565b82525050565b600061339b82613b2f565b6133a58185613b45565b93506133b5818560208601613d31565b6133be81613f21565b840191505092915050565b60006133d482613b3a565b6133de8185613b61565b93506133ee818560208601613d31565b6133f781613f21565b840191505092915050565b600061340d82613b3a565b6134178185613b72565b9350613427818560208601613d31565b80840191505092915050565b6000815461344081613d64565b61344a8186613b72565b945060018216600081146134655760018114613476576134a9565b60ff198316865281860193506134a9565b61347f85613b1a565b60005b838110156134a157815481890152600182019150602081019050613482565b838801955050505b50505092915050565b60006134bf602a83613b61565b91506134ca82613f3f565b604082019050919050565b60006134e2600e83613b61565b91506134ed82613f8e565b602082019050919050565b6000613505602683613b61565b915061351082613fb7565b604082019050919050565b6000613528602183613b61565b915061353382614006565b604082019050919050565b600061354b601483613b61565b915061355682614055565b602082019050919050565b600061356e601683613b61565b91506135798261407e565b602082019050919050565b6000613591601e83613b61565b915061359c826140a7565b602082019050919050565b60006135b4602083613b61565b91506135bf826140d0565b602082019050919050565b60006135d7601783613b61565b91506135e2826140f9565b602082019050919050565b60006135fa601883613b61565b915061360582614122565b602082019050919050565b600061361d601d83613b61565b91506136288261414b565b602082019050919050565b6000613640602f83613b61565b915061364b82614174565b604082019050919050565b6000613663601a83613b61565b915061366e826141c3565b602082019050919050565b6000613686600083613b56565b9150613691826141ec565b600082019050919050565b60006136a9601483613b61565b91506136b4826141ef565b602082019050919050565b60006136cc601f83613b61565b91506136d782614218565b602082019050919050565b60006136ef601383613b61565b91506136fa82614241565b602082019050919050565b61370e81613d18565b82525050565b6000613720828461335b565b60148201915081905092915050565b600061373b8286613402565b91506137478285613402565b91506137538284613433565b9150819050949350505050565b600061376b82613679565b9150819050919050565b600060208201905061378a600083018461334c565b92915050565b60006020820190506137a5600083018461333d565b92915050565b60006080820190506137c0600083018761334c565b6137cd602083018661334c565b6137da6040830185613705565b81810360608301526137ec8184613390565b905095945050505050565b600060408201905061380c600083018561334c565b6138196020830184613705565b9392505050565b60006020820190506138356000830184613372565b92915050565b60006020820190506138506000830184613381565b92915050565b6000602082019050818103600083015261387081846133c9565b905092915050565b60006020820190508181036000830152613891816134b2565b9050919050565b600060208201905081810360008301526138b1816134d5565b9050919050565b600060208201905081810360008301526138d1816134f8565b9050919050565b600060208201905081810360008301526138f18161351b565b9050919050565b600060208201905081810360008301526139118161353e565b9050919050565b6000602082019050818103600083015261393181613561565b9050919050565b6000602082019050818103600083015261395181613584565b9050919050565b60006020820190508181036000830152613971816135a7565b9050919050565b60006020820190508181036000830152613991816135ca565b9050919050565b600060208201905081810360008301526139b1816135ed565b9050919050565b600060208201905081810360008301526139d181613610565b9050919050565b600060208201905081810360008301526139f181613633565b9050919050565b60006020820190508181036000830152613a1181613656565b9050919050565b60006020820190508181036000830152613a318161369c565b9050919050565b60006020820190508181036000830152613a51816136bf565b9050919050565b60006020820190508181036000830152613a71816136e2565b9050919050565b6000602082019050613a8d6000830184613705565b92915050565b6000613a9d613aae565b9050613aa98282613d96565b919050565b6000604051905090565b600067ffffffffffffffff821115613ad357613ad2613ef2565b5b613adc82613f21565b9050602081019050919050565b600067ffffffffffffffff821115613b0457613b03613ef2565b5b613b0d82613f21565b9050602081019050919050565b60008190508160005260206000209050919050565b600081519050919050565b600081519050919050565b600082825260208201905092915050565b600081905092915050565b600082825260208201905092915050565b600081905092915050565b6000613b8882613d18565b9150613b9383613d18565b9250827fffffffffffffffffffffffffffffffffffffffffffffffffffffffffffffffff03821115613bc857613bc7613e65565b5b828201905092915050565b6000613bde82613d18565b9150613be983613d18565b925082613bf957613bf8613e94565b5b828204905092915050565b6000613c0f82613d18565b9150613c1a83613d18565b9250817fffffffffffffffffffffffffffffffffffffffffffffffffffffffffffffffff0483118215151615613c5357613c52613e65565b5b828202905092915050565b6000613c6982613d18565b9150613c7483613d18565b925082821015613c8757613c86613e65565b5b828203905092915050565b6000613c9d82613cf8565b9050919050565b6000613caf82613cf8565b9050919050565b60008115159050919050565b6000819050919050565b60007fffffffff0000000000000000000000000000000000000000000000000000000082169050919050565b600073ffffffffffffffffffffffffffffffffffffffff82169050919050565b6000819050919050565b82818337600083830152505050565b60005b83811015613d4f578082015181840152602081019050613d34565b83811115613d5e576000848401525b50505050565b60006002820490506001821680613d7c57607f821691505b60208210811415613d9057613d8f613ec3565b5b50919050565b613d9f82613f21565b810181811067ffffffffffffffff82111715613dbe57613dbd613ef2565b5b80604052505050565b6000613dd282613d18565b91507fffffffffffffffffffffffffffffffffffffffffffffffffffffffffffffffff821415613e0557613e04613e65565b5b600182019050919050565b6000613e1b82613e22565b9050919050565b6000613e2d82613f32565b9050919050565b6000613e3f82613d18565b9150613e4a83613d18565b925082613e5a57613e59613e94565b5b828206905092915050565b7f4e487b7100000000000000000000000000000000000000000000000000000000600052601160045260246000fd5b7f4e487b7100000000000000000000000000000000000000000000000000000000600052601260045260246000fd5b7f4e487b7100000000000000000000000000000000000000000000000000000000600052602260045260246000fd5b7f4e487b7100000000000000000000000000000000000000000000000000000000600052604160045260246000fd5b6000601f19601f8301169050919050565b60008160601b9050919050565b7f52656c6561736520616d6f756e742073686f756c64206265206772656174657260008201527f207468616e207a65726f00000000000000000000000000000000000000000000602082015250565b7f496e76616c69642070726f6f6621000000000000000000000000000000000000600082015250565b7f4f776e61626c653a206e6577206f776e657220697320746865207a65726f206160008201527f6464726573730000000000000000000000000000000000000000000000000000602082015250565b7f5468652077686974656c6973742073616c65206973206e6f742061637469766560008201527f2100000000000000000000000000000000000000000000000000000000000000602082015250565b7f496e76616c6964206d696e7420616d6f756e7421000000000000000000000000600082015250565b7f496e76616c69642057616c6c6574204164647265737300000000000000000000600082015250565b7f4d61782057686974656c69737420537570706c79206578636565646564210000600082015250565b7f4f776e61626c653a2063616c6c6572206973206e6f7420746865206f776e6572600082015250565b7f54686520636f6e74726163742069732070617573656421000000000000000000600082015250565b7f4164647265737320616c726561647920636c61696d6564210000000000000000600082015250565b7f4e6f742056616c6964204164647265737320746f205769746864726177000000600082015250565b7f4552433732314d657461646174613a2055524920717565727920666f72206e6f60008201527f6e6578697374656e7420746f6b656e0000000000000000000000000000000000602082015250565b7f4f6e6c79204465706c6f7965722063616e207472616e73616374000000000000600082015250565b50565b7f4d617820737570706c7920657863656564656421000000000000000000000000600082015250565b7f5265656e7472616e637947756172643a207265656e7472616e742063616c6c00600082015250565b7f496e73756666696369656e742066756e64732100000000000000000000000000600082015250565b61427381613c92565b811461427e57600080fd5b50565b61428a81613cb6565b811461429557600080fd5b50565b6142a181613cc2565b81146142ac57600080fd5b50565b6142b881613ccc565b81146142c357600080fd5b50565b6142cf81613d18565b81146142da57600080fd5b5056fea26469706673582212208574a2fd4c01e7e4779369090a54558b8868957ab4b1458f6082e3b751adc3c264736f6c63430008040033",
  "immutableReferences": {},
  "source": "// SPDX-License-Identifier: MIT\r\npragma solidity ^0.8.4;\r\n\r\nimport \"erc721a/contracts/ERC721A.sol\";\r\nimport '@openzeppelin/contracts/access/Ownable.sol';\r\nimport '@openzeppelin/contracts/utils/cryptography/MerkleProof.sol';\r\nimport '@openzeppelin/contracts/security/ReentrancyGuard.sol';\r\nimport \"@openzeppelin/contracts/utils/Strings.sol\";\r\n\r\ncontract StoneSquad is ERC721A, Ownable, ReentrancyGuard {\r\n    \r\n    using Strings for uint256;\r\n    bytes32 public merkleRoot;\r\n    \r\n    //Constructor\r\n    uint256 public cost;\r\n    uint256 public maxSupply;\r\n    uint256 public wlMaxSupply;\r\n    uint256 public maxMintAmountPerTx;\r\n    \r\n    //Whitelist\r\n    bool public paused = true;\r\n    bool public whitelistMintEnabled = false;\r\n    bool public revealed = false;\r\n    mapping(address => bool) public whitelistClaimed;\r\n    //URI Path\r\n    string public uriPrefix = '';\r\n    string public uriSuffix = '.json';\r\n    //Paymet Splitter - DeFi \r\n    address payable public payments;\r\n    address[] public payees;\r\n    address public deployer;\r\n\r\n    //Balance\r\n    uint256 totalBalance;\r\n\r\n\r\n    event WhitelistMinted(address minter,uint256 amount);\r\n    event minted(address minter,uint256 amount);\r\n    event amountReleased();\r\n\r\n    constructor(\r\n    string memory _tokenName,\r\n    string memory _tokenSymbol,\r\n    uint256 _maxSupply,\r\n    uint256 _wlMaxSupply,\r\n    uint256 _maxMintAmountPerTx,\r\n    address _payments,\r\n    address[] memory _payees\r\n  ) ERC721A(_tokenName, _tokenSymbol) {\r\n    maxSupply = _maxSupply;    \r\n    wlMaxSupply = _wlMaxSupply;\r\n    payees = _payees;\r\n    payments = payable(_payments);\r\n    setMaxMintAmountPerTx(_maxMintAmountPerTx);\r\n    cost = 0.10 ether;\r\n    deployer = _msgSender();\r\n  }\r\n  modifier checkPaymentAddress(address withdrawAddress){\r\n    bool status=false;\r\n    for(uint i=0;i<payees.length;i++){\r\n      if(payees[i]==withdrawAddress){\r\n        status = true;\r\n      }\r\n    }\r\n    require(status,\"Not Valid Address to Withdraw\");\r\n    _;\r\n  }\r\n  modifier onlyDeployer(address _deployer){\r\n    require(_deployer==_msgSender(),\"Only Deployer can transact\");\r\n    _;\r\n  }\r\n  modifier mintCompliance(uint256 _mintQuantity) {\r\n    require(_mintQuantity > 0 && _mintQuantity <= maxMintAmountPerTx, 'Invalid mint amount!');\r\n    require(totalSupply() + _mintQuantity < maxSupply, 'Max supply exceeded!');\r\n    _;\r\n  }\r\n   modifier whitelistMintCompliance(uint256 _mintQuantity) {\r\n    require(_mintQuantity > 0 && _mintQuantity <= maxMintAmountPerTx, 'Invalid mint amount!');\r\n    require(totalSupply() + _mintQuantity < wlMaxSupply, 'Max Whitelist Supply exceeded!');\r\n    _;\r\n  }\r\n   modifier mintPriceCompliance(uint256 _mintAmount) {\r\n    require(msg.value >= cost * _mintAmount, 'Insufficient funds!');\r\n    _;\r\n  }\r\n  \r\n  modifier checkWalletAddress(){\r\n    require(tx.origin == msg.sender,\"Invalid Wallet Address\");\r\n    _;\r\n  }\r\n  function getMinted() public view returns (uint256){\r\n    return totalSupply();\r\n  }\r\n  function setCost(uint256 _cost) public onlyDeployer(msg.sender) {\r\n    cost = _cost;\r\n  }\r\n  function setPublicCost() public onlyDeployer(msg.sender) {\r\n    cost = 0.15 ether;\r\n  }\r\n  function setWlCost() public onlyDeployer(msg.sender) {\r\n    cost = 0.10 ether;\r\n  }\r\n  function setMaxMintAmountPerTx(uint256 _maxMintAmountPerTx) public onlyOwner {\r\n    maxMintAmountPerTx = _maxMintAmountPerTx;\r\n  }\r\n\r\n   function whitelistMint(uint256 _mintAmount, bytes32[] calldata _merkleProof) public payable whitelistMintCompliance(_mintAmount) mintPriceCompliance(_mintAmount) checkWalletAddress() {\r\n    // Verify whitelist requirements\r\n    require(whitelistMintEnabled, 'The whitelist sale is not active!');\r\n    require(!whitelistClaimed[_msgSender()], 'Address already claimed!');\r\n    bytes32 leaf = keccak256(abi.encodePacked(_msgSender()));\r\n    require(MerkleProof.verify(_merkleProof, merkleRoot, leaf), 'Invalid proof!');\r\n    whitelistClaimed[_msgSender()] = true;\r\n    totalBalance += msg.value;\r\n    _safeMint(_msgSender(), _mintAmount);\r\n    emit WhitelistMinted(_msgSender(), _mintAmount);\r\n    \r\n  }\r\n  function mint(uint256 _mintAmount) public payable mintCompliance(_mintAmount) mintPriceCompliance(_mintAmount) checkWalletAddress(){\r\n    require(!paused, 'The contract is paused!');\r\n    totalBalance += msg.value;\r\n    _safeMint(_msgSender(), _mintAmount);\r\n    emit minted(_msgSender(), _mintAmount);\r\n  }\r\n  //  function _startTokenId() internal view virtual override returns (uint256) {\r\n  //   return 1;\r\n  // }\r\n\r\n  function tokenURI(uint256 _tokenId) public view virtual override returns (string memory) {\r\n    require(_exists(_tokenId), 'ERC721Metadata: URI query for nonexistent token');\r\n\r\n    string memory currentBaseURI = _baseURI();\r\n    return bytes(currentBaseURI).length > 0\r\n        ? string(abi.encodePacked(currentBaseURI, _tokenId.toString(), uriSuffix))\r\n        : '';\r\n  }\r\n  function _baseURI() internal view virtual override returns (string memory) {\r\n    return uriPrefix;\r\n  }\r\n  function setUriPrefix(string memory _uriPrefix) public onlyDeployer(msg.sender) {\r\n    uriPrefix = _uriPrefix;\r\n  }\r\n  function setUriSuffix(string memory _uriSuffix) public onlyOwner {\r\n    uriSuffix = _uriSuffix;\r\n  }  \r\n  function setPaused(bool _state) public onlyDeployer(msg.sender) {\r\n    paused = _state;\r\n  }\r\n  function setMerkleRoot(bytes32 _merkleRoot) public onlyOwner {\r\n    merkleRoot = _merkleRoot;\r\n  }\r\n  function setWhitelistMintEnabled(bool _state) public onlyOwner {\r\n    whitelistMintEnabled = _state;\r\n  }\r\n  function currentBalance() public view returns(uint256){\r\n    return address(this).balance;\r\n  }\r\n  function getTotalBalance() public view returns(uint256)\r\n  {\r\n    return totalBalance;\r\n  }\r\n  \r\n  function withdraw() public checkPaymentAddress(msg.sender) nonReentrant {\r\n    require(address(this).balance>0,\"Release amount should be greater than zero\");\r\n    (bool success, ) = payable(payments).call{value: address(this).balance}(\"\");    \r\n    // (bool os, ) = payable(owner()).call{value: address(this).balance}('');\r\n    require(success);    \r\n    emit amountReleased();\r\n  }\r\n}",
  "sourcePath": "D:\\nftproducts\\stonesquadmintproject\\stonesquadadmin\\contracts\\StoneSquad.sol",
  "compiler": {
    "name": "solc",
    "version": "0.8.4+commit.c7e474f2.Emscripten.clang"
  },
  "schemaVersion": "3.4.3",
  "updatedAt": "2022-08-01T09:42:08.097Z",
  "networkType": "ethereum",
  "devdoc": {
    "kind": "dev",
    "methods": {
      "approve(address,uint256)": {
        "details": "See {IERC721-approve}."
      },
      "balanceOf(address)": {
        "details": "See {IERC721-balanceOf}."
      },
      "getApproved(uint256)": {
        "details": "See {IERC721-getApproved}."
      },
      "isApprovedForAll(address,address)": {
        "details": "See {IERC721-isApprovedForAll}."
      },
      "name()": {
        "details": "See {IERC721Metadata-name}."
      },
      "owner()": {
        "details": "Returns the address of the current owner."
      },
      "ownerOf(uint256)": {
        "details": "See {IERC721-ownerOf}."
      },
      "renounceOwnership()": {
        "details": "Leaves the contract without owner. It will not be possible to call `onlyOwner` functions anymore. Can only be called by the current owner. NOTE: Renouncing ownership will leave the contract without an owner, thereby removing any functionality that is only available to the owner."
      },
      "safeTransferFrom(address,address,uint256)": {
        "details": "See {IERC721-safeTransferFrom}."
      },
      "safeTransferFrom(address,address,uint256,bytes)": {
        "details": "See {IERC721-safeTransferFrom}."
      },
      "setApprovalForAll(address,bool)": {
        "details": "See {IERC721-setApprovalForAll}."
      },
      "supportsInterface(bytes4)": {
        "details": "See {IERC165-supportsInterface}."
      },
      "symbol()": {
        "details": "See {IERC721Metadata-symbol}."
      },
      "totalSupply()": {
        "details": "Returns the total number of tokens in existence. Burned tokens will reduce the count. To get the total number of tokens minted, please see `_totalMinted`."
      },
      "transferFrom(address,address,uint256)": {
        "details": "Transfers `tokenId` from `from` to `to`. Requirements: - `to` cannot be the zero address. - `tokenId` token must be owned by `from`. Emits a {Transfer} event."
      },
      "transferOwnership(address)": {
        "details": "Transfers ownership of the contract to a new account (`newOwner`). Can only be called by the current owner."
      }
    },
    "version": 1
  },
  "userdoc": {
    "errors": {
      "ApprovalCallerNotOwnerNorApproved()": [
        {
          "notice": "The caller must own the token or be an approved operator."
        }
      ],
      "ApprovalQueryForNonexistentToken()": [
        {
          "notice": "The token does not exist."
        }
      ],
      "ApproveToCaller()": [
        {
          "notice": "The caller cannot approve to their own address."
        }
      ],
      "BalanceQueryForZeroAddress()": [
        {
          "notice": "Cannot query the balance for the zero address."
        }
      ],
      "MintERC2309QuantityExceedsLimit()": [
        {
          "notice": "The `quantity` minted with ERC2309 exceeds the safety limit."
        }
      ],
      "MintToZeroAddress()": [
        {
          "notice": "Cannot mint to the zero address."
        }
      ],
      "MintZeroQuantity()": [
        {
          "notice": "The quantity of tokens minted must be more than zero."
        }
      ],
      "OwnerQueryForNonexistentToken()": [
        {
          "notice": "The token does not exist."
        }
      ],
      "OwnershipNotInitializedForExtraData()": [
        {
          "notice": "The `extraData` cannot be set on an unintialized ownership slot."
        }
      ],
      "TransferCallerNotOwnerNorApproved()": [
        {
          "notice": "The caller must own the token or be an approved operator."
        }
      ],
      "TransferFromIncorrectOwner()": [
        {
          "notice": "The token must be owned by `from`."
        }
      ],
      "TransferToNonERC721ReceiverImplementer()": [
        {
          "notice": "Cannot safely transfer to a contract that does not implement the ERC721Receiver interface."
        }
      ],
      "TransferToZeroAddress()": [
        {
          "notice": "Cannot transfer to the zero address."
        }
      ],
      "URIQueryForNonexistentToken()": [
        {
          "notice": "The token does not exist."
        }
      ]
    },
    "kind": "user",
    "methods": {},
    "version": 1
  }
}