{
  "contractName": "StoneSquad",
  "abi": [
    {
      "inputs": [
        {
          "internalType": "string",
          "name": "_tokenName",
          "type": "string"
        },
        {
          "internalType": "string",
          "name": "_tokenSymbol",
          "type": "string"
        },
        {
          "internalType": "uint256",
          "name": "_maxSupply",
          "type": "uint256"
        },
        {
          "internalType": "uint256",
          "name": "_wlMaxSupply",
          "type": "uint256"
        },
        {
          "internalType": "uint256",
          "name": "_maxMintAmountPerTx",
          "type": "uint256"
        },
        {
          "internalType": "address",
          "name": "_payments",
          "type": "address"
        },
        {
          "internalType": "address[]",
          "name": "_payees",
          "type": "address[]"
        }
      ],
      "stateMutability": "nonpayable",
      "type": "constructor"
    },
    {
      "inputs": [],
      "name": "ApprovalCallerNotOwnerNorApproved",
      "type": "error"
    },
    {
      "inputs": [],
      "name": "ApprovalQueryForNonexistentToken",
      "type": "error"
    },
    {
      "inputs": [],
      "name": "ApproveToCaller",
      "type": "error"
    },
    {
      "inputs": [],
      "name": "BalanceQueryForZeroAddress",
      "type": "error"
    },
    {
      "inputs": [],
      "name": "MintERC2309QuantityExceedsLimit",
      "type": "error"
    },
    {
      "inputs": [],
      "name": "MintToZeroAddress",
      "type": "error"
    },
    {
      "inputs": [],
      "name": "MintZeroQuantity",
      "type": "error"
    },
    {
      "inputs": [],
      "name": "OwnerQueryForNonexistentToken",
      "type": "error"
    },
    {
      "inputs": [],
      "name": "OwnershipNotInitializedForExtraData",
      "type": "error"
    },
    {
      "inputs": [],
      "name": "TransferCallerNotOwnerNorApproved",
      "type": "error"
    },
    {
      "inputs": [],
      "name": "TransferFromIncorrectOwner",
      "type": "error"
    },
    {
      "inputs": [],
      "name": "TransferToNonERC721ReceiverImplementer",
      "type": "error"
    },
    {
      "inputs": [],
      "name": "TransferToZeroAddress",
      "type": "error"
    },
    {
      "inputs": [],
      "name": "URIQueryForNonexistentToken",
      "type": "error"
    },
    {
      "anonymous": false,
      "inputs": [
        {
          "indexed": true,
          "internalType": "address",
          "name": "owner",
          "type": "address"
        },
        {
          "indexed": true,
          "internalType": "address",
          "name": "approved",
          "type": "address"
        },
        {
          "indexed": true,
          "internalType": "uint256",
          "name": "tokenId",
          "type": "uint256"
        }
      ],
      "name": "Approval",
      "type": "event"
    },
    {
      "anonymous": false,
      "inputs": [
        {
          "indexed": true,
          "internalType": "address",
          "name": "owner",
          "type": "address"
        },
        {
          "indexed": true,
          "internalType": "address",
          "name": "operator",
          "type": "address"
        },
        {
          "indexed": false,
          "internalType": "bool",
          "name": "approved",
          "type": "bool"
        }
      ],
      "name": "ApprovalForAll",
      "type": "event"
    },
    {
      "anonymous": false,
      "inputs": [
        {
          "indexed": true,
          "internalType": "uint256",
          "name": "fromTokenId",
          "type": "uint256"
        },
        {
          "indexed": false,
          "internalType": "uint256",
          "name": "toTokenId",
          "type": "uint256"
        },
        {
          "indexed": true,
          "internalType": "address",
          "name": "from",
          "type": "address"
        },
        {
          "indexed": true,
          "internalType": "address",
          "name": "to",
          "type": "address"
        }
      ],
      "name": "ConsecutiveTransfer",
      "type": "event"
    },
    {
      "anonymous": false,
      "inputs": [
        {
          "indexed": true,
          "internalType": "address",
          "name": "previousOwner",
          "type": "address"
        },
        {
          "indexed": true,
          "internalType": "address",
          "name": "newOwner",
          "type": "address"
        }
      ],
      "name": "OwnershipTransferred",
      "type": "event"
    },
    {
      "anonymous": false,
      "inputs": [
        {
          "indexed": true,
          "internalType": "address",
          "name": "from",
          "type": "address"
        },
        {
          "indexed": true,
          "internalType": "address",
          "name": "to",
          "type": "address"
        },
        {
          "indexed": true,
          "internalType": "uint256",
          "name": "tokenId",
          "type": "uint256"
        }
      ],
      "name": "Transfer",
      "type": "event"
    },
    {
      "anonymous": false,
      "inputs": [
        {
          "indexed": false,
          "internalType": "address",
          "name": "minter",
          "type": "address"
        },
        {
          "indexed": false,
          "internalType": "uint256",
          "name": "amount",
          "type": "uint256"
        }
      ],
      "name": "WhitelistMinted",
      "type": "event"
    },
    {
      "anonymous": false,
      "inputs": [],
      "name": "amountReleased",
      "type": "event"
    },
    {
      "anonymous": false,
      "inputs": [
        {
          "indexed": false,
          "internalType": "address",
          "name": "minter",
          "type": "address"
        },
        {
          "indexed": false,
          "internalType": "uint256",
          "name": "amount",
          "type": "uint256"
        }
      ],
      "name": "minted",
      "type": "event"
    },
    {
      "inputs": [
        {
          "internalType": "address",
          "name": "to",
          "type": "address"
        },
        {
          "internalType": "uint256",
          "name": "tokenId",
          "type": "uint256"
        }
      ],
      "name": "approve",
      "outputs": [],
      "stateMutability": "nonpayable",
      "type": "function"
    },
    {
      "inputs": [
        {
          "internalType": "address",
          "name": "owner",
          "type": "address"
        }
      ],
      "name": "balanceOf",
      "outputs": [
        {
          "internalType": "uint256",
          "name": "",
          "type": "uint256"
        }
      ],
      "stateMutability": "view",
      "type": "function",
      "constant": true
    },
    {
      "inputs": [],
      "name": "cost",
      "outputs": [
        {
          "internalType": "uint256",
          "name": "",
          "type": "uint256"
        }
      ],
      "stateMutability": "view",
      "type": "function",
      "constant": true
    },
    {
      "inputs": [
        {
          "internalType": "uint256",
          "name": "tokenId",
          "type": "uint256"
        }
      ],
      "name": "getApproved",
      "outputs": [
        {
          "internalType": "address",
          "name": "",
          "type": "address"
        }
      ],
      "stateMutability": "view",
      "type": "function",
      "constant": true
    },
    {
      "inputs": [
        {
          "internalType": "address",
          "name": "owner",
          "type": "address"
        },
        {
          "internalType": "address",
          "name": "operator",
          "type": "address"
        }
      ],
      "name": "isApprovedForAll",
      "outputs": [
        {
          "internalType": "bool",
          "name": "",
          "type": "bool"
        }
      ],
      "stateMutability": "view",
      "type": "function",
      "constant": true
    },
    {
      "inputs": [],
      "name": "maxMintAmountPerTx",
      "outputs": [
        {
          "internalType": "uint256",
          "name": "",
          "type": "uint256"
        }
      ],
      "stateMutability": "view",
      "type": "function",
      "constant": true
    },
    {
      "inputs": [],
      "name": "maxSupply",
      "outputs": [
        {
          "internalType": "uint256",
          "name": "",
          "type": "uint256"
        }
      ],
      "stateMutability": "view",
      "type": "function",
      "constant": true
    },
    {
      "inputs": [],
      "name": "merkleRoot",
      "outputs": [
        {
          "internalType": "bytes32",
          "name": "",
          "type": "bytes32"
        }
      ],
      "stateMutability": "view",
      "type": "function",
      "constant": true
    },
    {
      "inputs": [],
      "name": "name",
      "outputs": [
        {
          "internalType": "string",
          "name": "",
          "type": "string"
        }
      ],
      "stateMutability": "view",
      "type": "function",
      "constant": true
    },
    {
      "inputs": [],
      "name": "owner",
      "outputs": [
        {
          "internalType": "address",
          "name": "",
          "type": "address"
        }
      ],
      "stateMutability": "view",
      "type": "function",
      "constant": true
    },
    {
      "inputs": [
        {
          "internalType": "uint256",
          "name": "tokenId",
          "type": "uint256"
        }
      ],
      "name": "ownerOf",
      "outputs": [
        {
          "internalType": "address",
          "name": "",
          "type": "address"
        }
      ],
      "stateMutability": "view",
      "type": "function",
      "constant": true
    },
    {
      "inputs": [],
      "name": "paused",
      "outputs": [
        {
          "internalType": "bool",
          "name": "",
          "type": "bool"
        }
      ],
      "stateMutability": "view",
      "type": "function",
      "constant": true
    },
    {
      "inputs": [
        {
          "internalType": "uint256",
          "name": "",
          "type": "uint256"
        }
      ],
      "name": "payees",
      "outputs": [
        {
          "internalType": "address",
          "name": "",
          "type": "address"
        }
      ],
      "stateMutability": "view",
      "type": "function",
      "constant": true
    },
    {
      "inputs": [],
      "name": "payments",
      "outputs": [
        {
          "internalType": "address payable",
          "name": "",
          "type": "address"
        }
      ],
      "stateMutability": "view",
      "type": "function",
      "constant": true
    },
    {
      "inputs": [],
      "name": "renounceOwnership",
      "outputs": [],
      "stateMutability": "nonpayable",
      "type": "function"
    },
    {
      "inputs": [
        {
          "internalType": "address",
          "name": "from",
          "type": "address"
        },
        {
          "internalType": "address",
          "name": "to",
          "type": "address"
        },
        {
          "internalType": "uint256",
          "name": "tokenId",
          "type": "uint256"
        }
      ],
      "name": "safeTransferFrom",
      "outputs": [],
      "stateMutability": "nonpayable",
      "type": "function"
    },
    {
      "inputs": [
        {
          "internalType": "address",
          "name": "from",
          "type": "address"
        },
        {
          "internalType": "address",
          "name": "to",
          "type": "address"
        },
        {
          "internalType": "uint256",
          "name": "tokenId",
          "type": "uint256"
        },
        {
          "internalType": "bytes",
          "name": "_data",
          "type": "bytes"
        }
      ],
      "name": "safeTransferFrom",
      "outputs": [],
      "stateMutability": "nonpayable",
      "type": "function"
    },
    {
      "inputs": [
        {
          "internalType": "address",
          "name": "operator",
          "type": "address"
        },
        {
          "internalType": "bool",
          "name": "approved",
          "type": "bool"
        }
      ],
      "name": "setApprovalForAll",
      "outputs": [],
      "stateMutability": "nonpayable",
      "type": "function"
    },
    {
      "inputs": [
        {
          "internalType": "bytes4",
          "name": "interfaceId",
          "type": "bytes4"
        }
      ],
      "name": "supportsInterface",
      "outputs": [
        {
          "internalType": "bool",
          "name": "",
          "type": "bool"
        }
      ],
      "stateMutability": "view",
      "type": "function",
      "constant": true
    },
    {
      "inputs": [],
      "name": "symbol",
      "outputs": [
        {
          "internalType": "string",
          "name": "",
          "type": "string"
        }
      ],
      "stateMutability": "view",
      "type": "function",
      "constant": true
    },
    {
      "inputs": [],
      "name": "totalSupply",
      "outputs": [
        {
          "internalType": "uint256",
          "name": "",
          "type": "uint256"
        }
      ],
      "stateMutability": "view",
      "type": "function",
      "constant": true
    },
    {
      "inputs": [
        {
          "internalType": "address",
          "name": "from",
          "type": "address"
        },
        {
          "internalType": "address",
          "name": "to",
          "type": "address"
        },
        {
          "internalType": "uint256",
          "name": "tokenId",
          "type": "uint256"
        }
      ],
      "name": "transferFrom",
      "outputs": [],
      "stateMutability": "nonpayable",
      "type": "function"
    },
    {
      "inputs": [
        {
          "internalType": "address",
          "name": "newOwner",
          "type": "address"
        }
      ],
      "name": "transferOwnership",
      "outputs": [],
      "stateMutability": "nonpayable",
      "type": "function"
    },
    {
      "inputs": [],
      "name": "uriPrefix",
      "outputs": [
        {
          "internalType": "string",
          "name": "",
          "type": "string"
        }
      ],
      "stateMutability": "view",
      "type": "function",
      "constant": true
    },
    {
      "inputs": [],
      "name": "uriSuffix",
      "outputs": [
        {
          "internalType": "string",
          "name": "",
          "type": "string"
        }
      ],
      "stateMutability": "view",
      "type": "function",
      "constant": true
    },
    {
      "inputs": [],
      "name": "whitelistMintEnabled",
      "outputs": [
        {
          "internalType": "bool",
          "name": "",
          "type": "bool"
        }
      ],
      "stateMutability": "view",
      "type": "function",
      "constant": true
    },
    {
      "inputs": [],
      "name": "wlMaxSupply",
      "outputs": [
        {
          "internalType": "uint256",
          "name": "",
          "type": "uint256"
        }
      ],
      "stateMutability": "view",
      "type": "function",
      "constant": true
    },
    {
      "inputs": [],
      "name": "getMinted",
      "outputs": [
        {
          "internalType": "uint256",
          "name": "",
          "type": "uint256"
        }
      ],
      "stateMutability": "view",
      "type": "function",
      "constant": true
    },
    {
      "inputs": [
        {
          "internalType": "uint256",
          "name": "_cost",
          "type": "uint256"
        }
      ],
      "name": "setCost",
      "outputs": [],
      "stateMutability": "nonpayable",
      "type": "function"
    },
    {
      "inputs": [],
      "name": "setPublicCost",
      "outputs": [],
      "stateMutability": "nonpayable",
      "type": "function"
    },
    {
      "inputs": [],
      "name": "setWlCost",
      "outputs": [],
      "stateMutability": "nonpayable",
      "type": "function"
    },
    {
      "inputs": [
        {
          "internalType": "uint256",
          "name": "_maxMintAmountPerTx",
          "type": "uint256"
        }
      ],
      "name": "setMaxMintAmountPerTx",
      "outputs": [],
      "stateMutability": "nonpayable",
      "type": "function"
    },
    {
      "inputs": [
        {
          "internalType": "bytes32[]",
          "name": "_merkleProof",
          "type": "bytes32[]"
        }
      ],
      "name": "whitelistVerify",
      "outputs": [
        {
          "internalType": "bool",
          "name": "",
          "type": "bool"
        }
      ],
      "stateMutability": "view",
      "type": "function",
      "constant": true
    },
    {
      "inputs": [
        {
          "internalType": "uint256",
          "name": "_mintAmount",
          "type": "uint256"
        },
        {
          "internalType": "bytes32[]",
          "name": "_merkleProof",
          "type": "bytes32[]"
        }
      ],
      "name": "whitelistMint",
      "outputs": [],
      "stateMutability": "payable",
      "type": "function",
      "payable": true
    },
    {
      "inputs": [
        {
          "internalType": "uint256",
          "name": "_mintAmount",
          "type": "uint256"
        }
      ],
      "name": "mint",
      "outputs": [],
      "stateMutability": "payable",
      "type": "function",
      "payable": true
    },
    {
      "inputs": [
        {
          "internalType": "uint256",
          "name": "_mintAmount",
          "type": "uint256"
        },
        {
          "internalType": "address",
          "name": "_receiver",
          "type": "address"
        }
      ],
      "name": "mintForAddress",
      "outputs": [],
      "stateMutability": "nonpayable",
      "type": "function"
    },
    {
      "inputs": [
        {
          "internalType": "address",
          "name": "newOwner",
          "type": "address"
        }
      ],
      "name": "transferOwner",
      "outputs": [],
      "stateMutability": "nonpayable",
      "type": "function"
    },
    {
      "inputs": [
        {
          "internalType": "uint256",
          "name": "_tokenId",
          "type": "uint256"
        }
      ],
      "name": "tokenURI",
      "outputs": [
        {
          "internalType": "string",
          "name": "",
          "type": "string"
        }
      ],
      "stateMutability": "view",
      "type": "function",
      "constant": true
    },
    {
      "inputs": [
        {
          "internalType": "string",
          "name": "_uriPrefix",
          "type": "string"
        }
      ],
      "name": "setUriPrefix",
      "outputs": [],
      "stateMutability": "nonpayable",
      "type": "function"
    },
    {
      "inputs": [
        {
          "internalType": "string",
          "name": "_uriSuffix",
          "type": "string"
        }
      ],
      "name": "setUriSuffix",
      "outputs": [],
      "stateMutability": "nonpayable",
      "type": "function"
    },
    {
      "inputs": [
        {
          "internalType": "bool",
          "name": "_state",
          "type": "bool"
        }
      ],
      "name": "setPaused",
      "outputs": [],
      "stateMutability": "nonpayable",
      "type": "function"
    },
    {
      "inputs": [
        {
          "internalType": "bytes32",
          "name": "_merkleRoot",
          "type": "bytes32"
        }
      ],
      "name": "setMerkleRoot",
      "outputs": [],
      "stateMutability": "nonpayable",
      "type": "function"
    },
    {
      "inputs": [
        {
          "internalType": "bool",
          "name": "_state",
          "type": "bool"
        }
      ],
      "name": "setWhitelistMintEnabled",
      "outputs": [],
      "stateMutability": "nonpayable",
      "type": "function"
    },
    {
      "inputs": [
        {
          "internalType": "uint256",
          "name": "_maxSupply",
          "type": "uint256"
        }
      ],
      "name": "setMaxSupply",
      "outputs": [],
      "stateMutability": "nonpayable",
      "type": "function"
    },
    {
      "inputs": [
        {
          "internalType": "uint256",
          "name": "_wlMaxSupply",
          "type": "uint256"
        }
      ],
      "name": "setWLMaxSupply",
      "outputs": [],
      "stateMutability": "nonpayable",
      "type": "function"
    },
    {
      "inputs": [],
      "name": "getMaxSupply",
      "outputs": [
        {
          "internalType": "uint256",
          "name": "",
          "type": "uint256"
        }
      ],
      "stateMutability": "view",
      "type": "function",
      "constant": true
    },
    {
      "inputs": [],
      "name": "getWLMaxSupply",
      "outputs": [
        {
          "internalType": "uint256",
          "name": "",
          "type": "uint256"
        }
      ],
      "stateMutability": "view",
      "type": "function",
      "constant": true
    },
    {
      "inputs": [],
      "name": "currentBalance",
      "outputs": [
        {
          "internalType": "uint256",
          "name": "",
          "type": "uint256"
        }
      ],
      "stateMutability": "view",
      "type": "function",
      "constant": true
    },
    {
      "inputs": [],
      "name": "getTotalBalance",
      "outputs": [
        {
          "internalType": "uint256",
          "name": "",
          "type": "uint256"
        }
      ],
      "stateMutability": "view",
      "type": "function",
      "constant": true
    },
    {
      "inputs": [],
      "name": "withdraw",
      "outputs": [],
      "stateMutability": "nonpayable",
      "type": "function"
    }
  ],
  "bytecode": "0x60806040526001600f60006101000a81548160ff0219169083151502179055506000600f60016101000a81548160ff02191690831515021790555060405180602001604052806000815250601090805190602001906200006192919062000394565b506040518060400160405280600581526020017f2e6a736f6e00000000000000000000000000000000000000000000000000000081525060119080519060200190620000af92919062000394565b50348015620000bd57600080fd5b5060405162004bea38038062004bea8339818101604052810190620000e3919062000615565b86868160029080519060200190620000fd92919062000394565b5080600390805190602001906200011692919062000394565b5062000127620001ec60201b60201c565b60008190555050506200014f62000143620001f160201b60201c565b620001f960201b60201c565b600160098190555084600c8190555083600d819055506200017683620002bf60201b60201c565b80601390805190602001906200018e92919062000425565b5081601260006101000a81548173ffffffffffffffffffffffffffffffffffffffff021916908373ffffffffffffffffffffffffffffffffffffffff1602179055506701cdda4faccd0000600b8190555050505050505050620009a1565b600090565b600033905090565b6000600860009054906101000a900473ffffffffffffffffffffffffffffffffffffffff16905081600860006101000a81548173ffffffffffffffffffffffffffffffffffffffff021916908373ffffffffffffffffffffffffffffffffffffffff1602179055508173ffffffffffffffffffffffffffffffffffffffff168173ffffffffffffffffffffffffffffffffffffffff167f8be0079c531659141344cd1fd0a4f28419497f9722a3daafe3b4186f6b6457e060405160405180910390a35050565b620002cf620002d960201b60201c565b80600e8190555050565b620002e9620001f160201b60201c565b73ffffffffffffffffffffffffffffffffffffffff166200030f6200036a60201b60201c565b73ffffffffffffffffffffffffffffffffffffffff161462000368576040517f08c379a00000000000000000000000000000000000000000000000000000000081526004016200035f9062000734565b60405180910390fd5b565b6000600860009054906101000a900473ffffffffffffffffffffffffffffffffffffffff16905090565b828054620003a29062000869565b90600052602060002090601f016020900481019282620003c6576000855562000412565b82601f10620003e157805160ff191683800117855562000412565b8280016001018555821562000412579182015b8281111562000411578251825591602001919060010190620003f4565b5b509050620004219190620004b4565b5090565b828054828255906000526020600020908101928215620004a1579160200282015b82811115620004a05782518260006101000a81548173ffffffffffffffffffffffffffffffffffffffff021916908373ffffffffffffffffffffffffffffffffffffffff1602179055509160200191906001019062000446565b5b509050620004b09190620004b4565b5090565b5b80821115620004cf576000816000905550600101620004b5565b5090565b6000620004ea620004e4846200077f565b62000756565b905080838252602082019050828560208602820111156200050a57600080fd5b60005b858110156200053e57816200052388826200058d565b8452602084019350602083019250506001810190506200050d565b5050509392505050565b60006200055f6200055984620007ae565b62000756565b9050828152602081018484840111156200057857600080fd5b6200058584828562000833565b509392505050565b6000815190506200059e816200096d565b92915050565b600082601f830112620005b657600080fd5b8151620005c8848260208601620004d3565b91505092915050565b600082601f830112620005e357600080fd5b8151620005f584826020860162000548565b91505092915050565b6000815190506200060f8162000987565b92915050565b600080600080600080600060e0888a0312156200063157600080fd5b600088015167ffffffffffffffff8111156200064c57600080fd5b6200065a8a828b01620005d1565b975050602088015167ffffffffffffffff8111156200067857600080fd5b620006868a828b01620005d1565b9650506040620006998a828b01620005fe565b9550506060620006ac8a828b01620005fe565b9450506080620006bf8a828b01620005fe565b93505060a0620006d28a828b016200058d565b92505060c088015167ffffffffffffffff811115620006f057600080fd5b620006fe8a828b01620005a4565b91505092959891949750929550565b60006200071c602083620007e4565b9150620007298262000944565b602082019050919050565b600060208201905081810360008301526200074f816200070d565b9050919050565b60006200076262000775565b90506200077082826200089f565b919050565b6000604051905090565b600067ffffffffffffffff8211156200079d576200079c62000904565b5b602082029050602081019050919050565b600067ffffffffffffffff821115620007cc57620007cb62000904565b5b620007d78262000933565b9050602081019050919050565b600082825260208201905092915050565b6000620008028262000809565b9050919050565b600073ffffffffffffffffffffffffffffffffffffffff82169050919050565b6000819050919050565b60005b838110156200085357808201518184015260208101905062000836565b8381111562000863576000848401525b50505050565b600060028204905060018216806200088257607f821691505b60208210811415620008995762000898620008d5565b5b50919050565b620008aa8262000933565b810181811067ffffffffffffffff82111715620008cc57620008cb62000904565b5b80604052505050565b7f4e487b7100000000000000000000000000000000000000000000000000000000600052602260045260246000fd5b7f4e487b7100000000000000000000000000000000000000000000000000000000600052604160045260246000fd5b6000601f19601f8301169050919050565b7f4f776e61626c653a2063616c6c6572206973206e6f7420746865206f776e6572600082015250565b6200097881620007f5565b81146200098457600080fd5b50565b620009928162000829565b81146200099e57600080fd5b50565b61423980620009b16000396000f3fe6080604052600436106102c95760003560e01c80636f8b44b011610175578063a6d23e10116100dc578063c87b56dd11610095578063d5abeb011161006f578063d5abeb0114610a7a578063e985e9c514610aa5578063efbd73f414610ae2578063f2fde38b14610b0b576102c9565b8063c87b56dd146109f6578063ce845d1d14610a33578063d2cab05614610a5e576102c9565b8063a6d23e10146108fc578063ac72200d14610927578063b071401b14610952578063b53cff0f1461097b578063b767a098146109a4578063b88d4fde146109cd576102c9565b80637ec4a6591161012e5780637ec4a6591461080d5780638da5cb5b1461083657806394354fd01461086157806395d89b411461088c578063a0712d68146108b7578063a22cb465146108d3576102c9565b80636f8b44b01461073957806370a0823114610762578063715018a61461079f57806377c30767146107b657806379e27d78146107cd5780637cb64759146107e4576102c9565b806334fbf724116102345780634fb2e45d116101ed57806362b99ad4116101c757806362b99ad41461066957806363037b0c146106945780636352211e146106d15780636caede3d1461070e576102c9565b80634fb2e45d146105ea5780635503a0e8146106135780635c975abb1461063e576102c9565b806334fbf724146104ee57806337a30a4d1461052b5780633ccfd60b1461055657806342842e0e1461056d57806344a0d68a146105965780634c0f38c2146105bf576102c9565b806316ba10e01161028657806316ba10e0146103f257806316c38b3c1461041b57806318160ddd1461044457806323b872dd1461046f57806323b87eed146104985780632eb4a7ab146104c3576102c9565b806301ffc9a7146102ce57806306fdde031461030b578063081812fc14610336578063095ea7b31461037357806312b583491461039c57806313faede6146103c7575b600080fd5b3480156102da57600080fd5b506102f560048036038101906102f091906131eb565b610b34565b60405161030291906137d8565b60405180910390f35b34801561031757600080fd5b50610320610bc6565b60405161032d919061380e565b60405180910390f35b34801561034257600080fd5b5061035d6004803603810190610358919061327e565b610c58565b60405161036a919061372d565b60405180910390f35b34801561037f57600080fd5b5061039a60048036038101906103959190613118565b610cd4565b005b3480156103a857600080fd5b506103b1610e15565b6040516103be91906139f0565b60405180910390f35b3480156103d357600080fd5b506103dc610e1f565b6040516103e991906139f0565b60405180910390f35b3480156103fe57600080fd5b506104196004803603810190610414919061323d565b610e25565b005b34801561042757600080fd5b50610442600480360381019061043d9190613199565b610e47565b005b34801561045057600080fd5b50610459610e6c565b60405161046691906139f0565b60405180910390f35b34801561047b57600080fd5b5061049660048036038101906104919190613012565b610e83565b005b3480156104a457600080fd5b506104ad6111a8565b6040516104ba91906139f0565b60405180910390f35b3480156104cf57600080fd5b506104d86111ae565b6040516104e591906137f3565b60405180910390f35b3480156104fa57600080fd5b5061051560048036038101906105109190613154565b6111b4565b60405161052291906137d8565b60405180910390f35b34801561053757600080fd5b506105406112ad565b60405161054d91906139f0565b60405180910390f35b34801561056257600080fd5b5061056b6112b7565b005b34801561057957600080fd5b50610594600480360381019061058f9190613012565b61151c565b005b3480156105a257600080fd5b506105bd60048036038101906105b8919061327e565b61153c565b005b3480156105cb57600080fd5b506105d461154e565b6040516105e191906139f0565b60405180910390f35b3480156105f657600080fd5b50610611600480360381019061060c9190612fad565b611558565b005b34801561061f57600080fd5b5061062861156c565b604051610635919061380e565b60405180910390f35b34801561064a57600080fd5b506106536115fa565b60405161066091906137d8565b60405180910390f35b34801561067557600080fd5b5061067e61160d565b60405161068b919061380e565b60405180910390f35b3480156106a057600080fd5b506106bb60048036038101906106b6919061327e565b61169b565b6040516106c8919061372d565b60405180910390f35b3480156106dd57600080fd5b506106f860048036038101906106f3919061327e565b6116da565b604051610705919061372d565b60405180910390f35b34801561071a57600080fd5b506107236116ec565b60405161073091906137d8565b60405180910390f35b34801561074557600080fd5b50610760600480360381019061075b919061327e565b6116ff565b005b34801561076e57600080fd5b5061078960048036038101906107849190612fad565b611711565b60405161079691906139f0565b60405180910390f35b3480156107ab57600080fd5b506107b46117ca565b005b3480156107c257600080fd5b506107cb6117de565b005b3480156107d957600080fd5b506107e26117f7565b005b3480156107f057600080fd5b5061080b600480360381019061080691906131c2565b611810565b005b34801561081957600080fd5b50610834600480360381019061082f919061323d565b611822565b005b34801561084257600080fd5b5061084b611844565b604051610858919061372d565b60405180910390f35b34801561086d57600080fd5b5061087661186e565b60405161088391906139f0565b60405180910390f35b34801561089857600080fd5b506108a1611874565b6040516108ae919061380e565b60405180910390f35b6108d160048036038101906108cc919061327e565b611906565b005b3480156108df57600080fd5b506108fa60048036038101906108f591906130dc565b611b2c565b005b34801561090857600080fd5b50610911611ca4565b60405161091e9190613748565b60405180910390f35b34801561093357600080fd5b5061093c611cca565b60405161094991906139f0565b60405180910390f35b34801561095e57600080fd5b506109796004803603810190610974919061327e565b611cd9565b005b34801561098757600080fd5b506109a2600480360381019061099d919061327e565b611ceb565b005b3480156109b057600080fd5b506109cb60048036038101906109c69190613199565b611cfd565b005b3480156109d957600080fd5b506109f460048036038101906109ef9190613061565b611d22565b005b348015610a0257600080fd5b50610a1d6004803603810190610a18919061327e565b611d95565b604051610a2a919061380e565b60405180910390f35b348015610a3f57600080fd5b50610a48611e3f565b604051610a5591906139f0565b60405180910390f35b610a786004803603810190610a7391906132e3565b611e47565b005b348015610a8657600080fd5b50610a8f61212e565b604051610a9c91906139f0565b60405180910390f35b348015610ab157600080fd5b50610acc6004803603810190610ac79190612fd6565b612134565b604051610ad991906137d8565b60405180910390f35b348015610aee57600080fd5b50610b096004803603810190610b0491906132a7565b6121c8565b005b348015610b1757600080fd5b50610b326004803603810190610b2d9190612fad565b612287565b005b60006301ffc9a760e01b827bffffffffffffffffffffffffffffffffffffffffffffffffffffffff19161480610b8f57506380ac58cd60e01b827bffffffffffffffffffffffffffffffffffffffffffffffffffffffff1916145b80610bbf5750635b5e139f60e01b827bffffffffffffffffffffffffffffffffffffffffffffffffffffffff1916145b9050919050565b606060028054610bd590613cdc565b80601f0160208091040260200160405190810160405280929190818152602001828054610c0190613cdc565b8015610c4e5780601f10610c2357610100808354040283529160200191610c4e565b820191906000526020600020905b815481529060010190602001808311610c3157829003601f168201915b5050505050905090565b6000610c638261230b565b610c99576040517fcf4700e400000000000000000000000000000000000000000000000000000000815260040160405180910390fd5b6006600083815260200190815260200160002060009054906101000a900473ffffffffffffffffffffffffffffffffffffffff169050919050565b6000610cdf826116da565b90508073ffffffffffffffffffffffffffffffffffffffff16610d0061236a565b73ffffffffffffffffffffffffffffffffffffffff1614610d6357610d2c81610d2761236a565b612134565b610d62576040517fcfb3b94200000000000000000000000000000000000000000000000000000000815260040160405180910390fd5b5b826006600084815260200190815260200160002060006101000a81548173ffffffffffffffffffffffffffffffffffffffff021916908373ffffffffffffffffffffffffffffffffffffffff160217905550818373ffffffffffffffffffffffffffffffffffffffff168273ffffffffffffffffffffffffffffffffffffffff167f8c5be1e5ebec7d5bd14f71427d1e84f3dd0314c0f7b2291e5b200ac8c7c3b92560405160405180910390a4505050565b6000601454905090565b600b5481565b610e2d612372565b8060119080519060200190610e43929190612d72565b5050565b610e4f612372565b80600f60006101000a81548160ff02191690831515021790555050565b6000610e766123f0565b6001546000540303905090565b6000610e8e826123f5565b90508373ffffffffffffffffffffffffffffffffffffffff168173ffffffffffffffffffffffffffffffffffffffff1614610ef5576040517fa114810000000000000000000000000000000000000000000000000000000000815260040160405180910390fd5b600080610f01846124c3565b91509150610f178187610f1261236a565b6124e5565b610f6357610f2c86610f2761236a565b612134565b610f62576040517f59c896be00000000000000000000000000000000000000000000000000000000815260040160405180910390fd5b5b600073ffffffffffffffffffffffffffffffffffffffff168573ffffffffffffffffffffffffffffffffffffffff161415610fca576040517fea553b3400000000000000000000000000000000000000000000000000000000815260040160405180910390fd5b610fd78686866001612529565b8015610fe257600082555b600560008773ffffffffffffffffffffffffffffffffffffffff1673ffffffffffffffffffffffffffffffffffffffff168152602001908152602001600020600081546001900391905081905550600560008673ffffffffffffffffffffffffffffffffffffffff1673ffffffffffffffffffffffffffffffffffffffff16815260200190815260200160002060008154600101919050819055506110b08561108c88888761252f565b7c020000000000000000000000000000000000000000000000000000000017612557565b600460008681526020019081526020016000208190555060007c020000000000000000000000000000000000000000000000000000000084161415611138576000600185019050600060046000838152602001908152602001600020541415611136576000548114611135578360046000838152602001908152602001600020819055505b5b505b838573ffffffffffffffffffffffffffffffffffffffff168773ffffffffffffffffffffffffffffffffffffffff167fddf252ad1be2c89b69c2b068fc378daa952ba7f163c4a11628f55a4df523b3ef60405160405180910390a46111a08686866001612582565b505050505050565b600d5481565b600a5481565b60003373ffffffffffffffffffffffffffffffffffffffff163273ffffffffffffffffffffffffffffffffffffffff1614611224576040517f08c379a000000000000000000000000000000000000000000000000000000000815260040161121b906138d0565b60405180910390fd5b600061122e612588565b60405160200161123e91906136cc565b6040516020818303038152906040528051906020012090506112a4848480806020026020016040519081016040528093929190818152602001838360200280828437600081840152601f19601f82011690508083019250505050505050600a5483612590565b91505092915050565b6000600d54905090565b336000805b601380549050811015611379578273ffffffffffffffffffffffffffffffffffffffff166013828154811061131a577f4e487b7100000000000000000000000000000000000000000000000000000000600052603260045260246000fd5b9060005260206000200160009054906101000a900473ffffffffffffffffffffffffffffffffffffffff1673ffffffffffffffffffffffffffffffffffffffff16141561136657600191505b808061137190613d3f565b9150506112bc565b50806113ba576040517f08c379a00000000000000000000000000000000000000000000000000000000081526004016113b190613950565b60405180910390fd5b60026009541415611400576040517f08c379a00000000000000000000000000000000000000000000000000000000081526004016113f7906139b0565b60405180910390fd5b60026009819055506000471161144b576040517f08c379a000000000000000000000000000000000000000000000000000000000815260040161144290613830565b60405180910390fd5b6000601260009054906101000a900473ffffffffffffffffffffffffffffffffffffffff1673ffffffffffffffffffffffffffffffffffffffff164760405161149390613718565b60006040518083038185875af1925050503d80600081146114d0576040519150601f19603f3d011682016040523d82523d6000602084013e6114d5565b606091505b50509050806114e357600080fd5b7fdc7454dd8274035c58b00ecc8f69fcf7b164f037f05811c3e23059b491cd0dc160405160405180910390a15060016009819055505050565b61153783838360405180602001604052806000815250611d22565b505050565b611544612372565b80600b8190555050565b6000600c54905090565b611560612372565b61156981612287565b50565b6011805461157990613cdc565b80601f01602080910402602001604051908101604052809291908181526020018280546115a590613cdc565b80156115f25780601f106115c7576101008083540402835291602001916115f2565b820191906000526020600020905b8154815290600101906020018083116115d557829003601f168201915b505050505081565b600f60009054906101000a900460ff1681565b6010805461161a90613cdc565b80601f016020809104026020016040519081016040528092919081815260200182805461164690613cdc565b80156116935780601f1061166857610100808354040283529160200191611693565b820191906000526020600020905b81548152906001019060200180831161167657829003601f168201915b505050505081565b601381815481106116ab57600080fd5b906000526020600020016000915054906101000a900473ffffffffffffffffffffffffffffffffffffffff1681565b60006116e5826123f5565b9050919050565b600f60019054906101000a900460ff1681565b611707612372565b80600c8190555050565b60008073ffffffffffffffffffffffffffffffffffffffff168273ffffffffffffffffffffffffffffffffffffffff161415611779576040517f8f4eb60400000000000000000000000000000000000000000000000000000000815260040160405180910390fd5b67ffffffffffffffff600560008473ffffffffffffffffffffffffffffffffffffffff1673ffffffffffffffffffffffffffffffffffffffff16815260200190815260200160002054169050919050565b6117d2612372565b6117dc60006125a7565b565b6117e6612372565b6701cdda4faccd0000600b81905550565b6117ff612372565b670186cc6acd4b0000600b81905550565b611818612372565b80600a8190555050565b61182a612372565b8060109080519060200190611840929190612d72565b5050565b6000600860009054906101000a900473ffffffffffffffffffffffffffffffffffffffff16905090565b600e5481565b60606003805461188390613cdc565b80601f01602080910402602001604051908101604052809291908181526020018280546118af90613cdc565b80156118fc5780601f106118d1576101008083540402835291602001916118fc565b820191906000526020600020905b8154815290600101906020018083116118df57829003601f168201915b5050505050905090565b806000811180156119195750600e548111155b611958576040517f08c379a000000000000000000000000000000000000000000000000000000000815260040161194f906138b0565b60405180910390fd5b600c5481611964610e6c565b61196e9190613af5565b106119ae576040517f08c379a00000000000000000000000000000000000000000000000000000000081526004016119a590613990565b60405180910390fd5b8180600b546119bd9190613b7c565b3410156119ff576040517f08c379a00000000000000000000000000000000000000000000000000000000081526004016119f6906139d0565b60405180910390fd5b3373ffffffffffffffffffffffffffffffffffffffff163273ffffffffffffffffffffffffffffffffffffffff1614611a6d576040517f08c379a0000000000000000000000000000000000000000000000000000000008152600401611a64906138d0565b60405180910390fd5b600f60009054906101000a900460ff1615611abd576040517f08c379a0000000000000000000000000000000000000000000000000000000008152600401611ab490613930565b60405180910390fd5b3460146000828254611acf9190613af5565b92505081905550611ae7611ae1612588565b8461266d565b7fb7656808f0e04b4af7a20f7ef1caa7669f0d781f1ca4cba31a3ba467880766c9611b10612588565b84604051611b1f9291906137af565b60405180910390a1505050565b611b3461236a565b73ffffffffffffffffffffffffffffffffffffffff168273ffffffffffffffffffffffffffffffffffffffff161415611b99576040517fb06307db00000000000000000000000000000000000000000000000000000000815260040160405180910390fd5b8060076000611ba661236a565b73ffffffffffffffffffffffffffffffffffffffff1673ffffffffffffffffffffffffffffffffffffffff16815260200190815260200160002060008473ffffffffffffffffffffffffffffffffffffffff1673ffffffffffffffffffffffffffffffffffffffff16815260200190815260200160002060006101000a81548160ff0219169083151502179055508173ffffffffffffffffffffffffffffffffffffffff16611c5361236a565b73ffffffffffffffffffffffffffffffffffffffff167f17307eab39ab6107e8899845ad3d59bd9653f200f220920489ca2b5937696c3183604051611c9891906137d8565b60405180910390a35050565b601260009054906101000a900473ffffffffffffffffffffffffffffffffffffffff1681565b6000611cd4610e6c565b905090565b611ce1612372565b80600e8190555050565b611cf3612372565b80600d8190555050565b611d05612372565b80600f60016101000a81548160ff02191690831515021790555050565b611d2d848484610e83565b60008373ffffffffffffffffffffffffffffffffffffffff163b14611d8f57611d588484848461268b565b611d8e576040517fd1a57ed600000000000000000000000000000000000000000000000000000000815260040160405180910390fd5b5b50505050565b6060611da08261230b565b611ddf576040517f08c379a0000000000000000000000000000000000000000000000000000000008152600401611dd690613970565b60405180910390fd5b6000611de96127eb565b90506000815111611e095760405180602001604052806000815250611e37565b80611e138461287d565b6011604051602001611e27939291906136e7565b6040516020818303038152906040525b915050919050565b600047905090565b82600081118015611e5a5750600e548111155b611e99576040517f08c379a0000000000000000000000000000000000000000000000000000000008152600401611e90906138b0565b60405180910390fd5b600d5481611ea5610e6c565b611eaf9190613af5565b10611eef576040517f08c379a0000000000000000000000000000000000000000000000000000000008152600401611ee6906138f0565b60405180910390fd5b8380600b54611efe9190613b7c565b341015611f40576040517f08c379a0000000000000000000000000000000000000000000000000000000008152600401611f37906139d0565b60405180910390fd5b3373ffffffffffffffffffffffffffffffffffffffff163273ffffffffffffffffffffffffffffffffffffffff1614611fae576040517f08c379a0000000000000000000000000000000000000000000000000000000008152600401611fa5906138d0565b60405180910390fd5b600f60019054906101000a900460ff16611ffd576040517f08c379a0000000000000000000000000000000000000000000000000000000008152600401611ff490613890565b60405180910390fd5b6000612007612588565b60405160200161201791906136cc565b60405160208183030381529060405280519060200120905061207d858580806020026020016040519081016040528093929190818152602001838360200280828437600081840152601f19601f82011690508083019250505050505050600a5483612590565b6120bc576040517f08c379a00000000000000000000000000000000000000000000000000000000081526004016120b390613850565b60405180910390fd5b34601460008282546120ce9190613af5565b925050819055506120e66120e0612588565b8761266d565b7fce77e469b386be007f957632f6f65216f2e74c5daa303aff682e8296f628d01061210f612588565b8760405161211e9291906137af565b60405180910390a1505050505050565b600c5481565b6000600760008473ffffffffffffffffffffffffffffffffffffffff1673ffffffffffffffffffffffffffffffffffffffff16815260200190815260200160002060008373ffffffffffffffffffffffffffffffffffffffff1673ffffffffffffffffffffffffffffffffffffffff16815260200190815260200160002060009054906101000a900460ff16905092915050565b816000811180156121db5750600e548111155b61221a576040517f08c379a0000000000000000000000000000000000000000000000000000000008152600401612211906138b0565b60405180910390fd5b600c5481612226610e6c565b6122309190613af5565b10612270576040517f08c379a000000000000000000000000000000000000000000000000000000000815260040161226790613990565b60405180910390fd5b612278612372565b612282828461266d565b505050565b61228f612372565b600073ffffffffffffffffffffffffffffffffffffffff168173ffffffffffffffffffffffffffffffffffffffff1614156122ff576040517f08c379a00000000000000000000000000000000000000000000000000000000081526004016122f690613870565b60405180910390fd5b612308816125a7565b50565b6000816123166123f0565b11158015612325575060005482105b8015612363575060007c0100000000000000000000000000000000000000000000000000000000600460008581526020019081526020016000205416145b9050919050565b600033905090565b61237a612588565b73ffffffffffffffffffffffffffffffffffffffff16612398611844565b73ffffffffffffffffffffffffffffffffffffffff16146123ee576040517f08c379a00000000000000000000000000000000000000000000000000000000081526004016123e590613910565b60405180910390fd5b565b600090565b600080829050806124046123f0565b1161248c5760005481101561248b5760006004600083815260200190815260200160002054905060007c010000000000000000000000000000000000000000000000000000000082161415612489575b600081141561247f576004600083600190039350838152602001908152602001600020549050612454565b80925050506124be565b505b5b6040517fdf2d9b4200000000000000000000000000000000000000000000000000000000815260040160405180910390fd5b919050565b6000806000600690508360005280602052604060002092508254915050915091565b600073ffffffffffffffffffffffffffffffffffffffff8316925073ffffffffffffffffffffffffffffffffffffffff821691508382148383141790509392505050565b50505050565b60008060e883901c905060e8612546868684612a2a565b62ffffff16901b9150509392505050565b600073ffffffffffffffffffffffffffffffffffffffff83169250814260a01b178317905092915050565b50505050565b600033905090565b60008261259d8584612a33565b1490509392505050565b6000600860009054906101000a900473ffffffffffffffffffffffffffffffffffffffff16905081600860006101000a81548173ffffffffffffffffffffffffffffffffffffffff021916908373ffffffffffffffffffffffffffffffffffffffff1602179055508173ffffffffffffffffffffffffffffffffffffffff168173ffffffffffffffffffffffffffffffffffffffff167f8be0079c531659141344cd1fd0a4f28419497f9722a3daafe3b4186f6b6457e060405160405180910390a35050565b612687828260405180602001604052806000815250612aaf565b5050565b60008373ffffffffffffffffffffffffffffffffffffffff1663150b7a026126b161236a565b8786866040518563ffffffff1660e01b81526004016126d39493929190613763565b602060405180830381600087803b1580156126ed57600080fd5b505af192505050801561271e57506040513d601f19601f8201168201806040525081019061271b9190613214565b60015b612798573d806000811461274e576040519150601f19603f3d011682016040523d82523d6000602084013e612753565b606091505b50600081511415612790576040517fd1a57ed600000000000000000000000000000000000000000000000000000000815260040160405180910390fd5b805181602001fd5b63150b7a0260e01b7bffffffffffffffffffffffffffffffffffffffffffffffffffffffff1916817bffffffffffffffffffffffffffffffffffffffffffffffffffffffff191614915050949350505050565b6060601080546127fa90613cdc565b80601f016020809104026020016040519081016040528092919081815260200182805461282690613cdc565b80156128735780601f1061284857610100808354040283529160200191612873565b820191906000526020600020905b81548152906001019060200180831161285657829003601f168201915b5050505050905090565b606060008214156128c5576040518060400160405280600181526020017f30000000000000000000000000000000000000000000000000000000000000008152509050612a25565b600082905060005b600082146128f75780806128e090613d3f565b915050600a826128f09190613b4b565b91506128cd565b60008167ffffffffffffffff811115612939577f4e487b7100000000000000000000000000000000000000000000000000000000600052604160045260246000fd5b6040519080825280601f01601f19166020018201604052801561296b5781602001600182028036833780820191505090505b5090505b60008514612a1e576001826129849190613bd6565b9150600a856129939190613dac565b603061299f9190613af5565b60f81b8183815181106129db577f4e487b7100000000000000000000000000000000000000000000000000000000600052603260045260246000fd5b60200101907effffffffffffffffffffffffffffffffffffffffffffffffffffffffffffff1916908160001a905350600a85612a179190613b4b565b945061296f565b8093505050505b919050565b60009392505050565b60008082905060005b8451811015612aa457612a8f82868381518110612a82577f4e487b7100000000000000000000000000000000000000000000000000000000600052603260045260246000fd5b6020026020010151612b4c565b91508080612a9c90613d3f565b915050612a3c565b508091505092915050565b612ab98383612b77565b60008373ffffffffffffffffffffffffffffffffffffffff163b14612b4757600080549050600083820390505b612af9600086838060010194508661268b565b612b2f576040517fd1a57ed600000000000000000000000000000000000000000000000000000000815260040160405180910390fd5b818110612ae6578160005414612b4457600080fd5b50505b505050565b6000818310612b6457612b5f8284612d4b565b612b6f565b612b6e8383612d4b565b5b905092915050565b600080549050600073ffffffffffffffffffffffffffffffffffffffff168373ffffffffffffffffffffffffffffffffffffffff161415612be4576040517f2e07630000000000000000000000000000000000000000000000000000000000815260040160405180910390fd5b6000821415612c1f576040517fb562e8dd00000000000000000000000000000000000000000000000000000000815260040160405180910390fd5b612c2c6000848385612529565b600160406001901b178202600560008573ffffffffffffffffffffffffffffffffffffffff1673ffffffffffffffffffffffffffffffffffffffff16815260200190815260200160002060008282540192505081905550612ca383612c94600086600061252f565b612c9d85612d62565b17612557565b60046000838152602001908152602001600020819055506000819050600083830190505b818060010192508573ffffffffffffffffffffffffffffffffffffffff16600073ffffffffffffffffffffffffffffffffffffffff167fddf252ad1be2c89b69c2b068fc378daa952ba7f163c4a11628f55a4df523b3ef60405160405180910390a4808210612cc757806000819055505050612d466000848385612582565b505050565b600082600052816020526040600020905092915050565b60006001821460e11b9050919050565b828054612d7e90613cdc565b90600052602060002090601f016020900481019282612da05760008555612de7565b82601f10612db957805160ff1916838001178555612de7565b82800160010185558215612de7579182015b82811115612de6578251825591602001919060010190612dcb565b5b509050612df49190612df8565b5090565b5b80821115612e11576000816000905550600101612df9565b5090565b6000612e28612e2384613a30565b613a0b565b905082815260208101848484011115612e4057600080fd5b612e4b848285613c9a565b509392505050565b6000612e66612e6184613a61565b613a0b565b905082815260208101848484011115612e7e57600080fd5b612e89848285613c9a565b509392505050565b600081359050612ea081614190565b92915050565b60008083601f840112612eb857600080fd5b8235905067ffffffffffffffff811115612ed157600080fd5b602083019150836020820283011115612ee957600080fd5b9250929050565b600081359050612eff816141a7565b92915050565b600081359050612f14816141be565b92915050565b600081359050612f29816141d5565b92915050565b600081519050612f3e816141d5565b92915050565b600082601f830112612f5557600080fd5b8135612f65848260208601612e15565b91505092915050565b600082601f830112612f7f57600080fd5b8135612f8f848260208601612e53565b91505092915050565b600081359050612fa7816141ec565b92915050565b600060208284031215612fbf57600080fd5b6000612fcd84828501612e91565b91505092915050565b60008060408385031215612fe957600080fd5b6000612ff785828601612e91565b925050602061300885828601612e91565b9150509250929050565b60008060006060848603121561302757600080fd5b600061303586828701612e91565b935050602061304686828701612e91565b925050604061305786828701612f98565b9150509250925092565b6000806000806080858703121561307757600080fd5b600061308587828801612e91565b945050602061309687828801612e91565b93505060406130a787828801612f98565b925050606085013567ffffffffffffffff8111156130c457600080fd5b6130d087828801612f44565b91505092959194509250565b600080604083850312156130ef57600080fd5b60006130fd85828601612e91565b925050602061310e85828601612ef0565b9150509250929050565b6000806040838503121561312b57600080fd5b600061313985828601612e91565b925050602061314a85828601612f98565b9150509250929050565b6000806020838503121561316757600080fd5b600083013567ffffffffffffffff81111561318157600080fd5b61318d85828601612ea6565b92509250509250929050565b6000602082840312156131ab57600080fd5b60006131b984828501612ef0565b91505092915050565b6000602082840312156131d457600080fd5b60006131e284828501612f05565b91505092915050565b6000602082840312156131fd57600080fd5b600061320b84828501612f1a565b91505092915050565b60006020828403121561322657600080fd5b600061323484828501612f2f565b91505092915050565b60006020828403121561324f57600080fd5b600082013567ffffffffffffffff81111561326957600080fd5b61327584828501612f6e565b91505092915050565b60006020828403121561329057600080fd5b600061329e84828501612f98565b91505092915050565b600080604083850312156132ba57600080fd5b60006132c885828601612f98565b92505060206132d985828601612e91565b9150509250929050565b6000806000604084860312156132f857600080fd5b600061330686828701612f98565b935050602084013567ffffffffffffffff81111561332357600080fd5b61332f86828701612ea6565b92509250509250925092565b61334481613c1c565b82525050565b61335381613c0a565b82525050565b61336a61336582613c0a565b613d88565b82525050565b61337981613c2e565b82525050565b61338881613c3a565b82525050565b600061339982613aa7565b6133a38185613abd565b93506133b3818560208601613ca9565b6133bc81613e99565b840191505092915050565b60006133d282613ab2565b6133dc8185613ad9565b93506133ec818560208601613ca9565b6133f581613e99565b840191505092915050565b600061340b82613ab2565b6134158185613aea565b9350613425818560208601613ca9565b80840191505092915050565b6000815461343e81613cdc565b6134488186613aea565b945060018216600081146134635760018114613474576134a7565b60ff198316865281860193506134a7565b61347d85613a92565b60005b8381101561349f57815481890152600182019150602081019050613480565b838801955050505b50505092915050565b60006134bd602a83613ad9565b91506134c882613eb7565b604082019050919050565b60006134e0600e83613ad9565b91506134eb82613f06565b602082019050919050565b6000613503602683613ad9565b915061350e82613f2f565b604082019050919050565b6000613526602183613ad9565b915061353182613f7e565b604082019050919050565b6000613549601483613ad9565b915061355482613fcd565b602082019050919050565b600061356c601683613ad9565b915061357782613ff6565b602082019050919050565b600061358f601e83613ad9565b915061359a8261401f565b602082019050919050565b60006135b2602083613ad9565b91506135bd82614048565b602082019050919050565b60006135d5601783613ad9565b91506135e082614071565b602082019050919050565b60006135f8601d83613ad9565b91506136038261409a565b602082019050919050565b600061361b602f83613ad9565b9150613626826140c3565b604082019050919050565b600061363e600083613ace565b915061364982614112565b600082019050919050565b6000613661601483613ad9565b915061366c82614115565b602082019050919050565b6000613684601f83613ad9565b915061368f8261413e565b602082019050919050565b60006136a7601383613ad9565b91506136b282614167565b602082019050919050565b6136c681613c90565b82525050565b60006136d88284613359565b60148201915081905092915050565b60006136f38286613400565b91506136ff8285613400565b915061370b8284613431565b9150819050949350505050565b600061372382613631565b9150819050919050565b6000602082019050613742600083018461334a565b92915050565b600060208201905061375d600083018461333b565b92915050565b6000608082019050613778600083018761334a565b613785602083018661334a565b61379260408301856136bd565b81810360608301526137a4818461338e565b905095945050505050565b60006040820190506137c4600083018561334a565b6137d160208301846136bd565b9392505050565b60006020820190506137ed6000830184613370565b92915050565b6000602082019050613808600083018461337f565b92915050565b6000602082019050818103600083015261382881846133c7565b905092915050565b60006020820190508181036000830152613849816134b0565b9050919050565b60006020820190508181036000830152613869816134d3565b9050919050565b60006020820190508181036000830152613889816134f6565b9050919050565b600060208201905081810360008301526138a981613519565b9050919050565b600060208201905081810360008301526138c98161353c565b9050919050565b600060208201905081810360008301526138e98161355f565b9050919050565b6000602082019050818103600083015261390981613582565b9050919050565b60006020820190508181036000830152613929816135a5565b9050919050565b60006020820190508181036000830152613949816135c8565b9050919050565b60006020820190508181036000830152613969816135eb565b9050919050565b600060208201905081810360008301526139898161360e565b9050919050565b600060208201905081810360008301526139a981613654565b9050919050565b600060208201905081810360008301526139c981613677565b9050919050565b600060208201905081810360008301526139e98161369a565b9050919050565b6000602082019050613a0560008301846136bd565b92915050565b6000613a15613a26565b9050613a218282613d0e565b919050565b6000604051905090565b600067ffffffffffffffff821115613a4b57613a4a613e6a565b5b613a5482613e99565b9050602081019050919050565b600067ffffffffffffffff821115613a7c57613a7b613e6a565b5b613a8582613e99565b9050602081019050919050565b60008190508160005260206000209050919050565b600081519050919050565b600081519050919050565b600082825260208201905092915050565b600081905092915050565b600082825260208201905092915050565b600081905092915050565b6000613b0082613c90565b9150613b0b83613c90565b9250827fffffffffffffffffffffffffffffffffffffffffffffffffffffffffffffffff03821115613b4057613b3f613ddd565b5b828201905092915050565b6000613b5682613c90565b9150613b6183613c90565b925082613b7157613b70613e0c565b5b828204905092915050565b6000613b8782613c90565b9150613b9283613c90565b9250817fffffffffffffffffffffffffffffffffffffffffffffffffffffffffffffffff0483118215151615613bcb57613bca613ddd565b5b828202905092915050565b6000613be182613c90565b9150613bec83613c90565b925082821015613bff57613bfe613ddd565b5b828203905092915050565b6000613c1582613c70565b9050919050565b6000613c2782613c70565b9050919050565b60008115159050919050565b6000819050919050565b60007fffffffff0000000000000000000000000000000000000000000000000000000082169050919050565b600073ffffffffffffffffffffffffffffffffffffffff82169050919050565b6000819050919050565b82818337600083830152505050565b60005b83811015613cc7578082015181840152602081019050613cac565b83811115613cd6576000848401525b50505050565b60006002820490506001821680613cf457607f821691505b60208210811415613d0857613d07613e3b565b5b50919050565b613d1782613e99565b810181811067ffffffffffffffff82111715613d3657613d35613e6a565b5b80604052505050565b6000613d4a82613c90565b91507fffffffffffffffffffffffffffffffffffffffffffffffffffffffffffffffff821415613d7d57613d7c613ddd565b5b600182019050919050565b6000613d9382613d9a565b9050919050565b6000613da582613eaa565b9050919050565b6000613db782613c90565b9150613dc283613c90565b925082613dd257613dd1613e0c565b5b828206905092915050565b7f4e487b7100000000000000000000000000000000000000000000000000000000600052601160045260246000fd5b7f4e487b7100000000000000000000000000000000000000000000000000000000600052601260045260246000fd5b7f4e487b7100000000000000000000000000000000000000000000000000000000600052602260045260246000fd5b7f4e487b7100000000000000000000000000000000000000000000000000000000600052604160045260246000fd5b6000601f19601f8301169050919050565b60008160601b9050919050565b7f52656c6561736520616d6f756e742073686f756c64206265206772656174657260008201527f207468616e207a65726f00000000000000000000000000000000000000000000602082015250565b7f496e76616c69642070726f6f6621000000000000000000000000000000000000600082015250565b7f4f776e61626c653a206e6577206f776e657220697320746865207a65726f206160008201527f6464726573730000000000000000000000000000000000000000000000000000602082015250565b7f5468652077686974656c6973742073616c65206973206e6f742061637469766560008201527f2100000000000000000000000000000000000000000000000000000000000000602082015250565b7f496e76616c6964206d696e7420616d6f756e7421000000000000000000000000600082015250565b7f496e76616c69642057616c6c6574204164647265737300000000000000000000600082015250565b7f4d61782057686974656c69737420537570706c79206578636565646564210000600082015250565b7f4f776e61626c653a2063616c6c6572206973206e6f7420746865206f776e6572600082015250565b7f54686520636f6e74726163742069732070617573656421000000000000000000600082015250565b7f4e6f742056616c6964204164647265737320746f205769746864726177000000600082015250565b7f4552433732314d657461646174613a2055524920717565727920666f72206e6f60008201527f6e6578697374656e7420746f6b656e0000000000000000000000000000000000602082015250565b50565b7f4d617820737570706c7920657863656564656421000000000000000000000000600082015250565b7f5265656e7472616e637947756172643a207265656e7472616e742063616c6c00600082015250565b7f496e73756666696369656e742066756e64732100000000000000000000000000600082015250565b61419981613c0a565b81146141a457600080fd5b50565b6141b081613c2e565b81146141bb57600080fd5b50565b6141c781613c3a565b81146141d257600080fd5b50565b6141de81613c44565b81146141e957600080fd5b50565b6141f581613c90565b811461420057600080fd5b5056fea26469706673582212200e3d17e310c08f791129ed453f18ab6ff8dcc21b6675736b21a43f4fce4d4d2164736f6c63430008040033",
  "immutableReferences": {},
  "source": "// SPDX-License-Identifier: MIT\r\npragma solidity ^0.8.4;\r\n\r\nimport \"erc721a/contracts/ERC721A.sol\";\r\nimport '@openzeppelin/contracts/access/Ownable.sol';\r\nimport '@openzeppelin/contracts/utils/cryptography/MerkleProof.sol';\r\nimport '@openzeppelin/contracts/security/ReentrancyGuard.sol';\r\nimport \"@openzeppelin/contracts/utils/Strings.sol\";\r\n\r\ncontract StoneSquad is ERC721A, Ownable, ReentrancyGuard {\r\n    \r\n    using Strings for uint256;\r\n    bytes32 public merkleRoot;\r\n    \r\n    //Constructor\r\n    uint256 public cost;\r\n    uint256 public maxSupply;\r\n    uint256 public wlMaxSupply;\r\n    uint256 public maxMintAmountPerTx;\r\n    \r\n    //Whitelist\r\n    bool public paused = true;\r\n    bool public whitelistMintEnabled = false;\r\n    \r\n\r\n    //URI Path\r\n    string public uriPrefix = '';\r\n    string public uriSuffix = '.json';\r\n    //Paymet Splitter - DeFi \r\n    address payable public payments;\r\n    address[] public payees;    \r\n\r\n    //Balance\r\n    uint256 totalBalance;\r\n\r\n\r\n    event WhitelistMinted(address minter,uint256 amount);\r\n    event minted(address minter,uint256 amount);\r\n    event amountReleased();\r\n\r\n    constructor(\r\n    string memory _tokenName,\r\n    string memory _tokenSymbol,\r\n    uint256 _maxSupply,\r\n    uint256 _wlMaxSupply,\r\n    uint256 _maxMintAmountPerTx,\r\n    address _payments,\r\n    address[] memory _payees\r\n  ) ERC721A(_tokenName, _tokenSymbol) {\r\n    maxSupply = _maxSupply;    \r\n    wlMaxSupply = _wlMaxSupply;\r\n    setMaxMintAmountPerTx(_maxMintAmountPerTx);\r\n    payees = _payees;\r\n    payments = payable(_payments);    \r\n    cost = 0.13 ether;   \r\n  }\r\n  modifier checkPaymentAddress(address withdrawAddress){\r\n    bool status=false;\r\n    for(uint i=0;i<payees.length;i++){\r\n      if(payees[i]==withdrawAddress){\r\n        status = true;\r\n      }\r\n    }\r\n    require(status,\"Not Valid Address to Withdraw\");\r\n    _;\r\n  }\r\n  modifier mintCompliance(uint256 _mintQuantity) {\r\n    require(_mintQuantity > 0 && _mintQuantity <= maxMintAmountPerTx, 'Invalid mint amount!');\r\n    require(totalSupply() + _mintQuantity < maxSupply, 'Max supply exceeded!');\r\n    _;\r\n  }\r\n   modifier whitelistMintCompliance(uint256 _mintQuantity) {\r\n    require(_mintQuantity > 0 && _mintQuantity <= maxMintAmountPerTx, 'Invalid mint amount!');\r\n    require(totalSupply() + _mintQuantity < wlMaxSupply, 'Max Whitelist Supply exceeded!');\r\n    _;\r\n  }\r\n   modifier mintPriceCompliance(uint256 _mintAmount) {\r\n    require(msg.value >= cost * _mintAmount, 'Insufficient funds!');\r\n    _;\r\n  }\r\n  \r\n  modifier checkWalletAddress(){\r\n    require(tx.origin == msg.sender,\"Invalid Wallet Address\");\r\n    _;\r\n  }\r\n  function getMinted() public view returns (uint256){\r\n    return totalSupply();\r\n  }\r\n  function setCost(uint256 _cost) public onlyOwner {\r\n    cost = _cost;\r\n  }\r\n  function setPublicCost() public onlyOwner {\r\n    cost = 0.13 ether;\r\n  }\r\n  function setWlCost() public onlyOwner {\r\n    cost = 0.11 ether;\r\n  }\r\n  function setMaxMintAmountPerTx(uint256 _maxMintAmountPerTx) public onlyOwner {\r\n    maxMintAmountPerTx = _maxMintAmountPerTx;\r\n  }\r\n  function whitelistVerify(bytes32[] calldata _merkleProof) checkWalletAddress() public view returns(bool){\r\n    bytes32 leaf = keccak256(abi.encodePacked(_msgSender()));\r\n    return MerkleProof.verify(_merkleProof, merkleRoot, leaf);    \r\n  }\r\n  function whitelistMint(uint256 _mintAmount, bytes32[] calldata _merkleProof) public payable whitelistMintCompliance(_mintAmount) mintPriceCompliance(_mintAmount) checkWalletAddress() {\r\n    // Verify whitelist requirements\r\n    require(whitelistMintEnabled, 'The whitelist sale is not active!');    \r\n    bytes32 leaf = keccak256(abi.encodePacked(_msgSender()));\r\n    require(MerkleProof.verify(_merkleProof, merkleRoot, leaf), 'Invalid proof!');    \r\n    totalBalance += msg.value;\r\n    _safeMint(_msgSender(), _mintAmount);\r\n    emit WhitelistMinted(_msgSender(), _mintAmount);\r\n    \r\n  }\r\n  function mint(uint256 _mintAmount) public payable mintCompliance(_mintAmount) mintPriceCompliance(_mintAmount) checkWalletAddress(){\r\n    require(!paused, 'The contract is paused!');\r\n    totalBalance += msg.value;\r\n    _safeMint(_msgSender(), _mintAmount);\r\n    emit minted(_msgSender(), _mintAmount);\r\n  }\r\n  function mintForAddress(uint256 _mintAmount, address _receiver) public mintCompliance(_mintAmount) onlyOwner {\r\n    _safeMint(_receiver, _mintAmount);\r\n  }\r\n  function transferOwner(address newOwner) public onlyOwner{\r\n    transferOwnership(newOwner);\r\n  }\r\n  //  function _startTokenId() internal view virtual override returns (uint256) {\r\n  //   return 1;\r\n  // }\r\n\r\n  function tokenURI(uint256 _tokenId) public view virtual override returns (string memory) {\r\n    require(_exists(_tokenId), 'ERC721Metadata: URI query for nonexistent token');\r\n\r\n    string memory currentBaseURI = _baseURI();\r\n    return bytes(currentBaseURI).length > 0\r\n        ? string(abi.encodePacked(currentBaseURI, _tokenId.toString(), uriSuffix))\r\n        : '';\r\n  }\r\n  function _baseURI() internal view virtual override returns (string memory) {\r\n    return uriPrefix;\r\n  }\r\n  function setUriPrefix(string memory _uriPrefix) public onlyOwner {\r\n    uriPrefix = _uriPrefix;\r\n  }\r\n  function setUriSuffix(string memory _uriSuffix) public onlyOwner {\r\n    uriSuffix = _uriSuffix;\r\n  }  \r\n  function setPaused(bool _state) public onlyOwner {\r\n    paused = _state;\r\n  }\r\n  function setMerkleRoot(bytes32 _merkleRoot) public onlyOwner {\r\n    merkleRoot = _merkleRoot;\r\n  }\r\n  function setWhitelistMintEnabled(bool _state) public onlyOwner {\r\n    whitelistMintEnabled = _state;\r\n  }\r\n  function setMaxSupply(uint256 _maxSupply)public onlyOwner{\r\n    maxSupply = _maxSupply;\r\n  }\r\n  function setWLMaxSupply(uint256 _wlMaxSupply)public onlyOwner{\r\n    wlMaxSupply = _wlMaxSupply;\r\n  }\r\n  function getMaxSupply() public view returns(uint256){\r\n    return maxSupply;\r\n  }\r\n  function getWLMaxSupply() public view returns(uint256){\r\n    return wlMaxSupply;\r\n  }\r\n  function currentBalance() public view returns(uint256){\r\n    return address(this).balance;\r\n  }\r\n  function getTotalBalance() public view returns(uint256)\r\n  {\r\n    return totalBalance;\r\n  }\r\n  \r\n  function withdraw() public checkPaymentAddress(msg.sender) nonReentrant {\r\n    require(address(this).balance>0,\"Release amount should be greater than zero\");\r\n    (bool success, ) = payable(payments).call{value: address(this).balance}(\"\");     \r\n    require(success);    \r\n    emit amountReleased();\r\n  }\r\n}",
  "sourcePath": "D:\\nftproducts\\stonesquadmintproject\\stonesquadadmin\\contracts\\StoneSquad.sol",
  "compiler": {
    "name": "solc",
    "version": "0.8.4+commit.c7e474f2.Emscripten.clang"
  },
  "schemaVersion": "3.4.3",
  "updatedAt": "2022-08-14T00:51:10.319Z",
  "networkType": "ethereum",
  "devdoc": {
    "kind": "dev",
    "methods": {
      "approve(address,uint256)": {
        "details": "See {IERC721-approve}."
      },
      "balanceOf(address)": {
        "details": "See {IERC721-balanceOf}."
      },
      "getApproved(uint256)": {
        "details": "See {IERC721-getApproved}."
      },
      "isApprovedForAll(address,address)": {
        "details": "See {IERC721-isApprovedForAll}."
      },
      "name()": {
        "details": "See {IERC721Metadata-name}."
      },
      "owner()": {
        "details": "Returns the address of the current owner."
      },
      "ownerOf(uint256)": {
        "details": "See {IERC721-ownerOf}."
      },
      "renounceOwnership()": {
        "details": "Leaves the contract without owner. It will not be possible to call `onlyOwner` functions anymore. Can only be called by the current owner. NOTE: Renouncing ownership will leave the contract without an owner, thereby removing any functionality that is only available to the owner."
      },
      "safeTransferFrom(address,address,uint256)": {
        "details": "See {IERC721-safeTransferFrom}."
      },
      "safeTransferFrom(address,address,uint256,bytes)": {
        "details": "See {IERC721-safeTransferFrom}."
      },
      "setApprovalForAll(address,bool)": {
        "details": "See {IERC721-setApprovalForAll}."
      },
      "supportsInterface(bytes4)": {
        "details": "See {IERC165-supportsInterface}."
      },
      "symbol()": {
        "details": "See {IERC721Metadata-symbol}."
      },
      "totalSupply()": {
        "details": "Returns the total number of tokens in existence. Burned tokens will reduce the count. To get the total number of tokens minted, please see `_totalMinted`."
      },
      "transferFrom(address,address,uint256)": {
        "details": "Transfers `tokenId` from `from` to `to`. Requirements: - `to` cannot be the zero address. - `tokenId` token must be owned by `from`. Emits a {Transfer} event."
      },
      "transferOwnership(address)": {
        "details": "Transfers ownership of the contract to a new account (`newOwner`). Can only be called by the current owner."
      }
    },
    "version": 1
  },
  "userdoc": {
    "errors": {
      "ApprovalCallerNotOwnerNorApproved()": [
        {
          "notice": "The caller must own the token or be an approved operator."
        }
      ],
      "ApprovalQueryForNonexistentToken()": [
        {
          "notice": "The token does not exist."
        }
      ],
      "ApproveToCaller()": [
        {
          "notice": "The caller cannot approve to their own address."
        }
      ],
      "BalanceQueryForZeroAddress()": [
        {
          "notice": "Cannot query the balance for the zero address."
        }
      ],
      "MintERC2309QuantityExceedsLimit()": [
        {
          "notice": "The `quantity` minted with ERC2309 exceeds the safety limit."
        }
      ],
      "MintToZeroAddress()": [
        {
          "notice": "Cannot mint to the zero address."
        }
      ],
      "MintZeroQuantity()": [
        {
          "notice": "The quantity of tokens minted must be more than zero."
        }
      ],
      "OwnerQueryForNonexistentToken()": [
        {
          "notice": "The token does not exist."
        }
      ],
      "OwnershipNotInitializedForExtraData()": [
        {
          "notice": "The `extraData` cannot be set on an unintialized ownership slot."
        }
      ],
      "TransferCallerNotOwnerNorApproved()": [
        {
          "notice": "The caller must own the token or be an approved operator."
        }
      ],
      "TransferFromIncorrectOwner()": [
        {
          "notice": "The token must be owned by `from`."
        }
      ],
      "TransferToNonERC721ReceiverImplementer()": [
        {
          "notice": "Cannot safely transfer to a contract that does not implement the ERC721Receiver interface."
        }
      ],
      "TransferToZeroAddress()": [
        {
          "notice": "Cannot transfer to the zero address."
        }
      ],
      "URIQueryForNonexistentToken()": [
        {
          "notice": "The token does not exist."
        }
      ]
    },
    "kind": "user",
    "methods": {},
    "version": 1
  }
}