{
  "contractName": "StoneSquad",
  "abi": [
    {
      "inputs": [
        {
          "internalType": "string",
          "name": "_tokenName",
          "type": "string"
        },
        {
          "internalType": "string",
          "name": "_tokenSymbol",
          "type": "string"
        },
        {
          "internalType": "uint256",
          "name": "_maxSupply",
          "type": "uint256"
        },
        {
          "internalType": "uint256",
          "name": "_maxMintAmountPerTx",
          "type": "uint256"
        },
        {
          "internalType": "address",
          "name": "_payments",
          "type": "address"
        },
        {
          "internalType": "address[]",
          "name": "_payees",
          "type": "address[]"
        }
      ],
      "stateMutability": "nonpayable",
      "type": "constructor"
    },
    {
      "inputs": [],
      "name": "ApprovalCallerNotOwnerNorApproved",
      "type": "error"
    },
    {
      "inputs": [],
      "name": "ApprovalQueryForNonexistentToken",
      "type": "error"
    },
    {
      "inputs": [],
      "name": "ApproveToCaller",
      "type": "error"
    },
    {
      "inputs": [],
      "name": "BalanceQueryForZeroAddress",
      "type": "error"
    },
    {
      "inputs": [],
      "name": "MintERC2309QuantityExceedsLimit",
      "type": "error"
    },
    {
      "inputs": [],
      "name": "MintToZeroAddress",
      "type": "error"
    },
    {
      "inputs": [],
      "name": "MintZeroQuantity",
      "type": "error"
    },
    {
      "inputs": [],
      "name": "OwnerQueryForNonexistentToken",
      "type": "error"
    },
    {
      "inputs": [],
      "name": "OwnershipNotInitializedForExtraData",
      "type": "error"
    },
    {
      "inputs": [],
      "name": "TransferCallerNotOwnerNorApproved",
      "type": "error"
    },
    {
      "inputs": [],
      "name": "TransferFromIncorrectOwner",
      "type": "error"
    },
    {
      "inputs": [],
      "name": "TransferToNonERC721ReceiverImplementer",
      "type": "error"
    },
    {
      "inputs": [],
      "name": "TransferToZeroAddress",
      "type": "error"
    },
    {
      "inputs": [],
      "name": "URIQueryForNonexistentToken",
      "type": "error"
    },
    {
      "anonymous": false,
      "inputs": [
        {
          "indexed": true,
          "internalType": "address",
          "name": "owner",
          "type": "address"
        },
        {
          "indexed": true,
          "internalType": "address",
          "name": "approved",
          "type": "address"
        },
        {
          "indexed": true,
          "internalType": "uint256",
          "name": "tokenId",
          "type": "uint256"
        }
      ],
      "name": "Approval",
      "type": "event"
    },
    {
      "anonymous": false,
      "inputs": [
        {
          "indexed": true,
          "internalType": "address",
          "name": "owner",
          "type": "address"
        },
        {
          "indexed": true,
          "internalType": "address",
          "name": "operator",
          "type": "address"
        },
        {
          "indexed": false,
          "internalType": "bool",
          "name": "approved",
          "type": "bool"
        }
      ],
      "name": "ApprovalForAll",
      "type": "event"
    },
    {
      "anonymous": false,
      "inputs": [
        {
          "indexed": true,
          "internalType": "uint256",
          "name": "fromTokenId",
          "type": "uint256"
        },
        {
          "indexed": false,
          "internalType": "uint256",
          "name": "toTokenId",
          "type": "uint256"
        },
        {
          "indexed": true,
          "internalType": "address",
          "name": "from",
          "type": "address"
        },
        {
          "indexed": true,
          "internalType": "address",
          "name": "to",
          "type": "address"
        }
      ],
      "name": "ConsecutiveTransfer",
      "type": "event"
    },
    {
      "anonymous": false,
      "inputs": [
        {
          "indexed": true,
          "internalType": "address",
          "name": "previousOwner",
          "type": "address"
        },
        {
          "indexed": true,
          "internalType": "address",
          "name": "newOwner",
          "type": "address"
        }
      ],
      "name": "OwnershipTransferred",
      "type": "event"
    },
    {
      "anonymous": false,
      "inputs": [
        {
          "indexed": true,
          "internalType": "address",
          "name": "from",
          "type": "address"
        },
        {
          "indexed": true,
          "internalType": "address",
          "name": "to",
          "type": "address"
        },
        {
          "indexed": true,
          "internalType": "uint256",
          "name": "tokenId",
          "type": "uint256"
        }
      ],
      "name": "Transfer",
      "type": "event"
    },
    {
      "inputs": [
        {
          "internalType": "address",
          "name": "to",
          "type": "address"
        },
        {
          "internalType": "uint256",
          "name": "tokenId",
          "type": "uint256"
        }
      ],
      "name": "approve",
      "outputs": [],
      "stateMutability": "nonpayable",
      "type": "function"
    },
    {
      "inputs": [
        {
          "internalType": "address",
          "name": "owner",
          "type": "address"
        }
      ],
      "name": "balanceOf",
      "outputs": [
        {
          "internalType": "uint256",
          "name": "",
          "type": "uint256"
        }
      ],
      "stateMutability": "view",
      "type": "function",
      "constant": true
    },
    {
      "inputs": [],
      "name": "cost",
      "outputs": [
        {
          "internalType": "uint256",
          "name": "",
          "type": "uint256"
        }
      ],
      "stateMutability": "view",
      "type": "function",
      "constant": true
    },
    {
      "inputs": [
        {
          "internalType": "uint256",
          "name": "tokenId",
          "type": "uint256"
        }
      ],
      "name": "getApproved",
      "outputs": [
        {
          "internalType": "address",
          "name": "",
          "type": "address"
        }
      ],
      "stateMutability": "view",
      "type": "function",
      "constant": true
    },
    {
      "inputs": [
        {
          "internalType": "address",
          "name": "owner",
          "type": "address"
        },
        {
          "internalType": "address",
          "name": "operator",
          "type": "address"
        }
      ],
      "name": "isApprovedForAll",
      "outputs": [
        {
          "internalType": "bool",
          "name": "",
          "type": "bool"
        }
      ],
      "stateMutability": "view",
      "type": "function",
      "constant": true
    },
    {
      "inputs": [],
      "name": "maxMintAmountPerTx",
      "outputs": [
        {
          "internalType": "uint256",
          "name": "",
          "type": "uint256"
        }
      ],
      "stateMutability": "view",
      "type": "function",
      "constant": true
    },
    {
      "inputs": [],
      "name": "maxSupply",
      "outputs": [
        {
          "internalType": "uint256",
          "name": "",
          "type": "uint256"
        }
      ],
      "stateMutability": "view",
      "type": "function",
      "constant": true
    },
    {
      "inputs": [],
      "name": "merkleRoot",
      "outputs": [
        {
          "internalType": "bytes32",
          "name": "",
          "type": "bytes32"
        }
      ],
      "stateMutability": "view",
      "type": "function",
      "constant": true
    },
    {
      "inputs": [],
      "name": "name",
      "outputs": [
        {
          "internalType": "string",
          "name": "",
          "type": "string"
        }
      ],
      "stateMutability": "view",
      "type": "function",
      "constant": true
    },
    {
      "inputs": [],
      "name": "owner",
      "outputs": [
        {
          "internalType": "address",
          "name": "",
          "type": "address"
        }
      ],
      "stateMutability": "view",
      "type": "function",
      "constant": true
    },
    {
      "inputs": [
        {
          "internalType": "uint256",
          "name": "tokenId",
          "type": "uint256"
        }
      ],
      "name": "ownerOf",
      "outputs": [
        {
          "internalType": "address",
          "name": "",
          "type": "address"
        }
      ],
      "stateMutability": "view",
      "type": "function",
      "constant": true
    },
    {
      "inputs": [],
      "name": "paused",
      "outputs": [
        {
          "internalType": "bool",
          "name": "",
          "type": "bool"
        }
      ],
      "stateMutability": "view",
      "type": "function",
      "constant": true
    },
    {
      "inputs": [
        {
          "internalType": "uint256",
          "name": "",
          "type": "uint256"
        }
      ],
      "name": "payees",
      "outputs": [
        {
          "internalType": "address",
          "name": "",
          "type": "address"
        }
      ],
      "stateMutability": "view",
      "type": "function",
      "constant": true
    },
    {
      "inputs": [],
      "name": "payments",
      "outputs": [
        {
          "internalType": "address payable",
          "name": "",
          "type": "address"
        }
      ],
      "stateMutability": "view",
      "type": "function",
      "constant": true
    },
    {
      "inputs": [],
      "name": "renounceOwnership",
      "outputs": [],
      "stateMutability": "nonpayable",
      "type": "function"
    },
    {
      "inputs": [],
      "name": "revealed",
      "outputs": [
        {
          "internalType": "bool",
          "name": "",
          "type": "bool"
        }
      ],
      "stateMutability": "view",
      "type": "function",
      "constant": true
    },
    {
      "inputs": [
        {
          "internalType": "address",
          "name": "from",
          "type": "address"
        },
        {
          "internalType": "address",
          "name": "to",
          "type": "address"
        },
        {
          "internalType": "uint256",
          "name": "tokenId",
          "type": "uint256"
        }
      ],
      "name": "safeTransferFrom",
      "outputs": [],
      "stateMutability": "nonpayable",
      "type": "function"
    },
    {
      "inputs": [
        {
          "internalType": "address",
          "name": "from",
          "type": "address"
        },
        {
          "internalType": "address",
          "name": "to",
          "type": "address"
        },
        {
          "internalType": "uint256",
          "name": "tokenId",
          "type": "uint256"
        },
        {
          "internalType": "bytes",
          "name": "_data",
          "type": "bytes"
        }
      ],
      "name": "safeTransferFrom",
      "outputs": [],
      "stateMutability": "nonpayable",
      "type": "function"
    },
    {
      "inputs": [
        {
          "internalType": "address",
          "name": "operator",
          "type": "address"
        },
        {
          "internalType": "bool",
          "name": "approved",
          "type": "bool"
        }
      ],
      "name": "setApprovalForAll",
      "outputs": [],
      "stateMutability": "nonpayable",
      "type": "function"
    },
    {
      "inputs": [
        {
          "internalType": "bytes4",
          "name": "interfaceId",
          "type": "bytes4"
        }
      ],
      "name": "supportsInterface",
      "outputs": [
        {
          "internalType": "bool",
          "name": "",
          "type": "bool"
        }
      ],
      "stateMutability": "view",
      "type": "function",
      "constant": true
    },
    {
      "inputs": [],
      "name": "symbol",
      "outputs": [
        {
          "internalType": "string",
          "name": "",
          "type": "string"
        }
      ],
      "stateMutability": "view",
      "type": "function",
      "constant": true
    },
    {
      "inputs": [],
      "name": "totalSupply",
      "outputs": [
        {
          "internalType": "uint256",
          "name": "",
          "type": "uint256"
        }
      ],
      "stateMutability": "view",
      "type": "function",
      "constant": true
    },
    {
      "inputs": [
        {
          "internalType": "address",
          "name": "from",
          "type": "address"
        },
        {
          "internalType": "address",
          "name": "to",
          "type": "address"
        },
        {
          "internalType": "uint256",
          "name": "tokenId",
          "type": "uint256"
        }
      ],
      "name": "transferFrom",
      "outputs": [],
      "stateMutability": "nonpayable",
      "type": "function"
    },
    {
      "inputs": [
        {
          "internalType": "address",
          "name": "newOwner",
          "type": "address"
        }
      ],
      "name": "transferOwnership",
      "outputs": [],
      "stateMutability": "nonpayable",
      "type": "function"
    },
    {
      "inputs": [],
      "name": "uriPrefix",
      "outputs": [
        {
          "internalType": "string",
          "name": "",
          "type": "string"
        }
      ],
      "stateMutability": "view",
      "type": "function",
      "constant": true
    },
    {
      "inputs": [],
      "name": "uriSuffix",
      "outputs": [
        {
          "internalType": "string",
          "name": "",
          "type": "string"
        }
      ],
      "stateMutability": "view",
      "type": "function",
      "constant": true
    },
    {
      "inputs": [
        {
          "internalType": "address",
          "name": "",
          "type": "address"
        }
      ],
      "name": "whitelistClaimed",
      "outputs": [
        {
          "internalType": "bool",
          "name": "",
          "type": "bool"
        }
      ],
      "stateMutability": "view",
      "type": "function",
      "constant": true
    },
    {
      "inputs": [],
      "name": "whitelistMintEnabled",
      "outputs": [
        {
          "internalType": "bool",
          "name": "",
          "type": "bool"
        }
      ],
      "stateMutability": "view",
      "type": "function",
      "constant": true
    },
    {
      "inputs": [],
      "name": "getMinted",
      "outputs": [
        {
          "internalType": "uint256",
          "name": "",
          "type": "uint256"
        }
      ],
      "stateMutability": "view",
      "type": "function",
      "constant": true
    },
    {
      "inputs": [
        {
          "internalType": "uint256",
          "name": "_cost",
          "type": "uint256"
        }
      ],
      "name": "setCost",
      "outputs": [],
      "stateMutability": "nonpayable",
      "type": "function"
    },
    {
      "inputs": [
        {
          "internalType": "uint256",
          "name": "_maxMintAmountPerTx",
          "type": "uint256"
        }
      ],
      "name": "setMaxMintAmountPerTx",
      "outputs": [],
      "stateMutability": "nonpayable",
      "type": "function"
    },
    {
      "inputs": [
        {
          "internalType": "uint256",
          "name": "_mintAmount",
          "type": "uint256"
        },
        {
          "internalType": "bytes32[]",
          "name": "_merkleProof",
          "type": "bytes32[]"
        }
      ],
      "name": "whitelistMint",
      "outputs": [],
      "stateMutability": "payable",
      "type": "function",
      "payable": true
    },
    {
      "inputs": [
        {
          "internalType": "uint256",
          "name": "_mintAmount",
          "type": "uint256"
        }
      ],
      "name": "mint",
      "outputs": [],
      "stateMutability": "payable",
      "type": "function",
      "payable": true
    },
    {
      "inputs": [
        {
          "internalType": "uint256",
          "name": "_tokenId",
          "type": "uint256"
        }
      ],
      "name": "tokenURI",
      "outputs": [
        {
          "internalType": "string",
          "name": "",
          "type": "string"
        }
      ],
      "stateMutability": "view",
      "type": "function",
      "constant": true
    },
    {
      "inputs": [
        {
          "internalType": "string",
          "name": "_uriPrefix",
          "type": "string"
        }
      ],
      "name": "setUriPrefix",
      "outputs": [],
      "stateMutability": "nonpayable",
      "type": "function"
    },
    {
      "inputs": [
        {
          "internalType": "string",
          "name": "_uriSuffix",
          "type": "string"
        }
      ],
      "name": "setUriSuffix",
      "outputs": [],
      "stateMutability": "nonpayable",
      "type": "function"
    },
    {
      "inputs": [
        {
          "internalType": "bool",
          "name": "_state",
          "type": "bool"
        }
      ],
      "name": "setPaused",
      "outputs": [],
      "stateMutability": "nonpayable",
      "type": "function"
    },
    {
      "inputs": [
        {
          "internalType": "bytes32",
          "name": "_merkleRoot",
          "type": "bytes32"
        }
      ],
      "name": "setMerkleRoot",
      "outputs": [],
      "stateMutability": "nonpayable",
      "type": "function"
    },
    {
      "inputs": [
        {
          "internalType": "bool",
          "name": "_state",
          "type": "bool"
        }
      ],
      "name": "setWhitelistMintEnabled",
      "outputs": [],
      "stateMutability": "nonpayable",
      "type": "function"
    },
    {
      "inputs": [],
      "name": "currentBalance",
      "outputs": [
        {
          "internalType": "uint256",
          "name": "",
          "type": "uint256"
        }
      ],
      "stateMutability": "view",
      "type": "function",
      "constant": true
    },
    {
      "inputs": [],
      "name": "getTotalBalance",
      "outputs": [
        {
          "internalType": "uint256",
          "name": "",
          "type": "uint256"
        }
      ],
      "stateMutability": "view",
      "type": "function",
      "constant": true
    },
    {
      "inputs": [],
      "name": "withdraw",
      "outputs": [],
      "stateMutability": "nonpayable",
      "type": "function"
    }
  ],
  "bytecode": "0x60806040526001600e60006101000a81548160ff0219169083151502179055506000600e60016101000a81548160ff0219169083151502179055506000600e60026101000a81548160ff02191690831515021790555060405180602001604052806000815250601090805190602001906200007c929190620003ab565b506040518060400160405280600581526020017f2e6a736f6e00000000000000000000000000000000000000000000000000000081525060119080519060200190620000ca929190620003ab565b50348015620000d857600080fd5b506040516200470f3803806200470f8339818101604052810190620000fe91906200062c565b8585816002908051906020019062000118929190620003ab565b50806003908051906020019062000131929190620003ab565b5062000142620001ff60201b60201c565b60008190555050506200016a6200015e6200020860201b60201c565b6200021060201b60201c565b600160098190555083600c819055508060139080519060200190620001919291906200043c565b5081601260006101000a81548173ffffffffffffffffffffffffffffffffffffffff021916908373ffffffffffffffffffffffffffffffffffffffff160217905550620001e483620002d660201b60201c565b670de0b6b3a7640000600b81905550505050505050620009a1565b60006001905090565b600033905090565b6000600860009054906101000a900473ffffffffffffffffffffffffffffffffffffffff16905081600860006101000a81548173ffffffffffffffffffffffffffffffffffffffff021916908373ffffffffffffffffffffffffffffffffffffffff1602179055508173ffffffffffffffffffffffffffffffffffffffff168173ffffffffffffffffffffffffffffffffffffffff167f8be0079c531659141344cd1fd0a4f28419497f9722a3daafe3b4186f6b6457e060405160405180910390a35050565b620002e6620002f060201b60201c565b80600d8190555050565b620003006200020860201b60201c565b73ffffffffffffffffffffffffffffffffffffffff16620003266200038160201b60201c565b73ffffffffffffffffffffffffffffffffffffffff16146200037f576040517f08c379a0000000000000000000000000000000000000000000000000000000008152600401620003769062000734565b60405180910390fd5b565b6000600860009054906101000a900473ffffffffffffffffffffffffffffffffffffffff16905090565b828054620003b99062000869565b90600052602060002090601f016020900481019282620003dd576000855562000429565b82601f10620003f857805160ff191683800117855562000429565b8280016001018555821562000429579182015b82811115620004285782518255916020019190600101906200040b565b5b509050620004389190620004cb565b5090565b828054828255906000526020600020908101928215620004b8579160200282015b82811115620004b75782518260006101000a81548173ffffffffffffffffffffffffffffffffffffffff021916908373ffffffffffffffffffffffffffffffffffffffff160217905550916020019190600101906200045d565b5b509050620004c79190620004cb565b5090565b5b80821115620004e6576000816000905550600101620004cc565b5090565b600062000501620004fb846200077f565b62000756565b905080838252602082019050828560208602820111156200052157600080fd5b60005b858110156200055557816200053a8882620005a4565b84526020840193506020830192505060018101905062000524565b5050509392505050565b6000620005766200057084620007ae565b62000756565b9050828152602081018484840111156200058f57600080fd5b6200059c84828562000833565b509392505050565b600081519050620005b5816200096d565b92915050565b600082601f830112620005cd57600080fd5b8151620005df848260208601620004ea565b91505092915050565b600082601f830112620005fa57600080fd5b81516200060c8482602086016200055f565b91505092915050565b600081519050620006268162000987565b92915050565b60008060008060008060c087890312156200064657600080fd5b600087015167ffffffffffffffff8111156200066157600080fd5b6200066f89828a01620005e8565b965050602087015167ffffffffffffffff8111156200068d57600080fd5b6200069b89828a01620005e8565b9550506040620006ae89828a0162000615565b9450506060620006c189828a0162000615565b9350506080620006d489828a01620005a4565b92505060a087015167ffffffffffffffff811115620006f257600080fd5b6200070089828a01620005bb565b9150509295509295509295565b60006200071c602083620007e4565b9150620007298262000944565b602082019050919050565b600060208201905081810360008301526200074f816200070d565b9050919050565b60006200076262000775565b90506200077082826200089f565b919050565b6000604051905090565b600067ffffffffffffffff8211156200079d576200079c62000904565b5b602082029050602081019050919050565b600067ffffffffffffffff821115620007cc57620007cb62000904565b5b620007d78262000933565b9050602081019050919050565b600082825260208201905092915050565b6000620008028262000809565b9050919050565b600073ffffffffffffffffffffffffffffffffffffffff82169050919050565b6000819050919050565b60005b838110156200085357808201518184015260208101905062000836565b8381111562000863576000848401525b50505050565b600060028204905060018216806200088257607f821691505b60208210811415620008995762000898620008d5565b5b50919050565b620008aa8262000933565b810181811067ffffffffffffffff82111715620008cc57620008cb62000904565b5b80604052505050565b7f4e487b7100000000000000000000000000000000000000000000000000000000600052602260045260246000fd5b7f4e487b7100000000000000000000000000000000000000000000000000000000600052604160045260246000fd5b6000601f19601f8301169050919050565b7f4f776e61626c653a2063616c6c6572206973206e6f7420746865206f776e6572600082015250565b6200097881620007f5565b81146200098457600080fd5b50565b620009928162000829565b81146200099e57600080fd5b50565b613d5e80620009b16000396000f3fe6080604052600436106102515760003560e01c806370a0823111610139578063ac72200d116100b6578063ce845d1d1161007a578063ce845d1d1461087f578063d2cab056146108aa578063d5abeb01146108c6578063db4bec44146108f1578063e985e9c51461092e578063f2fde38b1461096b57610251565b8063ac72200d1461079c578063b071401b146107c7578063b767a098146107f0578063b88d4fde14610819578063c87b56dd1461084257610251565b806394354fd0116100fd57806394354fd0146106d657806395d89b4114610701578063a0712d681461072c578063a22cb46514610748578063a6d23e101461077157610251565b806370a0823114610605578063715018a6146106425780637cb64759146106595780637ec4a659146106825780638da5cb5b146106ab57610251565b80632eb4a7ab116101d25780635503a0e8116101965780635503a0e8146104df5780635c975abb1461050a57806362b99ad41461053557806363037b0c146105605780636352211e1461059d5780636caede3d146105da57610251565b80632eb4a7ab146104205780633ccfd60b1461044b57806342842e0e1461046257806344a0d68a1461048b57806351830227146104b457610251565b806313faede61161021957806313faede61461034f57806316ba10e01461037a57806316c38b3c146103a357806318160ddd146103cc57806323b872dd146103f757610251565b806301ffc9a71461025657806306fdde0314610293578063081812fc146102be578063095ea7b3146102fb57806312b5834914610324575b600080fd5b34801561026257600080fd5b5061027d60048036038101906102789190612e07565b610994565b60405161028a919061336c565b60405180910390f35b34801561029f57600080fd5b506102a8610a26565b6040516102b591906133a2565b60405180910390f35b3480156102ca57600080fd5b506102e560048036038101906102e09190612e9a565b610ab8565b6040516102f291906132ea565b60405180910390f35b34801561030757600080fd5b50610322600480360381019061031d9190612d79565b610b34565b005b34801561033057600080fd5b50610339610c75565b6040516103469190613564565b60405180910390f35b34801561035b57600080fd5b50610364610c7f565b6040516103719190613564565b60405180910390f35b34801561038657600080fd5b506103a1600480360381019061039c9190612e59565b610c85565b005b3480156103af57600080fd5b506103ca60048036038101906103c59190612db5565b610ca7565b005b3480156103d857600080fd5b506103e1610ccc565b6040516103ee9190613564565b60405180910390f35b34801561040357600080fd5b5061041e60048036038101906104199190612c73565b610ce3565b005b34801561042c57600080fd5b50610435611008565b6040516104429190613387565b60405180910390f35b34801561045757600080fd5b5061046061100e565b005b34801561046e57600080fd5b5061048960048036038101906104849190612c73565b611204565b005b34801561049757600080fd5b506104b260048036038101906104ad9190612e9a565b611224565b005b3480156104c057600080fd5b506104c9611236565b6040516104d6919061336c565b60405180910390f35b3480156104eb57600080fd5b506104f4611249565b60405161050191906133a2565b60405180910390f35b34801561051657600080fd5b5061051f6112d7565b60405161052c919061336c565b60405180910390f35b34801561054157600080fd5b5061054a6112ea565b60405161055791906133a2565b60405180910390f35b34801561056c57600080fd5b5061058760048036038101906105829190612e9a565b611378565b60405161059491906132ea565b60405180910390f35b3480156105a957600080fd5b506105c460048036038101906105bf9190612e9a565b6113b7565b6040516105d191906132ea565b60405180910390f35b3480156105e657600080fd5b506105ef6113c9565b6040516105fc919061336c565b60405180910390f35b34801561061157600080fd5b5061062c60048036038101906106279190612c0e565b6113dc565b6040516106399190613564565b60405180910390f35b34801561064e57600080fd5b50610657611495565b005b34801561066557600080fd5b50610680600480360381019061067b9190612dde565b6114a9565b005b34801561068e57600080fd5b506106a960048036038101906106a49190612e59565b6114bb565b005b3480156106b757600080fd5b506106c06114dd565b6040516106cd91906132ea565b60405180910390f35b3480156106e257600080fd5b506106eb611507565b6040516106f89190613564565b60405180910390f35b34801561070d57600080fd5b5061071661150d565b60405161072391906133a2565b60405180910390f35b61074660048036038101906107419190612e9a565b61159f565b005b34801561075457600080fd5b5061076f600480360381019061076a9190612d3d565b611786565b005b34801561077d57600080fd5b506107866118fe565b6040516107939190613305565b60405180910390f35b3480156107a857600080fd5b506107b1611924565b6040516107be9190613564565b60405180910390f35b3480156107d357600080fd5b506107ee60048036038101906107e99190612e9a565b611933565b005b3480156107fc57600080fd5b5061081760048036038101906108129190612db5565b611945565b005b34801561082557600080fd5b50610840600480360381019061083b9190612cc2565b61196a565b005b34801561084e57600080fd5b5061086960048036038101906108649190612e9a565b6119dd565b60405161087691906133a2565b60405180910390f35b34801561088b57600080fd5b50610894611a87565b6040516108a19190613564565b60405180910390f35b6108c460048036038101906108bf9190612ec3565b611a8f565b005b3480156108d257600080fd5b506108db611e2a565b6040516108e89190613564565b60405180910390f35b3480156108fd57600080fd5b5061091860048036038101906109139190612c0e565b611e30565b604051610925919061336c565b60405180910390f35b34801561093a57600080fd5b5061095560048036038101906109509190612c37565b611e50565b604051610962919061336c565b60405180910390f35b34801561097757600080fd5b50610992600480360381019061098d9190612c0e565b611ee4565b005b60006301ffc9a760e01b827bffffffffffffffffffffffffffffffffffffffffffffffffffffffff191614806109ef57506380ac58cd60e01b827bffffffffffffffffffffffffffffffffffffffffffffffffffffffff1916145b80610a1f5750635b5e139f60e01b827bffffffffffffffffffffffffffffffffffffffffffffffffffffffff1916145b9050919050565b606060028054610a3590613850565b80601f0160208091040260200160405190810160405280929190818152602001828054610a6190613850565b8015610aae5780601f10610a8357610100808354040283529160200191610aae565b820191906000526020600020905b815481529060010190602001808311610a9157829003601f168201915b5050505050905090565b6000610ac382611f68565b610af9576040517fcf4700e400000000000000000000000000000000000000000000000000000000815260040160405180910390fd5b6006600083815260200190815260200160002060009054906101000a900473ffffffffffffffffffffffffffffffffffffffff169050919050565b6000610b3f826113b7565b90508073ffffffffffffffffffffffffffffffffffffffff16610b60611fc7565b73ffffffffffffffffffffffffffffffffffffffff1614610bc357610b8c81610b87611fc7565b611e50565b610bc2576040517fcfb3b94200000000000000000000000000000000000000000000000000000000815260040160405180910390fd5b5b826006600084815260200190815260200160002060006101000a81548173ffffffffffffffffffffffffffffffffffffffff021916908373ffffffffffffffffffffffffffffffffffffffff160217905550818373ffffffffffffffffffffffffffffffffffffffff168273ffffffffffffffffffffffffffffffffffffffff167f8c5be1e5ebec7d5bd14f71427d1e84f3dd0314c0f7b2291e5b200ac8c7c3b92560405160405180910390a4505050565b6000601454905090565b600b5481565b610c8d611fcf565b8060119080519060200190610ca39291906129d3565b5050565b610caf611fcf565b80600e60006101000a81548160ff02191690831515021790555050565b6000610cd661204d565b6001546000540303905090565b6000610cee82612056565b90508373ffffffffffffffffffffffffffffffffffffffff168173ffffffffffffffffffffffffffffffffffffffff1614610d55576040517fa114810000000000000000000000000000000000000000000000000000000000815260040160405180910390fd5b600080610d6184612124565b91509150610d778187610d72611fc7565b612146565b610dc357610d8c86610d87611fc7565b611e50565b610dc2576040517f59c896be00000000000000000000000000000000000000000000000000000000815260040160405180910390fd5b5b600073ffffffffffffffffffffffffffffffffffffffff168573ffffffffffffffffffffffffffffffffffffffff161415610e2a576040517fea553b3400000000000000000000000000000000000000000000000000000000815260040160405180910390fd5b610e37868686600161218a565b8015610e4257600082555b600560008773ffffffffffffffffffffffffffffffffffffffff1673ffffffffffffffffffffffffffffffffffffffff168152602001908152602001600020600081546001900391905081905550600560008673ffffffffffffffffffffffffffffffffffffffff1673ffffffffffffffffffffffffffffffffffffffff1681526020019081526020016000206000815460010191905081905550610f1085610eec888887612190565b7c0200000000000000000000000000000000000000000000000000000000176121b8565b600460008681526020019081526020016000208190555060007c020000000000000000000000000000000000000000000000000000000084161415610f98576000600185019050600060046000838152602001908152602001600020541415610f96576000548114610f95578360046000838152602001908152602001600020819055505b5b505b838573ffffffffffffffffffffffffffffffffffffffff168773ffffffffffffffffffffffffffffffffffffffff167fddf252ad1be2c89b69c2b068fc378daa952ba7f163c4a11628f55a4df523b3ef60405160405180910390a461100086868660016121e3565b505050505050565b600a5481565b336000805b6013805490508110156110d0578273ffffffffffffffffffffffffffffffffffffffff1660138281548110611071577f4e487b7100000000000000000000000000000000000000000000000000000000600052603260045260246000fd5b9060005260206000200160009054906101000a900473ffffffffffffffffffffffffffffffffffffffff1673ffffffffffffffffffffffffffffffffffffffff1614156110bd57600191505b80806110c8906138b3565b915050611013565b5080611111576040517f08c379a0000000000000000000000000000000000000000000000000000000008152600401611108906134c4565b60405180910390fd5b60026009541415611157576040517f08c379a000000000000000000000000000000000000000000000000000000000815260040161114e90613524565b60405180910390fd5b60026009819055506000601260009054906101000a900473ffffffffffffffffffffffffffffffffffffffff1673ffffffffffffffffffffffffffffffffffffffff16476040516111a7906132d5565b60006040518083038185875af1925050503d80600081146111e4576040519150601f19603f3d011682016040523d82523d6000602084013e6111e9565b606091505b50509050806111f757600080fd5b5060016009819055505050565b61121f8383836040518060200160405280600081525061196a565b505050565b61122c611fcf565b80600b8190555050565b600e60029054906101000a900460ff1681565b6011805461125690613850565b80601f016020809104026020016040519081016040528092919081815260200182805461128290613850565b80156112cf5780601f106112a4576101008083540402835291602001916112cf565b820191906000526020600020905b8154815290600101906020018083116112b257829003601f168201915b505050505081565b600e60009054906101000a900460ff1681565b601080546112f790613850565b80601f016020809104026020016040519081016040528092919081815260200182805461132390613850565b80156113705780601f1061134557610100808354040283529160200191611370565b820191906000526020600020905b81548152906001019060200180831161135357829003601f168201915b505050505081565b6013818154811061138857600080fd5b906000526020600020016000915054906101000a900473ffffffffffffffffffffffffffffffffffffffff1681565b60006113c282612056565b9050919050565b600e60019054906101000a900460ff1681565b60008073ffffffffffffffffffffffffffffffffffffffff168273ffffffffffffffffffffffffffffffffffffffff161415611444576040517f8f4eb60400000000000000000000000000000000000000000000000000000000815260040160405180910390fd5b67ffffffffffffffff600560008473ffffffffffffffffffffffffffffffffffffffff1673ffffffffffffffffffffffffffffffffffffffff16815260200190815260200160002054169050919050565b61149d611fcf565b6114a760006121e9565b565b6114b1611fcf565b80600a8190555050565b6114c3611fcf565b80601090805190602001906114d99291906129d3565b5050565b6000600860009054906101000a900473ffffffffffffffffffffffffffffffffffffffff16905090565b600d5481565b60606003805461151c90613850565b80601f016020809104026020016040519081016040528092919081815260200182805461154890613850565b80156115955780601f1061156a57610100808354040283529160200191611595565b820191906000526020600020905b81548152906001019060200180831161157857829003601f168201915b5050505050905090565b806000811180156115b25750600d548111155b6115f1576040517f08c379a00000000000000000000000000000000000000000000000000000000081526004016115e890613424565b60405180910390fd5b600c54816115fd610ccc565b6116079190613669565b1115611648576040517f08c379a000000000000000000000000000000000000000000000000000000000815260040161163f90613504565b60405180910390fd5b8180600b5461165791906136f0565b341015611699576040517f08c379a000000000000000000000000000000000000000000000000000000000815260040161169090613544565b60405180910390fd5b3373ffffffffffffffffffffffffffffffffffffffff163273ffffffffffffffffffffffffffffffffffffffff1614611707576040517f08c379a00000000000000000000000000000000000000000000000000000000081526004016116fe90613444565b60405180910390fd5b600e60009054906101000a900460ff1615611757576040517f08c379a000000000000000000000000000000000000000000000000000000000815260040161174e90613484565b60405180910390fd5b34601460008282546117699190613669565b9250508190555061178161177b6122af565b846122b7565b505050565b61178e611fc7565b73ffffffffffffffffffffffffffffffffffffffff168273ffffffffffffffffffffffffffffffffffffffff1614156117f3576040517fb06307db00000000000000000000000000000000000000000000000000000000815260040160405180910390fd5b8060076000611800611fc7565b73ffffffffffffffffffffffffffffffffffffffff1673ffffffffffffffffffffffffffffffffffffffff16815260200190815260200160002060008473ffffffffffffffffffffffffffffffffffffffff1673ffffffffffffffffffffffffffffffffffffffff16815260200190815260200160002060006101000a81548160ff0219169083151502179055508173ffffffffffffffffffffffffffffffffffffffff166118ad611fc7565b73ffffffffffffffffffffffffffffffffffffffff167f17307eab39ab6107e8899845ad3d59bd9653f200f220920489ca2b5937696c31836040516118f2919061336c565b60405180910390a35050565b601260009054906101000a900473ffffffffffffffffffffffffffffffffffffffff1681565b600061192e610ccc565b905090565b61193b611fcf565b80600d8190555050565b61194d611fcf565b80600e60016101000a81548160ff02191690831515021790555050565b611975848484610ce3565b60008373ffffffffffffffffffffffffffffffffffffffff163b146119d7576119a0848484846122d5565b6119d6576040517fd1a57ed600000000000000000000000000000000000000000000000000000000815260040160405180910390fd5b5b50505050565b60606119e882611f68565b611a27576040517f08c379a0000000000000000000000000000000000000000000000000000000008152600401611a1e906134e4565b60405180910390fd5b6000611a31612435565b90506000815111611a515760405180602001604052806000815250611a7f565b80611a5b846124c7565b6011604051602001611a6f939291906132a4565b6040516020818303038152906040525b915050919050565b600047905090565b82600081118015611aa25750600d548111155b611ae1576040517f08c379a0000000000000000000000000000000000000000000000000000000008152600401611ad890613424565b60405180910390fd5b600c5481611aed610ccc565b611af79190613669565b1115611b38576040517f08c379a0000000000000000000000000000000000000000000000000000000008152600401611b2f90613504565b60405180910390fd5b8380600b54611b4791906136f0565b341015611b89576040517f08c379a0000000000000000000000000000000000000000000000000000000008152600401611b8090613544565b60405180910390fd5b3373ffffffffffffffffffffffffffffffffffffffff163273ffffffffffffffffffffffffffffffffffffffff1614611bf7576040517f08c379a0000000000000000000000000000000000000000000000000000000008152600401611bee90613444565b60405180910390fd5b600e60019054906101000a900460ff16611c46576040517f08c379a0000000000000000000000000000000000000000000000000000000008152600401611c3d90613404565b60405180910390fd5b600f6000611c526122af565b73ffffffffffffffffffffffffffffffffffffffff1673ffffffffffffffffffffffffffffffffffffffff16815260200190815260200160002060009054906101000a900460ff1615611cda576040517f08c379a0000000000000000000000000000000000000000000000000000000008152600401611cd1906134a4565b60405180910390fd5b6000611ce46122af565b604051602001611cf49190613289565b604051602081830303815290604052805190602001209050611d5a858580806020026020016040519081016040528093929190818152602001838360200280828437600081840152601f19601f82011690508083019250505050505050600a5483612674565b611d99576040517f08c379a0000000000000000000000000000000000000000000000000000000008152600401611d90906133c4565b60405180910390fd5b6001600f6000611da76122af565b73ffffffffffffffffffffffffffffffffffffffff1673ffffffffffffffffffffffffffffffffffffffff16815260200190815260200160002060006101000a81548160ff0219169083151502179055503460146000828254611e0a9190613669565b92505081905550611e22611e1c6122af565b876122b7565b505050505050565b600c5481565b600f6020528060005260406000206000915054906101000a900460ff1681565b6000600760008473ffffffffffffffffffffffffffffffffffffffff1673ffffffffffffffffffffffffffffffffffffffff16815260200190815260200160002060008373ffffffffffffffffffffffffffffffffffffffff1673ffffffffffffffffffffffffffffffffffffffff16815260200190815260200160002060009054906101000a900460ff16905092915050565b611eec611fcf565b600073ffffffffffffffffffffffffffffffffffffffff168173ffffffffffffffffffffffffffffffffffffffff161415611f5c576040517f08c379a0000000000000000000000000000000000000000000000000000000008152600401611f53906133e4565b60405180910390fd5b611f65816121e9565b50565b600081611f7361204d565b11158015611f82575060005482105b8015611fc0575060007c0100000000000000000000000000000000000000000000000000000000600460008581526020019081526020016000205416145b9050919050565b600033905090565b611fd76122af565b73ffffffffffffffffffffffffffffffffffffffff16611ff56114dd565b73ffffffffffffffffffffffffffffffffffffffff161461204b576040517f08c379a000000000000000000000000000000000000000000000000000000000815260040161204290613464565b60405180910390fd5b565b60006001905090565b6000808290508061206561204d565b116120ed576000548110156120ec5760006004600083815260200190815260200160002054905060007c0100000000000000000000000000000000000000000000000000000000821614156120ea575b60008114156120e05760046000836001900393508381526020019081526020016000205490506120b5565b809250505061211f565b505b5b6040517fdf2d9b4200000000000000000000000000000000000000000000000000000000815260040160405180910390fd5b919050565b6000806000600690508360005280602052604060002092508254915050915091565b600073ffffffffffffffffffffffffffffffffffffffff8316925073ffffffffffffffffffffffffffffffffffffffff821691508382148383141790509392505050565b50505050565b60008060e883901c905060e86121a786868461268b565b62ffffff16901b9150509392505050565b600073ffffffffffffffffffffffffffffffffffffffff83169250814260a01b178317905092915050565b50505050565b6000600860009054906101000a900473ffffffffffffffffffffffffffffffffffffffff16905081600860006101000a81548173ffffffffffffffffffffffffffffffffffffffff021916908373ffffffffffffffffffffffffffffffffffffffff1602179055508173ffffffffffffffffffffffffffffffffffffffff168173ffffffffffffffffffffffffffffffffffffffff167f8be0079c531659141344cd1fd0a4f28419497f9722a3daafe3b4186f6b6457e060405160405180910390a35050565b600033905090565b6122d1828260405180602001604052806000815250612694565b5050565b60008373ffffffffffffffffffffffffffffffffffffffff1663150b7a026122fb611fc7565b8786866040518563ffffffff1660e01b815260040161231d9493929190613320565b602060405180830381600087803b15801561233757600080fd5b505af192505050801561236857506040513d601f19601f820116820180604052508101906123659190612e30565b60015b6123e2573d8060008114612398576040519150601f19603f3d011682016040523d82523d6000602084013e61239d565b606091505b506000815114156123da576040517fd1a57ed600000000000000000000000000000000000000000000000000000000815260040160405180910390fd5b805181602001fd5b63150b7a0260e01b7bffffffffffffffffffffffffffffffffffffffffffffffffffffffff1916817bffffffffffffffffffffffffffffffffffffffffffffffffffffffff191614915050949350505050565b60606010805461244490613850565b80601f016020809104026020016040519081016040528092919081815260200182805461247090613850565b80156124bd5780601f10612492576101008083540402835291602001916124bd565b820191906000526020600020905b8154815290600101906020018083116124a057829003601f168201915b5050505050905090565b6060600082141561250f576040518060400160405280600181526020017f3000000000000000000000000000000000000000000000000000000000000000815250905061266f565b600082905060005b6000821461254157808061252a906138b3565b915050600a8261253a91906136bf565b9150612517565b60008167ffffffffffffffff811115612583577f4e487b7100000000000000000000000000000000000000000000000000000000600052604160045260246000fd5b6040519080825280601f01601f1916602001820160405280156125b55781602001600182028036833780820191505090505b5090505b60008514612668576001826125ce919061374a565b9150600a856125dd9190613920565b60306125e99190613669565b60f81b818381518110612625577f4e487b7100000000000000000000000000000000000000000000000000000000600052603260045260246000fd5b60200101907effffffffffffffffffffffffffffffffffffffffffffffffffffffffffffff1916908160001a905350600a8561266191906136bf565b94506125b9565b8093505050505b919050565b6000826126818584612731565b1490509392505050565b60009392505050565b61269e83836127ad565b60008373ffffffffffffffffffffffffffffffffffffffff163b1461272c57600080549050600083820390505b6126de60008683806001019450866122d5565b612714576040517fd1a57ed600000000000000000000000000000000000000000000000000000000815260040160405180910390fd5b8181106126cb57816000541461272957600080fd5b50505b505050565b60008082905060005b84518110156127a25761278d82868381518110612780577f4e487b7100000000000000000000000000000000000000000000000000000000600052603260045260246000fd5b6020026020010151612981565b9150808061279a906138b3565b91505061273a565b508091505092915050565b600080549050600073ffffffffffffffffffffffffffffffffffffffff168373ffffffffffffffffffffffffffffffffffffffff16141561281a576040517f2e07630000000000000000000000000000000000000000000000000000000000815260040160405180910390fd5b6000821415612855576040517fb562e8dd00000000000000000000000000000000000000000000000000000000815260040160405180910390fd5b612862600084838561218a565b600160406001901b178202600560008573ffffffffffffffffffffffffffffffffffffffff1673ffffffffffffffffffffffffffffffffffffffff168152602001908152602001600020600082825401925050819055506128d9836128ca6000866000612190565b6128d3856129ac565b176121b8565b60046000838152602001908152602001600020819055506000819050600083830190505b818060010192508573ffffffffffffffffffffffffffffffffffffffff16600073ffffffffffffffffffffffffffffffffffffffff167fddf252ad1be2c89b69c2b068fc378daa952ba7f163c4a11628f55a4df523b3ef60405160405180910390a48082106128fd5780600081905550505061297c60008483856121e3565b505050565b60008183106129995761299482846129bc565b6129a4565b6129a383836129bc565b5b905092915050565b60006001821460e11b9050919050565b600082600052816020526040600020905092915050565b8280546129df90613850565b90600052602060002090601f016020900481019282612a015760008555612a48565b82601f10612a1a57805160ff1916838001178555612a48565b82800160010185558215612a48579182015b82811115612a47578251825591602001919060010190612a2c565b5b509050612a559190612a59565b5090565b5b80821115612a72576000816000905550600101612a5a565b5090565b6000612a89612a84846135a4565b61357f565b905082815260208101848484011115612aa157600080fd5b612aac84828561380e565b509392505050565b6000612ac7612ac2846135d5565b61357f565b905082815260208101848484011115612adf57600080fd5b612aea84828561380e565b509392505050565b600081359050612b0181613cb5565b92915050565b60008083601f840112612b1957600080fd5b8235905067ffffffffffffffff811115612b3257600080fd5b602083019150836020820283011115612b4a57600080fd5b9250929050565b600081359050612b6081613ccc565b92915050565b600081359050612b7581613ce3565b92915050565b600081359050612b8a81613cfa565b92915050565b600081519050612b9f81613cfa565b92915050565b600082601f830112612bb657600080fd5b8135612bc6848260208601612a76565b91505092915050565b600082601f830112612be057600080fd5b8135612bf0848260208601612ab4565b91505092915050565b600081359050612c0881613d11565b92915050565b600060208284031215612c2057600080fd5b6000612c2e84828501612af2565b91505092915050565b60008060408385031215612c4a57600080fd5b6000612c5885828601612af2565b9250506020612c6985828601612af2565b9150509250929050565b600080600060608486031215612c8857600080fd5b6000612c9686828701612af2565b9350506020612ca786828701612af2565b9250506040612cb886828701612bf9565b9150509250925092565b60008060008060808587031215612cd857600080fd5b6000612ce687828801612af2565b9450506020612cf787828801612af2565b9350506040612d0887828801612bf9565b925050606085013567ffffffffffffffff811115612d2557600080fd5b612d3187828801612ba5565b91505092959194509250565b60008060408385031215612d5057600080fd5b6000612d5e85828601612af2565b9250506020612d6f85828601612b51565b9150509250929050565b60008060408385031215612d8c57600080fd5b6000612d9a85828601612af2565b9250506020612dab85828601612bf9565b9150509250929050565b600060208284031215612dc757600080fd5b6000612dd584828501612b51565b91505092915050565b600060208284031215612df057600080fd5b6000612dfe84828501612b66565b91505092915050565b600060208284031215612e1957600080fd5b6000612e2784828501612b7b565b91505092915050565b600060208284031215612e4257600080fd5b6000612e5084828501612b90565b91505092915050565b600060208284031215612e6b57600080fd5b600082013567ffffffffffffffff811115612e8557600080fd5b612e9184828501612bcf565b91505092915050565b600060208284031215612eac57600080fd5b6000612eba84828501612bf9565b91505092915050565b600080600060408486031215612ed857600080fd5b6000612ee686828701612bf9565b935050602084013567ffffffffffffffff811115612f0357600080fd5b612f0f86828701612b07565b92509250509250925092565b612f2481613790565b82525050565b612f338161377e565b82525050565b612f4a612f458261377e565b6138fc565b82525050565b612f59816137a2565b82525050565b612f68816137ae565b82525050565b6000612f798261361b565b612f838185613631565b9350612f9381856020860161381d565b612f9c81613a0d565b840191505092915050565b6000612fb282613626565b612fbc818561364d565b9350612fcc81856020860161381d565b612fd581613a0d565b840191505092915050565b6000612feb82613626565b612ff5818561365e565b935061300581856020860161381d565b80840191505092915050565b6000815461301e81613850565b613028818661365e565b94506001821660008114613043576001811461305457613087565b60ff19831686528186019350613087565b61305d85613606565b60005b8381101561307f57815481890152600182019150602081019050613060565b838801955050505b50505092915050565b600061309d600e8361364d565b91506130a882613a2b565b602082019050919050565b60006130c060268361364d565b91506130cb82613a54565b604082019050919050565b60006130e360218361364d565b91506130ee82613aa3565b604082019050919050565b600061310660148361364d565b915061311182613af2565b602082019050919050565b600061312960168361364d565b915061313482613b1b565b602082019050919050565b600061314c60208361364d565b915061315782613b44565b602082019050919050565b600061316f60178361364d565b915061317a82613b6d565b602082019050919050565b600061319260188361364d565b915061319d82613b96565b602082019050919050565b60006131b5601d8361364d565b91506131c082613bbf565b602082019050919050565b60006131d8602f8361364d565b91506131e382613be8565b604082019050919050565b60006131fb600083613642565b915061320682613c37565b600082019050919050565b600061321e60148361364d565b915061322982613c3a565b602082019050919050565b6000613241601f8361364d565b915061324c82613c63565b602082019050919050565b600061326460138361364d565b915061326f82613c8c565b602082019050919050565b61328381613804565b82525050565b60006132958284612f39565b60148201915081905092915050565b60006132b08286612fe0565b91506132bc8285612fe0565b91506132c88284613011565b9150819050949350505050565b60006132e0826131ee565b9150819050919050565b60006020820190506132ff6000830184612f2a565b92915050565b600060208201905061331a6000830184612f1b565b92915050565b60006080820190506133356000830187612f2a565b6133426020830186612f2a565b61334f604083018561327a565b81810360608301526133618184612f6e565b905095945050505050565b60006020820190506133816000830184612f50565b92915050565b600060208201905061339c6000830184612f5f565b92915050565b600060208201905081810360008301526133bc8184612fa7565b905092915050565b600060208201905081810360008301526133dd81613090565b9050919050565b600060208201905081810360008301526133fd816130b3565b9050919050565b6000602082019050818103600083015261341d816130d6565b9050919050565b6000602082019050818103600083015261343d816130f9565b9050919050565b6000602082019050818103600083015261345d8161311c565b9050919050565b6000602082019050818103600083015261347d8161313f565b9050919050565b6000602082019050818103600083015261349d81613162565b9050919050565b600060208201905081810360008301526134bd81613185565b9050919050565b600060208201905081810360008301526134dd816131a8565b9050919050565b600060208201905081810360008301526134fd816131cb565b9050919050565b6000602082019050818103600083015261351d81613211565b9050919050565b6000602082019050818103600083015261353d81613234565b9050919050565b6000602082019050818103600083015261355d81613257565b9050919050565b6000602082019050613579600083018461327a565b92915050565b600061358961359a565b90506135958282613882565b919050565b6000604051905090565b600067ffffffffffffffff8211156135bf576135be6139de565b5b6135c882613a0d565b9050602081019050919050565b600067ffffffffffffffff8211156135f0576135ef6139de565b5b6135f982613a0d565b9050602081019050919050565b60008190508160005260206000209050919050565b600081519050919050565b600081519050919050565b600082825260208201905092915050565b600081905092915050565b600082825260208201905092915050565b600081905092915050565b600061367482613804565b915061367f83613804565b9250827fffffffffffffffffffffffffffffffffffffffffffffffffffffffffffffffff038211156136b4576136b3613951565b5b828201905092915050565b60006136ca82613804565b91506136d583613804565b9250826136e5576136e4613980565b5b828204905092915050565b60006136fb82613804565b915061370683613804565b9250817fffffffffffffffffffffffffffffffffffffffffffffffffffffffffffffffff048311821515161561373f5761373e613951565b5b828202905092915050565b600061375582613804565b915061376083613804565b92508282101561377357613772613951565b5b828203905092915050565b6000613789826137e4565b9050919050565b600061379b826137e4565b9050919050565b60008115159050919050565b6000819050919050565b60007fffffffff0000000000000000000000000000000000000000000000000000000082169050919050565b600073ffffffffffffffffffffffffffffffffffffffff82169050919050565b6000819050919050565b82818337600083830152505050565b60005b8381101561383b578082015181840152602081019050613820565b8381111561384a576000848401525b50505050565b6000600282049050600182168061386857607f821691505b6020821081141561387c5761387b6139af565b5b50919050565b61388b82613a0d565b810181811067ffffffffffffffff821117156138aa576138a96139de565b5b80604052505050565b60006138be82613804565b91507fffffffffffffffffffffffffffffffffffffffffffffffffffffffffffffffff8214156138f1576138f0613951565b5b600182019050919050565b60006139078261390e565b9050919050565b600061391982613a1e565b9050919050565b600061392b82613804565b915061393683613804565b92508261394657613945613980565b5b828206905092915050565b7f4e487b7100000000000000000000000000000000000000000000000000000000600052601160045260246000fd5b7f4e487b7100000000000000000000000000000000000000000000000000000000600052601260045260246000fd5b7f4e487b7100000000000000000000000000000000000000000000000000000000600052602260045260246000fd5b7f4e487b7100000000000000000000000000000000000000000000000000000000600052604160045260246000fd5b6000601f19601f8301169050919050565b60008160601b9050919050565b7f496e76616c69642070726f6f6621000000000000000000000000000000000000600082015250565b7f4f776e61626c653a206e6577206f776e657220697320746865207a65726f206160008201527f6464726573730000000000000000000000000000000000000000000000000000602082015250565b7f5468652077686974656c6973742073616c65206973206e6f742061637469766560008201527f2100000000000000000000000000000000000000000000000000000000000000602082015250565b7f496e76616c6964206d696e7420616d6f756e7421000000000000000000000000600082015250565b7f496e76616c69642057616c6c6574204164647265737300000000000000000000600082015250565b7f4f776e61626c653a2063616c6c6572206973206e6f7420746865206f776e6572600082015250565b7f54686520636f6e74726163742069732070617573656421000000000000000000600082015250565b7f4164647265737320616c726561647920636c61696d6564210000000000000000600082015250565b7f4e6f742056616c6964204164647265737320746f205769746864726177000000600082015250565b7f4552433732314d657461646174613a2055524920717565727920666f72206e6f60008201527f6e6578697374656e7420746f6b656e0000000000000000000000000000000000602082015250565b50565b7f4d617820737570706c7920657863656564656421000000000000000000000000600082015250565b7f5265656e7472616e637947756172643a207265656e7472616e742063616c6c00600082015250565b7f496e73756666696369656e742066756e64732100000000000000000000000000600082015250565b613cbe8161377e565b8114613cc957600080fd5b50565b613cd5816137a2565b8114613ce057600080fd5b50565b613cec816137ae565b8114613cf757600080fd5b50565b613d03816137b8565b8114613d0e57600080fd5b50565b613d1a81613804565b8114613d2557600080fd5b5056fea264697066735822122044172a283bb509c23b3998a3e804e8e851ba0e970145b8f5b0bfdaf0b4bb53d064736f6c63430008040033",
  "immutableReferences": {},
  "source": "// SPDX-License-Identifier: MIT\r\npragma solidity ^0.8.4;\r\n\r\nimport \"erc721a/contracts/ERC721A.sol\";\r\nimport '@openzeppelin/contracts/access/Ownable.sol';\r\nimport '@openzeppelin/contracts/utils/cryptography/MerkleProof.sol';\r\nimport '@openzeppelin/contracts/security/ReentrancyGuard.sol';\r\nimport \"@openzeppelin/contracts/utils/Strings.sol\";\r\n\r\ncontract StoneSquad is ERC721A, Ownable, ReentrancyGuard {\r\n    \r\n    using Strings for uint256;\r\n    bytes32 public merkleRoot;\r\n    \r\n    //Constructor\r\n    uint256 public cost;\r\n    uint256 public maxSupply;\r\n    uint256 public maxMintAmountPerTx;\r\n    \r\n    //Whitelist\r\n    bool public paused = true;\r\n    bool public whitelistMintEnabled = false;\r\n    bool public revealed = false;\r\n    mapping(address => bool) public whitelistClaimed;\r\n    //URI Path\r\n    string public uriPrefix = '';\r\n    string public uriSuffix = '.json';\r\n    //Paymet Splitter - DeFi \r\n    address payable public payments;\r\n    address[] public payees;\r\n\r\n    //Balance\r\n    uint256 totalBalance;\r\n\r\n    constructor(\r\n    string memory _tokenName,\r\n    string memory _tokenSymbol,\r\n    uint256 _maxSupply,\r\n    uint256 _maxMintAmountPerTx,\r\n    address _payments,\r\n    address[] memory _payees\r\n  ) ERC721A(_tokenName, _tokenSymbol) {\r\n    maxSupply = _maxSupply;    \r\n    payees = _payees;\r\n    payments = payable(_payments);\r\n    setMaxMintAmountPerTx(_maxMintAmountPerTx);\r\n    cost = 1 ether;\r\n  }\r\n  modifier checkPaymentAddress(address withdrawAddress){\r\n    bool status=false;\r\n    for(uint i=0;i<payees.length;i++){\r\n      if(payees[i]==withdrawAddress){\r\n        status = true;\r\n      }\r\n    }\r\n    require(status,\"Not Valid Address to Withdraw\");\r\n    _;\r\n  }\r\n  modifier mintCompliance(uint256 _mintQuantity) {\r\n    require(_mintQuantity > 0 && _mintQuantity <= maxMintAmountPerTx, 'Invalid mint amount!');\r\n    require(totalSupply() + _mintQuantity <= maxSupply, 'Max supply exceeded!');\r\n    _;\r\n  }\r\n   modifier mintPriceCompliance(uint256 _mintAmount) {\r\n    require(msg.value >= cost * _mintAmount, 'Insufficient funds!');\r\n    _;\r\n  }\r\n  \r\n  modifier checkWalletAddress(){\r\n    require(tx.origin == msg.sender,\"Invalid Wallet Address\");\r\n    _;\r\n  }\r\n  function getMinted() public view returns (uint256){\r\n    return totalSupply();\r\n  }\r\n  function setCost(uint256 _cost) public onlyOwner {\r\n    cost = _cost;\r\n  }\r\n  function setMaxMintAmountPerTx(uint256 _maxMintAmountPerTx) public onlyOwner {\r\n    maxMintAmountPerTx = _maxMintAmountPerTx;\r\n  }\r\n\r\n   function whitelistMint(uint256 _mintAmount, bytes32[] calldata _merkleProof) public payable mintCompliance(_mintAmount) mintPriceCompliance(_mintAmount) checkWalletAddress() {\r\n    // Verify whitelist requirements\r\n    require(whitelistMintEnabled, 'The whitelist sale is not active!');\r\n    require(!whitelistClaimed[_msgSender()], 'Address already claimed!');\r\n    bytes32 leaf = keccak256(abi.encodePacked(_msgSender()));\r\n    require(MerkleProof.verify(_merkleProof, merkleRoot, leaf), 'Invalid proof!');\r\n    whitelistClaimed[_msgSender()] = true;\r\n    totalBalance += msg.value;\r\n    _safeMint(_msgSender(), _mintAmount);\r\n  }\r\n  function mint(uint256 _mintAmount) public payable mintCompliance(_mintAmount) mintPriceCompliance(_mintAmount) checkWalletAddress(){\r\n    require(!paused, 'The contract is paused!');\r\n    totalBalance += msg.value;\r\n    _safeMint(_msgSender(), _mintAmount);\r\n  }\r\n   function _startTokenId() internal view virtual override returns (uint256) {\r\n    return 1;\r\n  }\r\n\r\n  function tokenURI(uint256 _tokenId) public view virtual override returns (string memory) {\r\n    require(_exists(_tokenId), 'ERC721Metadata: URI query for nonexistent token');\r\n\r\n    string memory currentBaseURI = _baseURI();\r\n    return bytes(currentBaseURI).length > 0\r\n        ? string(abi.encodePacked(currentBaseURI, _tokenId.toString(), uriSuffix))\r\n        : '';\r\n  }\r\n  function _baseURI() internal view virtual override returns (string memory) {\r\n    return uriPrefix;\r\n  }\r\n  function setUriPrefix(string memory _uriPrefix) public onlyOwner {\r\n    uriPrefix = _uriPrefix;\r\n  }\r\n  function setUriSuffix(string memory _uriSuffix) public onlyOwner {\r\n    uriSuffix = _uriSuffix;\r\n  }  \r\n  function setPaused(bool _state) public onlyOwner {\r\n    paused = _state;\r\n  }\r\n  function setMerkleRoot(bytes32 _merkleRoot) public onlyOwner {\r\n    merkleRoot = _merkleRoot;\r\n  }\r\n  function setWhitelistMintEnabled(bool _state) public onlyOwner {\r\n    whitelistMintEnabled = _state;\r\n  }\r\n  function currentBalance() public view returns(uint256){\r\n    return address(this).balance;\r\n  }\r\n  function getTotalBalance() public view returns(uint256)\r\n  {\r\n    return totalBalance;\r\n  }\r\n  \r\n  function withdraw() public checkPaymentAddress(msg.sender) nonReentrant {\r\n    (bool success, ) = payable(payments).call{value: address(this).balance}(\"\");    \r\n    // (bool os, ) = payable(owner()).call{value: address(this).balance}('');\r\n    require(success);    \r\n  }\r\n}",
  "sourcePath": "D:\\nftproducts\\stonesquadmintproject\\stonesquadadmin\\contracts\\StoneSquad.sol",
  "compiler": {
    "name": "solc",
    "version": "0.8.4+commit.c7e474f2.Emscripten.clang"
  },
  "schemaVersion": "3.4.3",
  "updatedAt": "2022-07-23T07:42:11.151Z",
  "networkType": "ethereum",
  "devdoc": {
    "kind": "dev",
    "methods": {
      "approve(address,uint256)": {
        "details": "See {IERC721-approve}."
      },
      "balanceOf(address)": {
        "details": "See {IERC721-balanceOf}."
      },
      "getApproved(uint256)": {
        "details": "See {IERC721-getApproved}."
      },
      "isApprovedForAll(address,address)": {
        "details": "See {IERC721-isApprovedForAll}."
      },
      "name()": {
        "details": "See {IERC721Metadata-name}."
      },
      "owner()": {
        "details": "Returns the address of the current owner."
      },
      "ownerOf(uint256)": {
        "details": "See {IERC721-ownerOf}."
      },
      "renounceOwnership()": {
        "details": "Leaves the contract without owner. It will not be possible to call `onlyOwner` functions anymore. Can only be called by the current owner. NOTE: Renouncing ownership will leave the contract without an owner, thereby removing any functionality that is only available to the owner."
      },
      "safeTransferFrom(address,address,uint256)": {
        "details": "See {IERC721-safeTransferFrom}."
      },
      "safeTransferFrom(address,address,uint256,bytes)": {
        "details": "See {IERC721-safeTransferFrom}."
      },
      "setApprovalForAll(address,bool)": {
        "details": "See {IERC721-setApprovalForAll}."
      },
      "supportsInterface(bytes4)": {
        "details": "See {IERC165-supportsInterface}."
      },
      "symbol()": {
        "details": "See {IERC721Metadata-symbol}."
      },
      "totalSupply()": {
        "details": "Returns the total number of tokens in existence. Burned tokens will reduce the count. To get the total number of tokens minted, please see `_totalMinted`."
      },
      "transferFrom(address,address,uint256)": {
        "details": "Transfers `tokenId` from `from` to `to`. Requirements: - `to` cannot be the zero address. - `tokenId` token must be owned by `from`. Emits a {Transfer} event."
      },
      "transferOwnership(address)": {
        "details": "Transfers ownership of the contract to a new account (`newOwner`). Can only be called by the current owner."
      }
    },
    "version": 1
  },
  "userdoc": {
    "errors": {
      "ApprovalCallerNotOwnerNorApproved()": [
        {
          "notice": "The caller must own the token or be an approved operator."
        }
      ],
      "ApprovalQueryForNonexistentToken()": [
        {
          "notice": "The token does not exist."
        }
      ],
      "ApproveToCaller()": [
        {
          "notice": "The caller cannot approve to their own address."
        }
      ],
      "BalanceQueryForZeroAddress()": [
        {
          "notice": "Cannot query the balance for the zero address."
        }
      ],
      "MintERC2309QuantityExceedsLimit()": [
        {
          "notice": "The `quantity` minted with ERC2309 exceeds the safety limit."
        }
      ],
      "MintToZeroAddress()": [
        {
          "notice": "Cannot mint to the zero address."
        }
      ],
      "MintZeroQuantity()": [
        {
          "notice": "The quantity of tokens minted must be more than zero."
        }
      ],
      "OwnerQueryForNonexistentToken()": [
        {
          "notice": "The token does not exist."
        }
      ],
      "OwnershipNotInitializedForExtraData()": [
        {
          "notice": "The `extraData` cannot be set on an unintialized ownership slot."
        }
      ],
      "TransferCallerNotOwnerNorApproved()": [
        {
          "notice": "The caller must own the token or be an approved operator."
        }
      ],
      "TransferFromIncorrectOwner()": [
        {
          "notice": "The token must be owned by `from`."
        }
      ],
      "TransferToNonERC721ReceiverImplementer()": [
        {
          "notice": "Cannot safely transfer to a contract that does not implement the ERC721Receiver interface."
        }
      ],
      "TransferToZeroAddress()": [
        {
          "notice": "Cannot transfer to the zero address."
        }
      ],
      "URIQueryForNonexistentToken()": [
        {
          "notice": "The token does not exist."
        }
      ]
    },
    "kind": "user",
    "methods": {},
    "version": 1
  }
}